{
	"TransferUSDCBasic_flattened.sol": {
		"Client": {
			"abi": [
				{
					"inputs": [],
					"name": "EVM_EXTRA_ARGS_V1_TAG",
					"outputs": [
						{
							"internalType": "bytes4",
							"name": "",
							"type": "bytes4"
						}
					],
					"stateMutability": "view",
					"type": "function"
				},
				{
					"inputs": [],
					"name": "EVM_EXTRA_ARGS_V2_TAG",
					"outputs": [
						{
							"internalType": "bytes4",
							"name": "",
							"type": "bytes4"
						}
					],
					"stateMutability": "view",
					"type": "function"
				}
			],
			"devdoc": {
				"kind": "dev",
				"methods": {},
				"version": 1
			},
			"evm": {
				"assembly": "    /* \"TransferUSDCBasic_flattened.sol\":123:2275  library Client {... */\n  dataSize(sub_0)\n  dataOffset(sub_0)\n  0x0b\n  dup3\n  dup3\n  dup3\n  codecopy\n  dup1\n  mload\n  0x00\n  byte\n  0x73\n  eq\n  tag_1\n  jumpi\n  mstore(0x00, 0x4e487b7100000000000000000000000000000000000000000000000000000000)\n  mstore(0x04, 0x00)\n  revert(0x00, 0x24)\ntag_1:\n  mstore(0x00, address)\n  0x73\n  dup2\n  mstore8\n  dup3\n  dup2\n  return\nstop\n\nsub_0: assembly {\n        /* \"TransferUSDCBasic_flattened.sol\":123:2275  library Client {... */\n      eq(address, deployTimeAddress())\n      mstore(0x40, 0x80)\n      jumpi(tag_1, lt(calldatasize, 0x04))\n      shr(0xe0, calldataload(0x00))\n      dup1\n      0x3ab8c0d0\n      eq\n      tag_2\n      jumpi\n      dup1\n      0x8113c578\n      eq\n      tag_3\n      jumpi\n    tag_1:\n      0x00\n      dup1\n      revert\n        /* \"TransferUSDCBasic_flattened.sol\":1212:1269  bytes4 public constant EVM_EXTRA_ARGS_V1_TAG = 0x97a657c9 */\n    tag_2:\n      tag_4\n      tag_5\n      jump\t// in\n    tag_4:\n      mload(0x40)\n      tag_6\n      swap2\n      swap1\n      tag_7\n      jump\t// in\n    tag_6:\n      mload(0x40)\n      dup1\n      swap2\n      sub\n      swap1\n      return\n        /* \"TransferUSDCBasic_flattened.sol\":1548:1605  bytes4 public constant EVM_EXTRA_ARGS_V2_TAG = 0x181dcf10 */\n    tag_3:\n      tag_8\n      tag_9\n      jump\t// in\n    tag_8:\n      mload(0x40)\n      tag_10\n      swap2\n      swap1\n      tag_7\n      jump\t// in\n    tag_10:\n      mload(0x40)\n      dup1\n      swap2\n      sub\n      swap1\n      return\n        /* \"TransferUSDCBasic_flattened.sol\":1212:1269  bytes4 public constant EVM_EXTRA_ARGS_V1_TAG = 0x97a657c9 */\n    tag_5:\n        /* \"TransferUSDCBasic_flattened.sol\":1259:1269  0x97a657c9 */\n      0x97a657c9\n        /* \"TransferUSDCBasic_flattened.sol\":1212:1269  bytes4 public constant EVM_EXTRA_ARGS_V1_TAG = 0x97a657c9 */\n      0xe0\n      shl\n      dup2\n      jump\t// out\n        /* \"TransferUSDCBasic_flattened.sol\":1548:1605  bytes4 public constant EVM_EXTRA_ARGS_V2_TAG = 0x181dcf10 */\n    tag_9:\n        /* \"TransferUSDCBasic_flattened.sol\":1595:1605  0x181dcf10 */\n      0x181dcf10\n        /* \"TransferUSDCBasic_flattened.sol\":1548:1605  bytes4 public constant EVM_EXTRA_ARGS_V2_TAG = 0x181dcf10 */\n      0xe0\n      shl\n      dup2\n      jump\t// out\n        /* \"#utility.yul\":7:156   */\n    tag_11:\n        /* \"#utility.yul\":43:50   */\n      0x00\n        /* \"#utility.yul\":83:149   */\n      0xffffffff00000000000000000000000000000000000000000000000000000000\n        /* \"#utility.yul\":76:81   */\n      dup3\n        /* \"#utility.yul\":72:150   */\n      and\n        /* \"#utility.yul\":61:150   */\n      swap1\n      pop\n        /* \"#utility.yul\":7:156   */\n      swap2\n      swap1\n      pop\n      jump\t// out\n        /* \"#utility.yul\":162:285   */\n    tag_12:\n        /* \"#utility.yul\":255:278   */\n      tag_16\n        /* \"#utility.yul\":272:277   */\n      dup2\n        /* \"#utility.yul\":255:278   */\n      tag_11\n      jump\t// in\n    tag_16:\n        /* \"#utility.yul\":250:253   */\n      dup3\n        /* \"#utility.yul\":243:279   */\n      mstore\n        /* \"#utility.yul\":162:285   */\n      pop\n      pop\n      jump\t// out\n        /* \"#utility.yul\":291:525   */\n    tag_7:\n        /* \"#utility.yul\":390:394   */\n      0x00\n        /* \"#utility.yul\":428:430   */\n      0x20\n        /* \"#utility.yul\":417:426   */\n      dup3\n        /* \"#utility.yul\":413:431   */\n      add\n        /* \"#utility.yul\":405:431   */\n      swap1\n      pop\n        /* \"#utility.yul\":441:518   */\n      tag_18\n        /* \"#utility.yul\":515:516   */\n      0x00\n        /* \"#utility.yul\":504:513   */\n      dup4\n        /* \"#utility.yul\":500:517   */\n      add\n        /* \"#utility.yul\":491:497   */\n      dup5\n        /* \"#utility.yul\":441:518   */\n      tag_12\n      jump\t// in\n    tag_18:\n        /* \"#utility.yul\":291:525   */\n      swap3\n      swap2\n      pop\n      pop\n      jump\t// out\n\n    auxdata: 0xa2646970667358221220e10a29706c10c8403723377cdd0f9c5f8dbc4232f1ab69205b27a3bceec5ad5f64736f6c63430008130033\n}\n",
				"bytecode": {
					"linkReferences": {},
					"object": "610114610053600b82828239805160001a607314610046577f4e487b7100000000000000000000000000000000000000000000000000000000600052600060045260246000fd5b30600052607381538281f3fe7300000000000000000000000000000000000000003014608060405260043610603d5760003560e01c80633ab8c0d01460425780638113c57814605c575b600080fd5b60486076565b6040516053919060c5565b60405180910390f35b60626081565b604051606d919060c5565b60405180910390f35b6397a657c960e01b81565b63181dcf1060e01b81565b60007fffffffff0000000000000000000000000000000000000000000000000000000082169050919050565b60bf81608c565b82525050565b600060208201905060d8600083018460b8565b9291505056fea2646970667358221220e10a29706c10c8403723377cdd0f9c5f8dbc4232f1ab69205b27a3bceec5ad5f64736f6c63430008130033",
					"opcodes": "PUSH2 0x114 PUSH2 0x53 PUSH1 0xB DUP3 DUP3 DUP3 CODECOPY DUP1 MLOAD PUSH1 0x0 BYTE PUSH1 0x73 EQ PUSH2 0x46 JUMPI PUSH32 0x4E487B7100000000000000000000000000000000000000000000000000000000 PUSH1 0x0 MSTORE PUSH1 0x0 PUSH1 0x4 MSTORE PUSH1 0x24 PUSH1 0x0 REVERT JUMPDEST ADDRESS PUSH1 0x0 MSTORE PUSH1 0x73 DUP2 MSTORE8 DUP3 DUP2 RETURN INVALID PUSH20 0x0 ADDRESS EQ PUSH1 0x80 PUSH1 0x40 MSTORE PUSH1 0x4 CALLDATASIZE LT PUSH1 0x3D JUMPI PUSH1 0x0 CALLDATALOAD PUSH1 0xE0 SHR DUP1 PUSH4 0x3AB8C0D0 EQ PUSH1 0x42 JUMPI DUP1 PUSH4 0x8113C578 EQ PUSH1 0x5C JUMPI JUMPDEST PUSH1 0x0 DUP1 REVERT JUMPDEST PUSH1 0x48 PUSH1 0x76 JUMP JUMPDEST PUSH1 0x40 MLOAD PUSH1 0x53 SWAP2 SWAP1 PUSH1 0xC5 JUMP JUMPDEST PUSH1 0x40 MLOAD DUP1 SWAP2 SUB SWAP1 RETURN JUMPDEST PUSH1 0x62 PUSH1 0x81 JUMP JUMPDEST PUSH1 0x40 MLOAD PUSH1 0x6D SWAP2 SWAP1 PUSH1 0xC5 JUMP JUMPDEST PUSH1 0x40 MLOAD DUP1 SWAP2 SUB SWAP1 RETURN JUMPDEST PUSH4 0x97A657C9 PUSH1 0xE0 SHL DUP2 JUMP JUMPDEST PUSH4 0x181DCF10 PUSH1 0xE0 SHL DUP2 JUMP JUMPDEST PUSH1 0x0 PUSH32 0xFFFFFFFF00000000000000000000000000000000000000000000000000000000 DUP3 AND SWAP1 POP SWAP2 SWAP1 POP JUMP JUMPDEST PUSH1 0xBF DUP2 PUSH1 0x8C JUMP JUMPDEST DUP3 MSTORE POP POP JUMP JUMPDEST PUSH1 0x0 PUSH1 0x20 DUP3 ADD SWAP1 POP PUSH1 0xD8 PUSH1 0x0 DUP4 ADD DUP5 PUSH1 0xB8 JUMP JUMPDEST SWAP3 SWAP2 POP POP JUMP INVALID LOG2 PUSH5 0x6970667358 0x22 SLT KECCAK256 0xE1 EXP 0x29 PUSH17 0x6C10C8403723377CDD0F9C5F8DBC4232F1 0xAB PUSH10 0x205B27A3BCEEC5AD5F64 PUSH20 0x6F6C634300081300330000000000000000000000 "
				},
				"gasEstimates": {
					"creation": {
						"codeDepositCost": "55200",
						"executionCost": "130",
						"totalCost": "55330"
					},
					"external": {
						"EVM_EXTRA_ARGS_V1_TAG()": "303",
						"EVM_EXTRA_ARGS_V2_TAG()": "325"
					},
					"internal": {
						"_argsToBytes(struct Client.EVMExtraArgsV1 memory)": "infinite",
						"_argsToBytes(struct Client.EVMExtraArgsV2 memory)": "infinite"
					}
				},
				"methodIdentifiers": {
					"EVM_EXTRA_ARGS_V1_TAG()": "3ab8c0d0",
					"EVM_EXTRA_ARGS_V2_TAG()": "8113c578"
				}
			},
			"storageLayout": {
				"storage": [],
				"types": null
			},
			"userdoc": {
				"kind": "user",
				"methods": {},
				"version": 1
			}
		}
	}
}