{
	"TransferUSDCBasic_flattened.sol": {
		"TransferUSDCBasic": {
			"abi": [
				{
					"inputs": [],
					"stateMutability": "nonpayable",
					"type": "constructor"
				},
				{
					"inputs": [
						{
							"internalType": "uint256",
							"name": "currentBalance",
							"type": "uint256"
						},
						{
							"internalType": "uint256",
							"name": "calculatedFees",
							"type": "uint256"
						}
					],
					"name": "NotEnoughBalanceForFees",
					"type": "error"
				},
				{
					"inputs": [
						{
							"internalType": "uint256",
							"name": "currentBalance",
							"type": "uint256"
						}
					],
					"name": "NotEnoughBalanceUsdcForTransfer",
					"type": "error"
				},
				{
					"inputs": [],
					"name": "NothingToWithdraw",
					"type": "error"
				},
				{
					"anonymous": false,
					"inputs": [
						{
							"indexed": false,
							"internalType": "bytes32",
							"name": "messageId",
							"type": "bytes32"
						},
						{
							"indexed": false,
							"internalType": "uint64",
							"name": "destinationChainSelector",
							"type": "uint64"
						},
						{
							"indexed": false,
							"internalType": "address",
							"name": "receiver",
							"type": "address"
						},
						{
							"indexed": false,
							"internalType": "uint256",
							"name": "amount",
							"type": "uint256"
						},
						{
							"indexed": false,
							"internalType": "uint256",
							"name": "ccipFee",
							"type": "uint256"
						}
					],
					"name": "UsdcTransferred",
					"type": "event"
				},
				{
					"inputs": [],
					"name": "allowanceUsdc",
					"outputs": [
						{
							"internalType": "uint256",
							"name": "usdcAmount",
							"type": "uint256"
						}
					],
					"stateMutability": "view",
					"type": "function"
				},
				{
					"inputs": [
						{
							"internalType": "address",
							"name": "account",
							"type": "address"
						}
					],
					"name": "balancesOf",
					"outputs": [
						{
							"internalType": "uint256",
							"name": "linkBalance",
							"type": "uint256"
						},
						{
							"internalType": "uint256",
							"name": "usdcBalance",
							"type": "uint256"
						}
					],
					"stateMutability": "view",
					"type": "function"
				},
				{
					"inputs": [],
					"name": "owner",
					"outputs": [
						{
							"internalType": "address",
							"name": "",
							"type": "address"
						}
					],
					"stateMutability": "view",
					"type": "function"
				},
				{
					"inputs": [
						{
							"internalType": "address",
							"name": "_receiver",
							"type": "address"
						},
						{
							"internalType": "uint256",
							"name": "_amount",
							"type": "uint256"
						}
					],
					"name": "transferUsdcToSepolia",
					"outputs": [
						{
							"internalType": "bytes32",
							"name": "messageId",
							"type": "bytes32"
						}
					],
					"stateMutability": "nonpayable",
					"type": "function"
				},
				{
					"inputs": [
						{
							"internalType": "address",
							"name": "_beneficiary",
							"type": "address"
						},
						{
							"internalType": "address",
							"name": "_token",
							"type": "address"
						}
					],
					"name": "withdrawToken",
					"outputs": [],
					"stateMutability": "nonpayable",
					"type": "function"
				}
			],
			"devdoc": {
				"kind": "dev",
				"methods": {},
				"version": 1
			},
			"evm": {
				"assembly": "    /* \"TransferUSDCBasic_flattened.sol\":21872:25644  contract TransferUSDCBasic {... */\n  mstore(0x40, 0xe0)\n    /* \"TransferUSDCBasic_flattened.sol\":22388:22430  0xF694E193200268f9a4868e4Aa017A0118C9a8177 */\n  0xf694e193200268f9a4868e4aa017a0118c9a8177\n    /* \"TransferUSDCBasic_flattened.sol\":22360:22430  address ccipRouterAddress = 0xF694E193200268f9a4868e4Aa017A0118C9a8177 */\n  0x01\n  exp(0x0100, 0x00)\n  dup2\n  sload\n  dup2\n  0xffffffffffffffffffffffffffffffffffffffff\n  mul\n  not\n  and\n  swap1\n  dup4\n  0xffffffffffffffffffffffffffffffffffffffff\n  and\n  mul\n  or\n  swap1\n  sstore\n  pop\n    /* \"TransferUSDCBasic_flattened.sol\":22534:22576  0x0b9d5D9136855f6FEc3c0993feE6E9CE8a297846 */\n  0x0b9d5d9136855f6fec3c0993fee6e9ce8a297846\n    /* \"TransferUSDCBasic_flattened.sol\":22512:22576  address linkAddress = 0x0b9d5D9136855f6FEc3c0993feE6E9CE8a297846 */\n  0x02\n  exp(0x0100, 0x00)\n  dup2\n  sload\n  dup2\n  0xffffffffffffffffffffffffffffffffffffffff\n  mul\n  not\n  and\n  swap1\n  dup4\n  0xffffffffffffffffffffffffffffffffffffffff\n  and\n  mul\n  or\n  swap1\n  sstore\n  pop\n    /* \"TransferUSDCBasic_flattened.sol\":22681:22723  0x5425890298aed601595a70AB815c96711a31Bc65 */\n  0x5425890298aed601595a70ab815c96711a31bc65\n    /* \"TransferUSDCBasic_flattened.sol\":22659:22723  address usdcAddress = 0x5425890298aed601595a70AB815c96711a31Bc65 */\n  0x03\n  exp(0x0100, 0x00)\n  dup2\n  sload\n  dup2\n  0xffffffffffffffffffffffffffffffffffffffff\n  mul\n  not\n  and\n  swap1\n  dup4\n  0xffffffffffffffffffffffffffffffffffffffff\n  and\n  mul\n  or\n  swap1\n  sstore\n  pop\n    /* \"TransferUSDCBasic_flattened.sol\":22851:22871  16015286601757825753 */\n  0xde41ba4fc9d91ad9\n    /* \"TransferUSDCBasic_flattened.sol\":22817:22871  uint64 destinationChainSelector = 16015286601757825753 */\n  0x03\n  exp(0x0100, 0x14)\n  dup2\n  sload\n  dup2\n  0xffffffffffffffff\n  mul\n  not\n  and\n  swap1\n  dup4\n  0xffffffffffffffff\n  and\n  mul\n  or\n  swap1\n  sstore\n  pop\n    /* \"TransferUSDCBasic_flattened.sol\":23055:23241  constructor() {... */\n  callvalue\n  dup1\n  iszero\n  tag_1\n  jumpi\n  0x00\n  dup1\n  revert\ntag_1:\n  pop\n    /* \"TransferUSDCBasic_flattened.sol\":23087:23097  msg.sender */\n  caller\n    /* \"TransferUSDCBasic_flattened.sol\":23079:23084  owner */\n  0x00\n  dup1\n    /* \"TransferUSDCBasic_flattened.sol\":23079:23097  owner = msg.sender */\n  0x0100\n  exp\n  dup2\n  sload\n  dup2\n  0xffffffffffffffffffffffffffffffffffffffff\n  mul\n  not\n  and\n  swap1\n  dup4\n  0xffffffffffffffffffffffffffffffffffffffff\n  and\n  mul\n  or\n  swap1\n  sstore\n  pop\n    /* \"TransferUSDCBasic_flattened.sol\":23134:23151  ccipRouterAddress */\n  0x01\n  0x00\n  swap1\n  sload\n  swap1\n  0x0100\n  exp\n  swap1\n  div\n  0xffffffffffffffffffffffffffffffffffffffff\n  and\n    /* \"TransferUSDCBasic_flattened.sol\":23107:23152  ccipRouter = IRouterClient(ccipRouterAddress) */\n  0xffffffffffffffffffffffffffffffffffffffff\n  and\n  0x80\n  dup2\n  0xffffffffffffffffffffffffffffffffffffffff\n  and\n  dup2\n  mstore\n  pop\n  pop\n    /* \"TransferUSDCBasic_flattened.sol\":23181:23192  linkAddress */\n  0x02\n  0x00\n  swap1\n  sload\n  swap1\n  0x0100\n  exp\n  swap1\n  div\n  0xffffffffffffffffffffffffffffffffffffffff\n  and\n    /* \"TransferUSDCBasic_flattened.sol\":23162:23193  linkToken = IERC20(linkAddress) */\n  0xffffffffffffffffffffffffffffffffffffffff\n  and\n  0xa0\n  dup2\n  0xffffffffffffffffffffffffffffffffffffffff\n  and\n  dup2\n  mstore\n  pop\n  pop\n    /* \"TransferUSDCBasic_flattened.sol\":23222:23233  usdcAddress */\n  0x03\n  0x00\n  swap1\n  sload\n  swap1\n  0x0100\n  exp\n  swap1\n  div\n  0xffffffffffffffffffffffffffffffffffffffff\n  and\n    /* \"TransferUSDCBasic_flattened.sol\":23203:23234  usdcToken = IERC20(usdcAddress) */\n  0xffffffffffffffffffffffffffffffffffffffff\n  and\n  0xc0\n  dup2\n  0xffffffffffffffffffffffffffffffffffffffff\n  and\n  dup2\n  mstore\n  pop\n  pop\n    /* \"TransferUSDCBasic_flattened.sol\":21872:25644  contract TransferUSDCBasic {... */\n  mload(0x80)\n  mload(0xa0)\n  mload(0xc0)\n  codecopy(0x00, dataOffset(sub_0), dataSize(sub_0))\n  0x00\n  assignImmutable(\"0x0bf130d09ff5f4b6139a92ba375974bc03314776406dd3b463c5d5893e064a66\")\n  0x00\n  assignImmutable(\"0x952803362675801135e2a054978c00aff991471bd59cc252d9b843c8ff1e2daa\")\n  0x00\n  assignImmutable(\"0xda4bc0834df5f35f2ff3b3ad68ab00da98db78b82aa2887322aa0d1e3df2efdc\")\n  return(0x00, dataSize(sub_0))\nstop\n\nsub_0: assembly {\n        /* \"TransferUSDCBasic_flattened.sol\":21872:25644  contract TransferUSDCBasic {... */\n      mstore(0x40, 0x80)\n      callvalue\n      dup1\n      iszero\n      tag_1\n      jumpi\n      0x00\n      dup1\n      revert\n    tag_1:\n      pop\n      jumpi(tag_2, lt(calldatasize, 0x04))\n      shr(0xe0, calldataload(0x00))\n      dup1\n      0x3aeac4e1\n      eq\n      tag_3\n      jumpi\n      dup1\n      0x6392a51f\n      eq\n      tag_4\n      jumpi\n      dup1\n      0x8da5cb5b\n      eq\n      tag_5\n      jumpi\n      dup1\n      0xed3bd5bc\n      eq\n      tag_6\n      jumpi\n      dup1\n      0xfe2c5d36\n      eq\n      tag_7\n      jumpi\n    tag_2:\n      0x00\n      dup1\n      revert\n        /* \"TransferUSDCBasic_flattened.sol\":25361:25642  function withdrawToken(... */\n    tag_3:\n      tag_8\n      0x04\n      dup1\n      calldatasize\n      sub\n      dup2\n      add\n      swap1\n      tag_9\n      swap2\n      swap1\n      tag_10\n      jump\t// in\n    tag_9:\n      tag_11\n      jump\t// in\n    tag_8:\n      stop\n        /* \"TransferUSDCBasic_flattened.sol\":25052:25272  function balancesOf(address account) public view returns (uint256 linkBalance, uint256 usdcBalance) {... */\n    tag_4:\n      tag_12\n      0x04\n      dup1\n      calldatasize\n      sub\n      dup2\n      add\n      swap1\n      tag_13\n      swap2\n      swap1\n      tag_14\n      jump\t// in\n    tag_13:\n      tag_15\n      jump\t// in\n    tag_12:\n      mload(0x40)\n      tag_16\n      swap3\n      swap2\n      swap1\n      tag_17\n      jump\t// in\n    tag_16:\n      mload(0x40)\n      dup1\n      swap2\n      sub\n      swap1\n      return\n        /* \"TransferUSDCBasic_flattened.sol\":22120:22140  address public owner */\n    tag_5:\n      tag_18\n      tag_19\n      jump\t// in\n    tag_18:\n      mload(0x40)\n      tag_20\n      swap2\n      swap1\n      tag_21\n      jump\t// in\n    tag_20:\n      mload(0x40)\n      dup1\n      swap2\n      sub\n      swap1\n      return\n        /* \"TransferUSDCBasic_flattened.sol\":24904:25046  function allowanceUsdc() public view returns (uint256 usdcAmount) {... */\n    tag_6:\n      tag_22\n      tag_23\n      jump\t// in\n    tag_22:\n      mload(0x40)\n      tag_24\n      swap2\n      swap1\n      tag_25\n      jump\t// in\n    tag_24:\n      mload(0x40)\n      dup1\n      swap2\n      sub\n      swap1\n      return\n        /* \"TransferUSDCBasic_flattened.sol\":23247:24898  function transferUsdcToSepolia(... */\n    tag_7:\n      tag_26\n      0x04\n      dup1\n      calldatasize\n      sub\n      dup2\n      add\n      swap1\n      tag_27\n      swap2\n      swap1\n      tag_28\n      jump\t// in\n    tag_27:\n      tag_29\n      jump\t// in\n    tag_26:\n      mload(0x40)\n      tag_30\n      swap2\n      swap1\n      tag_31\n      jump\t// in\n    tag_30:\n      mload(0x40)\n      dup1\n      swap2\n      sub\n      swap1\n      return\n        /* \"TransferUSDCBasic_flattened.sol\":25361:25642  function withdrawToken(... */\n    tag_11:\n        /* \"TransferUSDCBasic_flattened.sol\":25331:25336  owner */\n      0x00\n      dup1\n      sload\n      swap1\n      0x0100\n      exp\n      swap1\n      div\n      0xffffffffffffffffffffffffffffffffffffffff\n      and\n        /* \"TransferUSDCBasic_flattened.sol\":25317:25336  msg.sender == owner */\n      0xffffffffffffffffffffffffffffffffffffffff\n      and\n        /* \"TransferUSDCBasic_flattened.sol\":25317:25327  msg.sender */\n      caller\n        /* \"TransferUSDCBasic_flattened.sol\":25317:25336  msg.sender == owner */\n      0xffffffffffffffffffffffffffffffffffffffff\n      and\n      eq\n        /* \"TransferUSDCBasic_flattened.sol\":25309:25337  require(msg.sender == owner) */\n      tag_33\n      jumpi\n      0x00\n      dup1\n      revert\n    tag_33:\n        /* \"TransferUSDCBasic_flattened.sol\":25471:25485  uint256 amount */\n      0x00\n        /* \"TransferUSDCBasic_flattened.sol\":25495:25501  _token */\n      dup2\n        /* \"TransferUSDCBasic_flattened.sol\":25488:25512  IERC20(_token).balanceOf */\n      0xffffffffffffffffffffffffffffffffffffffff\n      and\n      0x70a08231\n        /* \"TransferUSDCBasic_flattened.sol\":25521:25525  this */\n      address\n        /* \"TransferUSDCBasic_flattened.sol\":25488:25527  IERC20(_token).balanceOf(address(this)) */\n      mload(0x40)\n      dup3\n      0xffffffff\n      and\n      0xe0\n      shl\n      dup2\n      mstore\n      0x04\n      add\n      tag_35\n      swap2\n      swap1\n      tag_21\n      jump\t// in\n    tag_35:\n      0x20\n      mload(0x40)\n      dup1\n      dup4\n      sub\n      dup2\n      dup7\n      gas\n      staticcall\n      iszero\n      dup1\n      iszero\n      tag_37\n      jumpi\n      returndatasize\n      0x00\n      dup1\n      returndatacopy\n      revert(0x00, returndatasize)\n    tag_37:\n      pop\n      pop\n      pop\n      pop\n      mload(0x40)\n      returndatasize\n      not(0x1f)\n      0x1f\n      dup3\n      add\n      and\n      dup3\n      add\n      dup1\n      0x40\n      mstore\n      pop\n      dup2\n      add\n      swap1\n      tag_38\n      swap2\n      swap1\n      tag_39\n      jump\t// in\n    tag_38:\n        /* \"TransferUSDCBasic_flattened.sol\":25471:25527  uint256 amount = IERC20(_token).balanceOf(address(this)) */\n      swap1\n      pop\n        /* \"TransferUSDCBasic_flattened.sol\":25551:25552  0 */\n      0x00\n        /* \"TransferUSDCBasic_flattened.sol\":25541:25547  amount */\n      dup2\n        /* \"TransferUSDCBasic_flattened.sol\":25541:25552  amount == 0 */\n      sub\n        /* \"TransferUSDCBasic_flattened.sol\":25537:25580  if (amount == 0) revert NothingToWithdraw() */\n      tag_40\n      jumpi\n        /* \"TransferUSDCBasic_flattened.sol\":25561:25580  NothingToWithdraw() */\n      mload(0x40)\n      0xd0d04f6000000000000000000000000000000000000000000000000000000000\n      dup2\n      mstore\n      0x04\n      add\n      mload(0x40)\n      dup1\n      swap2\n      sub\n      swap1\n      revert\n        /* \"TransferUSDCBasic_flattened.sol\":25537:25580  if (amount == 0) revert NothingToWithdraw() */\n    tag_40:\n        /* \"TransferUSDCBasic_flattened.sol\":25597:25603  _token */\n      dup2\n        /* \"TransferUSDCBasic_flattened.sol\":25590:25613  IERC20(_token).transfer */\n      0xffffffffffffffffffffffffffffffffffffffff\n      and\n      0xa9059cbb\n        /* \"TransferUSDCBasic_flattened.sol\":25614:25626  _beneficiary */\n      dup5\n        /* \"TransferUSDCBasic_flattened.sol\":25628:25634  amount */\n      dup4\n        /* \"TransferUSDCBasic_flattened.sol\":25590:25635  IERC20(_token).transfer(_beneficiary, amount) */\n      mload(0x40)\n      dup4\n      0xffffffff\n      and\n      0xe0\n      shl\n      dup2\n      mstore\n      0x04\n      add\n      tag_41\n      swap3\n      swap2\n      swap1\n      tag_42\n      jump\t// in\n    tag_41:\n      0x20\n      mload(0x40)\n      dup1\n      dup4\n      sub\n      dup2\n      0x00\n      dup8\n      gas\n      call\n      iszero\n      dup1\n      iszero\n      tag_44\n      jumpi\n      returndatasize\n      0x00\n      dup1\n      returndatacopy\n      revert(0x00, returndatasize)\n    tag_44:\n      pop\n      pop\n      pop\n      pop\n      mload(0x40)\n      returndatasize\n      not(0x1f)\n      0x1f\n      dup3\n      add\n      and\n      dup3\n      add\n      dup1\n      0x40\n      mstore\n      pop\n      dup2\n      add\n      swap1\n      tag_45\n      swap2\n      swap1\n      tag_46\n      jump\t// in\n    tag_45:\n      pop\n        /* \"TransferUSDCBasic_flattened.sol\":25461:25642  {... */\n      pop\n        /* \"TransferUSDCBasic_flattened.sol\":25361:25642  function withdrawToken(... */\n      pop\n      pop\n      jump\t// out\n        /* \"TransferUSDCBasic_flattened.sol\":25052:25272  function balancesOf(address account) public view returns (uint256 linkBalance, uint256 usdcBalance) {... */\n    tag_15:\n        /* \"TransferUSDCBasic_flattened.sol\":25110:25129  uint256 linkBalance */\n      0x00\n        /* \"TransferUSDCBasic_flattened.sol\":25131:25150  uint256 usdcBalance */\n      dup1\n        /* \"TransferUSDCBasic_flattened.sol\":25177:25186  linkToken */\n      immutable(\"0x952803362675801135e2a054978c00aff991471bd59cc252d9b843c8ff1e2daa\")\n        /* \"TransferUSDCBasic_flattened.sol\":25177:25196  linkToken.balanceOf */\n      0xffffffffffffffffffffffffffffffffffffffff\n      and\n      0x70a08231\n        /* \"TransferUSDCBasic_flattened.sol\":25197:25204  account */\n      dup5\n        /* \"TransferUSDCBasic_flattened.sol\":25177:25205  linkToken.balanceOf(account) */\n      mload(0x40)\n      dup3\n      0xffffffff\n      and\n      0xe0\n      shl\n      dup2\n      mstore\n      0x04\n      add\n      tag_48\n      swap2\n      swap1\n      tag_21\n      jump\t// in\n    tag_48:\n      0x20\n      mload(0x40)\n      dup1\n      dup4\n      sub\n      dup2\n      dup7\n      gas\n      staticcall\n      iszero\n      dup1\n      iszero\n      tag_50\n      jumpi\n      returndatasize\n      0x00\n      dup1\n      returndatacopy\n      revert(0x00, returndatasize)\n    tag_50:\n      pop\n      pop\n      pop\n      pop\n      mload(0x40)\n      returndatasize\n      not(0x1f)\n      0x1f\n      dup3\n      add\n      and\n      dup3\n      add\n      dup1\n      0x40\n      mstore\n      pop\n      dup2\n      add\n      swap1\n      tag_51\n      swap2\n      swap1\n      tag_39\n      jump\t// in\n    tag_51:\n        /* \"TransferUSDCBasic_flattened.sol\":25162:25205  linkBalance =  linkToken.balanceOf(account) */\n      swap2\n      pop\n        /* \"TransferUSDCBasic_flattened.sol\":25236:25245  usdcToken */\n      immutable(\"0x0bf130d09ff5f4b6139a92ba375974bc03314776406dd3b463c5d5893e064a66\")\n        /* \"TransferUSDCBasic_flattened.sol\":25229:25256  IERC20(usdcToken).balanceOf */\n      0xffffffffffffffffffffffffffffffffffffffff\n      and\n      0x70a08231\n        /* \"TransferUSDCBasic_flattened.sol\":25257:25264  account */\n      dup5\n        /* \"TransferUSDCBasic_flattened.sol\":25229:25265  IERC20(usdcToken).balanceOf(account) */\n      mload(0x40)\n      dup3\n      0xffffffff\n      and\n      0xe0\n      shl\n      dup2\n      mstore\n      0x04\n      add\n      tag_52\n      swap2\n      swap1\n      tag_21\n      jump\t// in\n    tag_52:\n      0x20\n      mload(0x40)\n      dup1\n      dup4\n      sub\n      dup2\n      dup7\n      gas\n      staticcall\n      iszero\n      dup1\n      iszero\n      tag_54\n      jumpi\n      returndatasize\n      0x00\n      dup1\n      returndatacopy\n      revert(0x00, returndatasize)\n    tag_54:\n      pop\n      pop\n      pop\n      pop\n      mload(0x40)\n      returndatasize\n      not(0x1f)\n      0x1f\n      dup3\n      add\n      and\n      dup3\n      add\n      dup1\n      0x40\n      mstore\n      pop\n      dup2\n      add\n      swap1\n      tag_55\n      swap2\n      swap1\n      tag_39\n      jump\t// in\n    tag_55:\n        /* \"TransferUSDCBasic_flattened.sol\":25215:25265  usdcBalance = IERC20(usdcToken).balanceOf(account) */\n      swap1\n      pop\n        /* \"TransferUSDCBasic_flattened.sol\":25052:25272  function balancesOf(address account) public view returns (uint256 linkBalance, uint256 usdcBalance) {... */\n      swap2\n      pop\n      swap2\n      jump\t// out\n        /* \"TransferUSDCBasic_flattened.sol\":22120:22140  address public owner */\n    tag_19:\n      0x00\n      dup1\n      sload\n      swap1\n      0x0100\n      exp\n      swap1\n      div\n      0xffffffffffffffffffffffffffffffffffffffff\n      and\n      dup2\n      jump\t// out\n        /* \"TransferUSDCBasic_flattened.sol\":24904:25046  function allowanceUsdc() public view returns (uint256 usdcAmount) {... */\n    tag_23:\n        /* \"TransferUSDCBasic_flattened.sol\":24950:24968  uint256 usdcAmount */\n      0x00\n        /* \"TransferUSDCBasic_flattened.sol\":24993:25002  usdcToken */\n      immutable(\"0x0bf130d09ff5f4b6139a92ba375974bc03314776406dd3b463c5d5893e064a66\")\n        /* \"TransferUSDCBasic_flattened.sol\":24993:25012  usdcToken.allowance */\n      0xffffffffffffffffffffffffffffffffffffffff\n      and\n      0xdd62ed3e\n        /* \"TransferUSDCBasic_flattened.sol\":25013:25023  msg.sender */\n      caller\n        /* \"TransferUSDCBasic_flattened.sol\":25033:25037  this */\n      address\n        /* \"TransferUSDCBasic_flattened.sol\":24993:25039  usdcToken.allowance(msg.sender, address(this)) */\n      mload(0x40)\n      dup4\n      0xffffffff\n      and\n      0xe0\n      shl\n      dup2\n      mstore\n      0x04\n      add\n      tag_57\n      swap3\n      swap2\n      swap1\n      tag_58\n      jump\t// in\n    tag_57:\n      0x20\n      mload(0x40)\n      dup1\n      dup4\n      sub\n      dup2\n      dup7\n      gas\n      staticcall\n      iszero\n      dup1\n      iszero\n      tag_60\n      jumpi\n      returndatasize\n      0x00\n      dup1\n      returndatacopy\n      revert(0x00, returndatasize)\n    tag_60:\n      pop\n      pop\n      pop\n      pop\n      mload(0x40)\n      returndatasize\n      not(0x1f)\n      0x1f\n      dup3\n      add\n      and\n      dup3\n      add\n      dup1\n      0x40\n      mstore\n      pop\n      dup2\n      add\n      swap1\n      tag_61\n      swap2\n      swap1\n      tag_39\n      jump\t// in\n    tag_61:\n        /* \"TransferUSDCBasic_flattened.sol\":24980:25039  usdcAmount = usdcToken.allowance(msg.sender, address(this)) */\n      swap1\n      pop\n        /* \"TransferUSDCBasic_flattened.sol\":24904:25046  function allowanceUsdc() public view returns (uint256 usdcAmount) {... */\n      swap1\n      jump\t// out\n        /* \"TransferUSDCBasic_flattened.sol\":23247:24898  function transferUsdcToSepolia(... */\n    tag_29:\n        /* \"TransferUSDCBasic_flattened.sol\":23370:23387  bytes32 messageId */\n      0x00\n        /* \"TransferUSDCBasic_flattened.sol\":23403:23458  Client.EVMTokenAmount[]... */\n      dup1\n        /* \"TransferUSDCBasic_flattened.sol\":23489:23490  1 */\n      0x01\n        /* \"TransferUSDCBasic_flattened.sol\":23461:23491  new Client.EVMTokenAmount[](1) */\n      0xffffffffffffffff\n      dup2\n      gt\n      iszero\n      tag_63\n      jumpi\n      tag_64\n      tag_65\n      jump\t// in\n    tag_64:\n    tag_63:\n      mload(0x40)\n      swap1\n      dup1\n      dup3\n      mstore\n      dup1\n      0x20\n      mul\n      0x20\n      add\n      dup3\n      add\n      0x40\n      mstore\n      dup1\n      iszero\n      tag_66\n      jumpi\n      dup2\n      0x20\n      add\n    tag_67:\n      tag_68\n      tag_69\n      jump\t// in\n    tag_68:\n      dup2\n      mstore\n      0x20\n      add\n      swap1\n      0x01\n      swap1\n      sub\n      swap1\n      dup2\n      tag_67\n      jumpi\n      swap1\n      pop\n    tag_66:\n      pop\n        /* \"TransferUSDCBasic_flattened.sol\":23403:23491  Client.EVMTokenAmount[]... */\n      swap1\n      pop\n        /* \"TransferUSDCBasic_flattened.sol\":23501:23541  Client.EVMTokenAmount memory tokenAmount */\n      0x00\n        /* \"TransferUSDCBasic_flattened.sol\":23544:23645  Client.EVMTokenAmount({... */\n      mload(0x40)\n      dup1\n      0x40\n      add\n      0x40\n      mstore\n      dup1\n        /* \"TransferUSDCBasic_flattened.sol\":23595:23604  usdcToken */\n      immutable(\"0x0bf130d09ff5f4b6139a92ba375974bc03314776406dd3b463c5d5893e064a66\")\n        /* \"TransferUSDCBasic_flattened.sol\":23544:23645  Client.EVMTokenAmount({... */\n      0xffffffffffffffffffffffffffffffffffffffff\n      and\n      dup2\n      mstore\n      0x20\n      add\n        /* \"TransferUSDCBasic_flattened.sol\":23627:23634  _amount */\n      dup6\n        /* \"TransferUSDCBasic_flattened.sol\":23544:23645  Client.EVMTokenAmount({... */\n      dup2\n      mstore\n      pop\n        /* \"TransferUSDCBasic_flattened.sol\":23501:23645  Client.EVMTokenAmount memory tokenAmount = Client.EVMTokenAmount({... */\n      swap1\n      pop\n        /* \"TransferUSDCBasic_flattened.sol\":23673:23684  tokenAmount */\n      dup1\n        /* \"TransferUSDCBasic_flattened.sol\":23655:23667  tokenAmounts */\n      dup3\n        /* \"TransferUSDCBasic_flattened.sol\":23668:23669  0 */\n      0x00\n        /* \"TransferUSDCBasic_flattened.sol\":23655:23670  tokenAmounts[0] */\n      dup2\n      mload\n      dup2\n      lt\n      tag_70\n      jumpi\n      tag_71\n      tag_72\n      jump\t// in\n    tag_71:\n    tag_70:\n      0x20\n      mul\n      0x20\n      add\n      add\n        /* \"TransferUSDCBasic_flattened.sol\":23655:23684  tokenAmounts[0] = tokenAmount */\n      dup2\n      swap1\n      mstore\n      pop\n        /* \"TransferUSDCBasic_flattened.sol\":23695:23731  Client.EVM2AnyMessage memory message */\n      0x00\n        /* \"TransferUSDCBasic_flattened.sol\":23734:24028  Client.EVM2AnyMessage({... */\n      mload(0x40)\n      dup1\n      0xa0\n      add\n      0x40\n      mstore\n      dup1\n        /* \"TransferUSDCBasic_flattened.sol\":23791:23800  _receiver */\n      dup8\n        /* \"TransferUSDCBasic_flattened.sol\":23780:23801  abi.encode(_receiver) */\n      add(0x20, mload(0x40))\n      tag_73\n      swap2\n      swap1\n      tag_21\n      jump\t// in\n    tag_73:\n      mload(0x40)\n      0x20\n      dup2\n      dup4\n      sub\n      sub\n      dup2\n      mstore\n      swap1\n      0x40\n      mstore\n        /* \"TransferUSDCBasic_flattened.sol\":23734:24028  Client.EVM2AnyMessage({... */\n      dup2\n      mstore\n      0x20\n      add\n      mload(0x40)\n      dup1\n      0x20\n      add\n      0x40\n      mstore\n      dup1\n      0x00\n      dup2\n      mstore\n      pop\n      dup2\n      mstore\n      0x20\n      add\n        /* \"TransferUSDCBasic_flattened.sol\":23851:23863  tokenAmounts */\n      dup5\n        /* \"TransferUSDCBasic_flattened.sol\":23734:24028  Client.EVM2AnyMessage({... */\n      dup2\n      mstore\n      0x20\n      add\n        /* \"TransferUSDCBasic_flattened.sol\":24007:24016  linkToken */\n      immutable(\"0x952803362675801135e2a054978c00aff991471bd59cc252d9b843c8ff1e2daa\")\n        /* \"TransferUSDCBasic_flattened.sol\":23734:24028  Client.EVM2AnyMessage({... */\n      0xffffffffffffffffffffffffffffffffffffffff\n      and\n      dup2\n      mstore\n      0x20\n      add\n        /* \"TransferUSDCBasic_flattened.sol\":23888:23975  Client._argsToBytes(... */\n      tag_74\n        /* \"TransferUSDCBasic_flattened.sol\":23925:23961  Client.EVMExtraArgsV1({gasLimit: 0}) */\n      mload(0x40)\n      dup1\n      0x20\n      add\n      0x40\n      mstore\n      dup1\n        /* \"TransferUSDCBasic_flattened.sol\":23958:23959  0 */\n      0x00\n        /* \"TransferUSDCBasic_flattened.sol\":23925:23961  Client.EVMExtraArgsV1({gasLimit: 0}) */\n      dup2\n      mstore\n      pop\n        /* \"TransferUSDCBasic_flattened.sol\":23888:23907  Client._argsToBytes */\n      tag_75\n        /* \"TransferUSDCBasic_flattened.sol\":23888:23975  Client._argsToBytes(... */\n      jump\t// in\n    tag_74:\n        /* \"TransferUSDCBasic_flattened.sol\":23734:24028  Client.EVM2AnyMessage({... */\n      dup2\n      mstore\n      pop\n        /* \"TransferUSDCBasic_flattened.sol\":23695:24028  Client.EVM2AnyMessage memory message = Client.EVM2AnyMessage({... */\n      swap1\n      pop\n        /* \"TransferUSDCBasic_flattened.sol\":24039:24054  uint256 ccipFee */\n      0x00\n        /* \"TransferUSDCBasic_flattened.sol\":24057:24067  ccipRouter */\n      immutable(\"0xda4bc0834df5f35f2ff3b3ad68ab00da98db78b82aa2887322aa0d1e3df2efdc\")\n        /* \"TransferUSDCBasic_flattened.sol\":24057:24074  ccipRouter.getFee */\n      0xffffffffffffffffffffffffffffffffffffffff\n      and\n      0x20487ded\n        /* \"TransferUSDCBasic_flattened.sol\":24088:24112  destinationChainSelector */\n      0x03\n      0x14\n      swap1\n      sload\n      swap1\n      0x0100\n      exp\n      swap1\n      div\n      0xffffffffffffffff\n      and\n        /* \"TransferUSDCBasic_flattened.sol\":24126:24133  message */\n      dup5\n        /* \"TransferUSDCBasic_flattened.sol\":24057:24143  ccipRouter.getFee(... */\n      mload(0x40)\n      dup4\n      0xffffffff\n      and\n      0xe0\n      shl\n      dup2\n      mstore\n      0x04\n      add\n      tag_76\n      swap3\n      swap2\n      swap1\n      tag_77\n      jump\t// in\n    tag_76:\n      0x20\n      mload(0x40)\n      dup1\n      dup4\n      sub\n      dup2\n      dup7\n      gas\n      staticcall\n      iszero\n      dup1\n      iszero\n      tag_79\n      jumpi\n      returndatasize\n      0x00\n      dup1\n      returndatacopy\n      revert(0x00, returndatasize)\n    tag_79:\n      pop\n      pop\n      pop\n      pop\n      mload(0x40)\n      returndatasize\n      not(0x1f)\n      0x1f\n      dup3\n      add\n      and\n      dup3\n      add\n      dup1\n      0x40\n      mstore\n      pop\n      dup2\n      add\n      swap1\n      tag_80\n      swap2\n      swap1\n      tag_39\n      jump\t// in\n    tag_80:\n        /* \"TransferUSDCBasic_flattened.sol\":24039:24143  uint256 ccipFee = ccipRouter.getFee(... */\n      swap1\n      pop\n        /* \"TransferUSDCBasic_flattened.sol\":24168:24177  linkToken */\n      immutable(\"0x952803362675801135e2a054978c00aff991471bd59cc252d9b843c8ff1e2daa\")\n        /* \"TransferUSDCBasic_flattened.sol\":24168:24187  linkToken.balanceOf */\n      0xffffffffffffffffffffffffffffffffffffffff\n      and\n      0x70a08231\n        /* \"TransferUSDCBasic_flattened.sol\":24196:24200  this */\n      address\n        /* \"TransferUSDCBasic_flattened.sol\":24168:24202  linkToken.balanceOf(address(this)) */\n      mload(0x40)\n      dup3\n      0xffffffff\n      and\n      0xe0\n      shl\n      dup2\n      mstore\n      0x04\n      add\n      tag_81\n      swap2\n      swap1\n      tag_21\n      jump\t// in\n    tag_81:\n      0x20\n      mload(0x40)\n      dup1\n      dup4\n      sub\n      dup2\n      dup7\n      gas\n      staticcall\n      iszero\n      dup1\n      iszero\n      tag_83\n      jumpi\n      returndatasize\n      0x00\n      dup1\n      returndatacopy\n      revert(0x00, returndatasize)\n    tag_83:\n      pop\n      pop\n      pop\n      pop\n      mload(0x40)\n      returndatasize\n      not(0x1f)\n      0x1f\n      dup3\n      add\n      and\n      dup3\n      add\n      dup1\n      0x40\n      mstore\n      pop\n      dup2\n      add\n      swap1\n      tag_84\n      swap2\n      swap1\n      tag_39\n      jump\t// in\n    tag_84:\n        /* \"TransferUSDCBasic_flattened.sol\":24158:24165  ccipFee */\n      dup2\n        /* \"TransferUSDCBasic_flattened.sol\":24158:24202  ccipFee > linkToken.balanceOf(address(this)) */\n      gt\n        /* \"TransferUSDCBasic_flattened.sol\":24154:24291  if (ccipFee > linkToken.balanceOf(address(this)))... */\n      iszero\n      tag_85\n      jumpi\n        /* \"TransferUSDCBasic_flattened.sol\":24247:24256  linkToken */\n      immutable(\"0x952803362675801135e2a054978c00aff991471bd59cc252d9b843c8ff1e2daa\")\n        /* \"TransferUSDCBasic_flattened.sol\":24247:24266  linkToken.balanceOf */\n      0xffffffffffffffffffffffffffffffffffffffff\n      and\n      0x70a08231\n        /* \"TransferUSDCBasic_flattened.sol\":24275:24279  this */\n      address\n        /* \"TransferUSDCBasic_flattened.sol\":24247:24281  linkToken.balanceOf(address(this)) */\n      mload(0x40)\n      dup3\n      0xffffffff\n      and\n      0xe0\n      shl\n      dup2\n      mstore\n      0x04\n      add\n      tag_86\n      swap2\n      swap1\n      tag_21\n      jump\t// in\n    tag_86:\n      0x20\n      mload(0x40)\n      dup1\n      dup4\n      sub\n      dup2\n      dup7\n      gas\n      staticcall\n      iszero\n      dup1\n      iszero\n      tag_88\n      jumpi\n      returndatasize\n      0x00\n      dup1\n      returndatacopy\n      revert(0x00, returndatasize)\n    tag_88:\n      pop\n      pop\n      pop\n      pop\n      mload(0x40)\n      returndatasize\n      not(0x1f)\n      0x1f\n      dup3\n      add\n      and\n      dup3\n      add\n      dup1\n      0x40\n      mstore\n      pop\n      dup2\n      add\n      swap1\n      tag_89\n      swap2\n      swap1\n      tag_39\n      jump\t// in\n    tag_89:\n        /* \"TransferUSDCBasic_flattened.sol\":24283:24290  ccipFee */\n      dup2\n        /* \"TransferUSDCBasic_flattened.sol\":24223:24291  NotEnoughBalanceForFees(linkToken.balanceOf(address(this)), ccipFee) */\n      mload(0x40)\n      0x28fdcaa100000000000000000000000000000000000000000000000000000000\n      dup2\n      mstore\n      0x04\n      add\n      tag_90\n      swap3\n      swap2\n      swap1\n      tag_17\n      jump\t// in\n    tag_90:\n      mload(0x40)\n      dup1\n      swap2\n      sub\n      swap1\n      revert\n        /* \"TransferUSDCBasic_flattened.sol\":24154:24291  if (ccipFee > linkToken.balanceOf(address(this)))... */\n    tag_85:\n        /* \"TransferUSDCBasic_flattened.sol\":24301:24310  linkToken */\n      immutable(\"0x952803362675801135e2a054978c00aff991471bd59cc252d9b843c8ff1e2daa\")\n        /* \"TransferUSDCBasic_flattened.sol\":24301:24318  linkToken.approve */\n      0xffffffffffffffffffffffffffffffffffffffff\n      and\n      0x095ea7b3\n        /* \"TransferUSDCBasic_flattened.sol\":24327:24337  ccipRouter */\n      immutable(\"0xda4bc0834df5f35f2ff3b3ad68ab00da98db78b82aa2887322aa0d1e3df2efdc\")\n        /* \"TransferUSDCBasic_flattened.sol\":24340:24347  ccipFee */\n      dup4\n        /* \"TransferUSDCBasic_flattened.sol\":24301:24348  linkToken.approve(address(ccipRouter), ccipFee) */\n      mload(0x40)\n      dup4\n      0xffffffff\n      and\n      0xe0\n      shl\n      dup2\n      mstore\n      0x04\n      add\n      tag_91\n      swap3\n      swap2\n      swap1\n      tag_42\n      jump\t// in\n    tag_91:\n      0x20\n      mload(0x40)\n      dup1\n      dup4\n      sub\n      dup2\n      0x00\n      dup8\n      gas\n      call\n      iszero\n      dup1\n      iszero\n      tag_93\n      jumpi\n      returndatasize\n      0x00\n      dup1\n      returndatacopy\n      revert(0x00, returndatasize)\n    tag_93:\n      pop\n      pop\n      pop\n      pop\n      mload(0x40)\n      returndatasize\n      not(0x1f)\n      0x1f\n      dup3\n      add\n      and\n      dup3\n      add\n      dup1\n      0x40\n      mstore\n      pop\n      dup2\n      add\n      swap1\n      tag_94\n      swap2\n      swap1\n      tag_46\n      jump\t// in\n    tag_94:\n      pop\n        /* \"TransferUSDCBasic_flattened.sol\":24373:24382  usdcToken */\n      immutable(\"0x0bf130d09ff5f4b6139a92ba375974bc03314776406dd3b463c5d5893e064a66\")\n        /* \"TransferUSDCBasic_flattened.sol\":24373:24392  usdcToken.balanceOf */\n      0xffffffffffffffffffffffffffffffffffffffff\n      and\n      0x70a08231\n        /* \"TransferUSDCBasic_flattened.sol\":24393:24403  msg.sender */\n      caller\n        /* \"TransferUSDCBasic_flattened.sol\":24373:24404  usdcToken.balanceOf(msg.sender) */\n      mload(0x40)\n      dup3\n      0xffffffff\n      and\n      0xe0\n      shl\n      dup2\n      mstore\n      0x04\n      add\n      tag_95\n      swap2\n      swap1\n      tag_21\n      jump\t// in\n    tag_95:\n      0x20\n      mload(0x40)\n      dup1\n      dup4\n      sub\n      dup2\n      dup7\n      gas\n      staticcall\n      iszero\n      dup1\n      iszero\n      tag_97\n      jumpi\n      returndatasize\n      0x00\n      dup1\n      returndatacopy\n      revert(0x00, returndatasize)\n    tag_97:\n      pop\n      pop\n      pop\n      pop\n      mload(0x40)\n      returndatasize\n      not(0x1f)\n      0x1f\n      dup3\n      add\n      and\n      dup3\n      add\n      dup1\n      0x40\n      mstore\n      pop\n      dup2\n      add\n      swap1\n      tag_98\n      swap2\n      swap1\n      tag_39\n      jump\t// in\n    tag_98:\n        /* \"TransferUSDCBasic_flattened.sol\":24363:24370  _amount */\n      dup7\n        /* \"TransferUSDCBasic_flattened.sol\":24363:24404  _amount > usdcToken.balanceOf(msg.sender) */\n      gt\n        /* \"TransferUSDCBasic_flattened.sol\":24359:24489  if (_amount > usdcToken.balanceOf(msg.sender))... */\n      iszero\n      tag_99\n      jumpi\n        /* \"TransferUSDCBasic_flattened.sol\":24457:24466  usdcToken */\n      immutable(\"0x0bf130d09ff5f4b6139a92ba375974bc03314776406dd3b463c5d5893e064a66\")\n        /* \"TransferUSDCBasic_flattened.sol\":24457:24476  usdcToken.balanceOf */\n      0xffffffffffffffffffffffffffffffffffffffff\n      and\n      0x70a08231\n        /* \"TransferUSDCBasic_flattened.sol\":24477:24487  msg.sender */\n      caller\n        /* \"TransferUSDCBasic_flattened.sol\":24457:24488  usdcToken.balanceOf(msg.sender) */\n      mload(0x40)\n      dup3\n      0xffffffff\n      and\n      0xe0\n      shl\n      dup2\n      mstore\n      0x04\n      add\n      tag_100\n      swap2\n      swap1\n      tag_21\n      jump\t// in\n    tag_100:\n      0x20\n      mload(0x40)\n      dup1\n      dup4\n      sub\n      dup2\n      dup7\n      gas\n      staticcall\n      iszero\n      dup1\n      iszero\n      tag_102\n      jumpi\n      returndatasize\n      0x00\n      dup1\n      returndatacopy\n      revert(0x00, returndatasize)\n    tag_102:\n      pop\n      pop\n      pop\n      pop\n      mload(0x40)\n      returndatasize\n      not(0x1f)\n      0x1f\n      dup3\n      add\n      and\n      dup3\n      add\n      dup1\n      0x40\n      mstore\n      pop\n      dup2\n      add\n      swap1\n      tag_103\n      swap2\n      swap1\n      tag_39\n      jump\t// in\n    tag_103:\n        /* \"TransferUSDCBasic_flattened.sol\":24425:24489  NotEnoughBalanceUsdcForTransfer(usdcToken.balanceOf(msg.sender)) */\n      mload(0x40)\n      0x6212cf3b00000000000000000000000000000000000000000000000000000000\n      dup2\n      mstore\n      0x04\n      add\n      tag_104\n      swap2\n      swap1\n      tag_25\n      jump\t// in\n    tag_104:\n      mload(0x40)\n      dup1\n      swap2\n      sub\n      swap1\n      revert\n        /* \"TransferUSDCBasic_flattened.sol\":24359:24489  if (_amount > usdcToken.balanceOf(msg.sender))... */\n    tag_99:\n        /* \"TransferUSDCBasic_flattened.sol\":24499:24561  usdcToken.safeTransferFrom(msg.sender, address(this), _amount) */\n      tag_105\n        /* \"TransferUSDCBasic_flattened.sol\":24526:24536  msg.sender */\n      caller\n        /* \"TransferUSDCBasic_flattened.sol\":24546:24550  this */\n      address\n        /* \"TransferUSDCBasic_flattened.sol\":24553:24560  _amount */\n      dup9\n        /* \"TransferUSDCBasic_flattened.sol\":24499:24508  usdcToken */\n      immutable(\"0x0bf130d09ff5f4b6139a92ba375974bc03314776406dd3b463c5d5893e064a66\")\n        /* \"TransferUSDCBasic_flattened.sol\":24499:24525  usdcToken.safeTransferFrom */\n      0xffffffffffffffffffffffffffffffffffffffff\n      and\n      tag_106\n      swap1\n        /* \"TransferUSDCBasic_flattened.sol\":24499:24561  usdcToken.safeTransferFrom(msg.sender, address(this), _amount) */\n      swap4\n      swap3\n      swap2\n      swap1\n      0xffffffff\n      and\n      jump\t// in\n    tag_105:\n        /* \"TransferUSDCBasic_flattened.sol\":24571:24580  usdcToken */\n      immutable(\"0x0bf130d09ff5f4b6139a92ba375974bc03314776406dd3b463c5d5893e064a66\")\n        /* \"TransferUSDCBasic_flattened.sol\":24571:24588  usdcToken.approve */\n      0xffffffffffffffffffffffffffffffffffffffff\n      and\n      0x095ea7b3\n        /* \"TransferUSDCBasic_flattened.sol\":24597:24607  ccipRouter */\n      immutable(\"0xda4bc0834df5f35f2ff3b3ad68ab00da98db78b82aa2887322aa0d1e3df2efdc\")\n        /* \"TransferUSDCBasic_flattened.sol\":24610:24617  _amount */\n      dup9\n        /* \"TransferUSDCBasic_flattened.sol\":24571:24618  usdcToken.approve(address(ccipRouter), _amount) */\n      mload(0x40)\n      dup4\n      0xffffffff\n      and\n      0xe0\n      shl\n      dup2\n      mstore\n      0x04\n      add\n      tag_107\n      swap3\n      swap2\n      swap1\n      tag_42\n      jump\t// in\n    tag_107:\n      0x20\n      mload(0x40)\n      dup1\n      dup4\n      sub\n      dup2\n      0x00\n      dup8\n      gas\n      call\n      iszero\n      dup1\n      iszero\n      tag_109\n      jumpi\n      returndatasize\n      0x00\n      dup1\n      returndatacopy\n      revert(0x00, returndatasize)\n    tag_109:\n      pop\n      pop\n      pop\n      pop\n      mload(0x40)\n      returndatasize\n      not(0x1f)\n      0x1f\n      dup3\n      add\n      and\n      dup3\n      add\n      dup1\n      0x40\n      mstore\n      pop\n      dup2\n      add\n      swap1\n      tag_110\n      swap2\n      swap1\n      tag_46\n      jump\t// in\n    tag_110:\n      pop\n        /* \"TransferUSDCBasic_flattened.sol\":24670:24680  ccipRouter */\n      immutable(\"0xda4bc0834df5f35f2ff3b3ad68ab00da98db78b82aa2887322aa0d1e3df2efdc\")\n        /* \"TransferUSDCBasic_flattened.sol\":24670:24689  ccipRouter.ccipSend */\n      0xffffffffffffffffffffffffffffffffffffffff\n      and\n      0x96f4e9f9\n        /* \"TransferUSDCBasic_flattened.sol\":24690:24714  destinationChainSelector */\n      0x03\n      0x14\n      swap1\n      sload\n      swap1\n      0x0100\n      exp\n      swap1\n      div\n      0xffffffffffffffff\n      and\n        /* \"TransferUSDCBasic_flattened.sol\":24716:24723  message */\n      dup5\n        /* \"TransferUSDCBasic_flattened.sol\":24670:24724  ccipRouter.ccipSend(destinationChainSelector, message) */\n      mload(0x40)\n      dup4\n      0xffffffff\n      and\n      0xe0\n      shl\n      dup2\n      mstore\n      0x04\n      add\n      tag_111\n      swap3\n      swap2\n      swap1\n      tag_77\n      jump\t// in\n    tag_111:\n      0x20\n      mload(0x40)\n      dup1\n      dup4\n      sub\n      dup2\n      0x00\n      dup8\n      gas\n      call\n      iszero\n      dup1\n      iszero\n      tag_113\n      jumpi\n      returndatasize\n      0x00\n      dup1\n      returndatacopy\n      revert(0x00, returndatasize)\n    tag_113:\n      pop\n      pop\n      pop\n      pop\n      mload(0x40)\n      returndatasize\n      not(0x1f)\n      0x1f\n      dup3\n      add\n      and\n      dup3\n      add\n      dup1\n      0x40\n      mstore\n      pop\n      dup2\n      add\n      swap1\n      tag_114\n      swap2\n      swap1\n      tag_115\n      jump\t// in\n    tag_114:\n        /* \"TransferUSDCBasic_flattened.sol\":24658:24724  messageId = ccipRouter.ccipSend(destinationChainSelector, message) */\n      swap5\n      pop\n        /* \"TransferUSDCBasic_flattened.sol\":24740:24891  UsdcTransferred(... */\n      0xb55a3d3f1ccd1c10f00aff03ad884028d98fa1d478fae03acecbf884ce8e8fbc\n        /* \"TransferUSDCBasic_flattened.sol\":24769:24778  messageId */\n      dup6\n        /* \"TransferUSDCBasic_flattened.sol\":24792:24816  destinationChainSelector */\n      0x03\n      0x14\n      swap1\n      sload\n      swap1\n      0x0100\n      exp\n      swap1\n      div\n      0xffffffffffffffff\n      and\n        /* \"TransferUSDCBasic_flattened.sol\":24830:24839  _receiver */\n      dup10\n        /* \"TransferUSDCBasic_flattened.sol\":24853:24860  _amount */\n      dup10\n        /* \"TransferUSDCBasic_flattened.sol\":24874:24881  ccipFee */\n      dup6\n        /* \"TransferUSDCBasic_flattened.sol\":24740:24891  UsdcTransferred(... */\n      mload(0x40)\n      tag_116\n      swap6\n      swap5\n      swap4\n      swap3\n      swap2\n      swap1\n      tag_117\n      jump\t// in\n    tag_116:\n      mload(0x40)\n      dup1\n      swap2\n      sub\n      swap1\n      log1\n        /* \"TransferUSDCBasic_flattened.sol\":23393:24898  {... */\n      pop\n      pop\n      pop\n      pop\n        /* \"TransferUSDCBasic_flattened.sol\":23247:24898  function transferUsdcToSepolia(... */\n      swap3\n      swap2\n      pop\n      pop\n      jump\t// out\n        /* \"TransferUSDCBasic_flattened.sol\":1327:1497  function _argsToBytes(EVMExtraArgsV1 memory extraArgs) internal pure returns (bytes memory bts) {... */\n    tag_75:\n        /* \"TransferUSDCBasic_flattened.sol\":1405:1421  bytes memory bts */\n      0x60\n        /* \"TransferUSDCBasic_flattened.sol\":1259:1269  0x97a657c9 */\n      0x97a657c9\n        /* \"TransferUSDCBasic_flattened.sol\":1459:1480  EVM_EXTRA_ARGS_V1_TAG */\n      0xe0\n      shl\n        /* \"TransferUSDCBasic_flattened.sol\":1482:1491  extraArgs */\n      dup3\n        /* \"TransferUSDCBasic_flattened.sol\":1436:1492  abi.encodeWithSelector(EVM_EXTRA_ARGS_V1_TAG, extraArgs) */\n      add(0x24, mload(0x40))\n      tag_119\n      swap2\n      swap1\n      tag_120\n      jump\t// in\n    tag_119:\n      mload(0x40)\n      0x20\n      dup2\n      dup4\n      sub\n      sub\n      dup2\n      mstore\n      swap1\n      0x40\n      mstore\n      swap1\n      not(0xffffffffffffffffffffffffffffffffffffffffffffffffffffffff)\n      and\n      0x20\n      dup3\n      add\n      dup1\n      mload\n      0xffffffffffffffffffffffffffffffffffffffffffffffffffffffff\n      dup4\n      dup2\n      dup4\n      and\n      or\n      dup4\n      mstore\n      pop\n      pop\n      pop\n      pop\n        /* \"TransferUSDCBasic_flattened.sol\":1429:1492  return abi.encodeWithSelector(EVM_EXTRA_ARGS_V1_TAG, extraArgs) */\n      swap1\n      pop\n        /* \"TransferUSDCBasic_flattened.sol\":1327:1497  function _argsToBytes(EVMExtraArgsV1 memory extraArgs) internal pure returns (bytes memory bts) {... */\n      swap2\n      swap1\n      pop\n      jump\t// out\n        /* \"TransferUSDCBasic_flattened.sol\":18393:18610  function safeTransferFrom(... */\n    tag_106:\n        /* \"TransferUSDCBasic_flattened.sol\":18509:18605  _callOptionalReturn(token, abi.encodeWithSelector(token.transferFrom.selector, from, to, value)) */\n      tag_122\n        /* \"TransferUSDCBasic_flattened.sol\":18529:18534  token */\n      dup5\n        /* \"TransferUSDCBasic_flattened.sol\":18559:18586  token.transferFrom.selector */\n      shl(0xe0, 0x23b872dd)\n        /* \"TransferUSDCBasic_flattened.sol\":18588:18592  from */\n      dup6\n        /* \"TransferUSDCBasic_flattened.sol\":18594:18596  to */\n      dup6\n        /* \"TransferUSDCBasic_flattened.sol\":18598:18603  value */\n      dup6\n        /* \"TransferUSDCBasic_flattened.sol\":18536:18604  abi.encodeWithSelector(token.transferFrom.selector, from, to, value) */\n      add(0x24, mload(0x40))\n      tag_123\n      swap4\n      swap3\n      swap2\n      swap1\n      tag_124\n      jump\t// in\n    tag_123:\n      mload(0x40)\n      0x20\n      dup2\n      dup4\n      sub\n      sub\n      dup2\n      mstore\n      swap1\n      0x40\n      mstore\n      swap1\n      not(0xffffffffffffffffffffffffffffffffffffffffffffffffffffffff)\n      and\n      0x20\n      dup3\n      add\n      dup1\n      mload\n      0xffffffffffffffffffffffffffffffffffffffffffffffffffffffff\n      dup4\n      dup2\n      dup4\n      and\n      or\n      dup4\n      mstore\n      pop\n      pop\n      pop\n      pop\n        /* \"TransferUSDCBasic_flattened.sol\":18509:18528  _callOptionalReturn */\n      tag_125\n        /* \"TransferUSDCBasic_flattened.sol\":18509:18605  _callOptionalReturn(token, abi.encodeWithSelector(token.transferFrom.selector, from, to, value)) */\n      jump\t// in\n    tag_122:\n        /* \"TransferUSDCBasic_flattened.sol\":18393:18610  function safeTransferFrom(... */\n      pop\n      pop\n      pop\n      pop\n      jump\t// out\n        /* \"TransferUSDCBasic_flattened.sol\":20930:21598  function _callOptionalReturn(IERC20 token, bytes memory data) private {... */\n    tag_125:\n        /* \"TransferUSDCBasic_flattened.sol\":21333:21356  bytes memory returndata */\n      0x00\n        /* \"TransferUSDCBasic_flattened.sol\":21359:21428  address(token).functionCall(data, \"SafeERC20: low-level call failed\") */\n      tag_127\n        /* \"TransferUSDCBasic_flattened.sol\":21387:21391  data */\n      dup3\n        /* \"TransferUSDCBasic_flattened.sol\":21359:21428  address(token).functionCall(data, \"SafeERC20: low-level call failed\") */\n      mload(0x40)\n      dup1\n      0x40\n      add\n      0x40\n      mstore\n      dup1\n      0x20\n      dup2\n      mstore\n      0x20\n      add\n      0x5361666545524332303a206c6f772d6c6576656c2063616c6c206661696c6564\n      dup2\n      mstore\n      pop\n        /* \"TransferUSDCBasic_flattened.sol\":21367:21372  token */\n      dup6\n        /* \"TransferUSDCBasic_flattened.sol\":21359:21386  address(token).functionCall */\n      0xffffffffffffffffffffffffffffffffffffffff\n      and\n      tag_128\n      swap1\n        /* \"TransferUSDCBasic_flattened.sol\":21359:21428  address(token).functionCall(data, \"SafeERC20: low-level call failed\") */\n      swap3\n      swap2\n      swap1\n      0xffffffff\n      and\n      jump\t// in\n    tag_127:\n        /* \"TransferUSDCBasic_flattened.sol\":21333:21428  bytes memory returndata = address(token).functionCall(data, \"SafeERC20: low-level call failed\") */\n      swap1\n      pop\n        /* \"TransferUSDCBasic_flattened.sol\":21458:21459  0 */\n      0x00\n        /* \"TransferUSDCBasic_flattened.sol\":21438:21448  returndata */\n      dup2\n        /* \"TransferUSDCBasic_flattened.sol\":21438:21455  returndata.length */\n      mload\n        /* \"TransferUSDCBasic_flattened.sol\":21438:21459  returndata.length > 0 */\n      gt\n        /* \"TransferUSDCBasic_flattened.sol\":21434:21594  if (returndata.length > 0) {... */\n      iszero\n      tag_129\n      jumpi\n        /* \"TransferUSDCBasic_flattened.sol\":21521:21531  returndata */\n      dup1\n        /* \"TransferUSDCBasic_flattened.sol\":21510:21540  abi.decode(returndata, (bool)) */\n      dup1\n      0x20\n      add\n      swap1\n      mload\n      dup2\n      add\n      swap1\n      tag_130\n      swap2\n      swap1\n      tag_46\n      jump\t// in\n    tag_130:\n        /* \"TransferUSDCBasic_flattened.sol\":21502:21587  require(abi.decode(returndata, (bool)), \"SafeERC20: ERC20 operation did not succeed\") */\n      tag_131\n      jumpi\n      mload(0x40)\n      0x08c379a000000000000000000000000000000000000000000000000000000000\n      dup2\n      mstore\n      0x04\n      add\n      tag_132\n      swap1\n      tag_133\n      jump\t// in\n    tag_132:\n      mload(0x40)\n      dup1\n      swap2\n      sub\n      swap1\n      revert\n    tag_131:\n        /* \"TransferUSDCBasic_flattened.sol\":21434:21594  if (returndata.length > 0) {... */\n    tag_129:\n        /* \"TransferUSDCBasic_flattened.sol\":21000:21598  {... */\n      pop\n        /* \"TransferUSDCBasic_flattened.sol\":20930:21598  function _callOptionalReturn(IERC20 token, bytes memory data) private {... */\n      pop\n      pop\n      jump\t// out\n        /* \"TransferUSDCBasic_flattened.sol\":12623:12826  function functionCall(... */\n    tag_128:\n        /* \"TransferUSDCBasic_flattened.sol\":12742:12754  bytes memory */\n      0x60\n        /* \"TransferUSDCBasic_flattened.sol\":12769:12821  functionCallWithValue(target, data, 0, errorMessage) */\n      tag_135\n        /* \"TransferUSDCBasic_flattened.sol\":12791:12797  target */\n      dup5\n        /* \"TransferUSDCBasic_flattened.sol\":12799:12803  data */\n      dup5\n        /* \"TransferUSDCBasic_flattened.sol\":12805:12806  0 */\n      0x00\n        /* \"TransferUSDCBasic_flattened.sol\":12808:12820  errorMessage */\n      dup6\n        /* \"TransferUSDCBasic_flattened.sol\":12769:12790  functionCallWithValue */\n      tag_136\n        /* \"TransferUSDCBasic_flattened.sol\":12769:12821  functionCallWithValue(target, data, 0, errorMessage) */\n      jump\t// in\n    tag_135:\n        /* \"TransferUSDCBasic_flattened.sol\":12762:12821  return functionCallWithValue(target, data, 0, errorMessage) */\n      swap1\n      pop\n        /* \"TransferUSDCBasic_flattened.sol\":12623:12826  function functionCall(... */\n      swap4\n      swap3\n      pop\n      pop\n      pop\n      jump\t// out\n        /* \"TransferUSDCBasic_flattened.sol\":13632:14046  function functionCallWithValue(... */\n    tag_136:\n        /* \"TransferUSDCBasic_flattened.sol\":13779:13791  bytes memory */\n      0x60\n        /* \"TransferUSDCBasic_flattened.sol\":13832:13837  value */\n      dup3\n        /* \"TransferUSDCBasic_flattened.sol\":13807:13828  address(this).balance */\n      selfbalance\n        /* \"TransferUSDCBasic_flattened.sol\":13807:13837  address(this).balance >= value */\n      lt\n      iszero\n        /* \"TransferUSDCBasic_flattened.sol\":13799:13880  require(address(this).balance >= value, \"Address: insufficient balance for call\") */\n      tag_138\n      jumpi\n      mload(0x40)\n      0x08c379a000000000000000000000000000000000000000000000000000000000\n      dup2\n      mstore\n      0x04\n      add\n      tag_139\n      swap1\n      tag_140\n      jump\t// in\n    tag_139:\n      mload(0x40)\n      dup1\n      swap2\n      sub\n      swap1\n      revert\n    tag_138:\n        /* \"TransferUSDCBasic_flattened.sol\":13887:13899  bool success */\n      0x00\n        /* \"TransferUSDCBasic_flattened.sol\":13901:13924  bytes memory returndata */\n      dup1\n        /* \"TransferUSDCBasic_flattened.sol\":13928:13934  target */\n      dup7\n        /* \"TransferUSDCBasic_flattened.sol\":13928:13939  target.call */\n      0xffffffffffffffffffffffffffffffffffffffff\n      and\n        /* \"TransferUSDCBasic_flattened.sol\":13947:13952  value */\n      dup6\n        /* \"TransferUSDCBasic_flattened.sol\":13954:13958  data */\n      dup8\n        /* \"TransferUSDCBasic_flattened.sol\":13928:13959  target.call{value: value}(data) */\n      mload(0x40)\n      tag_141\n      swap2\n      swap1\n      tag_142\n      jump\t// in\n    tag_141:\n      0x00\n      mload(0x40)\n      dup1\n      dup4\n      sub\n      dup2\n      dup6\n      dup8\n      gas\n      call\n      swap3\n      pop\n      pop\n      pop\n      returndatasize\n      dup1\n      0x00\n      dup2\n      eq\n      tag_145\n      jumpi\n      mload(0x40)\n      swap2\n      pop\n      and(add(returndatasize, 0x3f), not(0x1f))\n      dup3\n      add\n      0x40\n      mstore\n      returndatasize\n      dup3\n      mstore\n      returndatasize\n      0x00\n      0x20\n      dup5\n      add\n      returndatacopy\n      jump(tag_144)\n    tag_145:\n      0x60\n      swap2\n      pop\n    tag_144:\n      pop\n        /* \"TransferUSDCBasic_flattened.sol\":13886:13959  (bool success, bytes memory returndata) = target.call{value: value}(data) */\n      swap2\n      pop\n      swap2\n      pop\n        /* \"TransferUSDCBasic_flattened.sol\":13972:14041  verifyCallResultFromTarget(target, success, returndata, errorMessage) */\n      tag_146\n        /* \"TransferUSDCBasic_flattened.sol\":13999:14005  target */\n      dup8\n        /* \"TransferUSDCBasic_flattened.sol\":14007:14014  success */\n      dup4\n        /* \"TransferUSDCBasic_flattened.sol\":14016:14026  returndata */\n      dup4\n        /* \"TransferUSDCBasic_flattened.sol\":14028:14040  errorMessage */\n      dup8\n        /* \"TransferUSDCBasic_flattened.sol\":13972:13998  verifyCallResultFromTarget */\n      tag_147\n        /* \"TransferUSDCBasic_flattened.sol\":13972:14041  verifyCallResultFromTarget(target, success, returndata, errorMessage) */\n      jump\t// in\n    tag_146:\n        /* \"TransferUSDCBasic_flattened.sol\":13965:14041  return verifyCallResultFromTarget(target, success, returndata, errorMessage) */\n      swap3\n      pop\n      pop\n      pop\n        /* \"TransferUSDCBasic_flattened.sol\":13632:14046  function functionCallWithValue(... */\n      swap5\n      swap4\n      pop\n      pop\n      pop\n      pop\n      jump\t// out\n        /* \"TransferUSDCBasic_flattened.sol\":15976:16524  function verifyCallResultFromTarget(... */\n    tag_147:\n        /* \"TransferUSDCBasic_flattened.sol\":16138:16150  bytes memory */\n      0x60\n        /* \"TransferUSDCBasic_flattened.sol\":16162:16169  success */\n      dup4\n        /* \"TransferUSDCBasic_flattened.sol\":16158:16520  if (success) {... */\n      iszero\n      tag_149\n      jumpi\n        /* \"TransferUSDCBasic_flattened.sol\":16204:16205  0 */\n      0x00\n        /* \"TransferUSDCBasic_flattened.sol\":16183:16193  returndata */\n      dup4\n        /* \"TransferUSDCBasic_flattened.sol\":16183:16200  returndata.length */\n      mload\n        /* \"TransferUSDCBasic_flattened.sol\":16183:16205  returndata.length == 0 */\n      sub\n        /* \"TransferUSDCBasic_flattened.sol\":16179:16435  if (returndata.length == 0) {... */\n      tag_150\n      jumpi\n        /* \"TransferUSDCBasic_flattened.sol\":16374:16392  isContract(target) */\n      tag_151\n        /* \"TransferUSDCBasic_flattened.sol\":16385:16391  target */\n      dup6\n        /* \"TransferUSDCBasic_flattened.sol\":16374:16384  isContract */\n      tag_152\n        /* \"TransferUSDCBasic_flattened.sol\":16374:16392  isContract(target) */\n      jump\t// in\n    tag_151:\n        /* \"TransferUSDCBasic_flattened.sol\":16366:16426  require(isContract(target), \"Address: call to non-contract\") */\n      tag_153\n      jumpi\n      mload(0x40)\n      0x08c379a000000000000000000000000000000000000000000000000000000000\n      dup2\n      mstore\n      0x04\n      add\n      tag_154\n      swap1\n      tag_155\n      jump\t// in\n    tag_154:\n      mload(0x40)\n      dup1\n      swap2\n      sub\n      swap1\n      revert\n    tag_153:\n        /* \"TransferUSDCBasic_flattened.sol\":16179:16435  if (returndata.length == 0) {... */\n    tag_150:\n        /* \"TransferUSDCBasic_flattened.sol\":16449:16459  returndata */\n      dup3\n        /* \"TransferUSDCBasic_flattened.sol\":16442:16459  return returndata */\n      swap1\n      pop\n      jump(tag_148)\n        /* \"TransferUSDCBasic_flattened.sol\":16158:16520  if (success) {... */\n    tag_149:\n        /* \"TransferUSDCBasic_flattened.sol\":16480:16513  _revert(returndata, errorMessage) */\n      tag_157\n        /* \"TransferUSDCBasic_flattened.sol\":16488:16498  returndata */\n      dup4\n        /* \"TransferUSDCBasic_flattened.sol\":16500:16512  errorMessage */\n      dup4\n        /* \"TransferUSDCBasic_flattened.sol\":16480:16487  _revert */\n      tag_158\n        /* \"TransferUSDCBasic_flattened.sol\":16480:16513  _revert(returndata, errorMessage) */\n      jump\t// in\n    tag_157:\n        /* \"TransferUSDCBasic_flattened.sol\":15976:16524  function verifyCallResultFromTarget(... */\n    tag_148:\n      swap5\n      swap4\n      pop\n      pop\n      pop\n      pop\n      jump\t// out\n        /* \"TransferUSDCBasic_flattened.sol\":10049:10351  function isContract(address account) internal view returns (bool) {... */\n    tag_152:\n        /* \"TransferUSDCBasic_flattened.sol\":10109:10113  bool */\n      0x00\n        /* \"TransferUSDCBasic_flattened.sol\":10345:10346  0 */\n      dup1\n        /* \"TransferUSDCBasic_flattened.sol\":10323:10330  account */\n      dup3\n        /* \"TransferUSDCBasic_flattened.sol\":10323:10342  account.code.length */\n      0xffffffffffffffffffffffffffffffffffffffff\n      and\n      extcodesize\n        /* \"TransferUSDCBasic_flattened.sol\":10323:10346  account.code.length > 0 */\n      gt\n        /* \"TransferUSDCBasic_flattened.sol\":10316:10346  return account.code.length > 0 */\n      swap1\n      pop\n        /* \"TransferUSDCBasic_flattened.sol\":10049:10351  function isContract(address account) internal view returns (bool) {... */\n      swap2\n      swap1\n      pop\n      jump\t// out\n        /* \"TransferUSDCBasic_flattened.sol\":16990:17466  function _revert(bytes memory returndata, string memory errorMessage) private pure {... */\n    tag_158:\n        /* \"TransferUSDCBasic_flattened.sol\":17161:17162  0 */\n      0x00\n        /* \"TransferUSDCBasic_flattened.sol\":17141:17151  returndata */\n      dup3\n        /* \"TransferUSDCBasic_flattened.sol\":17141:17158  returndata.length */\n      mload\n        /* \"TransferUSDCBasic_flattened.sol\":17141:17162  returndata.length > 0 */\n      gt\n        /* \"TransferUSDCBasic_flattened.sol\":17137:17462  if (returndata.length > 0) {... */\n      iszero\n      tag_161\n      jumpi\n        /* \"TransferUSDCBasic_flattened.sol\":17343:17353  returndata */\n      dup2\n        /* \"TransferUSDCBasic_flattened.sol\":17337:17354  mload(returndata) */\n      mload\n        /* \"TransferUSDCBasic_flattened.sol\":17391:17406  returndata_size */\n      dup1\n        /* \"TransferUSDCBasic_flattened.sol\":17378:17388  returndata */\n      dup4\n        /* \"TransferUSDCBasic_flattened.sol\":17374:17376  32 */\n      0x20\n        /* \"TransferUSDCBasic_flattened.sol\":17370:17389  add(32, returndata) */\n      add\n        /* \"TransferUSDCBasic_flattened.sol\":17363:17407  revert(add(32, returndata), returndata_size) */\n      revert\n        /* \"TransferUSDCBasic_flattened.sol\":17137:17462  if (returndata.length > 0) {... */\n    tag_161:\n        /* \"TransferUSDCBasic_flattened.sol\":17442:17454  errorMessage */\n      dup1\n        /* \"TransferUSDCBasic_flattened.sol\":17435:17455  revert(errorMessage) */\n      mload(0x40)\n      0x08c379a000000000000000000000000000000000000000000000000000000000\n      dup2\n      mstore\n      0x04\n      add\n      tag_163\n      swap2\n      swap1\n      tag_164\n      jump\t// in\n    tag_163:\n      mload(0x40)\n      dup1\n      swap2\n      sub\n      swap1\n      revert\n    tag_69:\n      mload(0x40)\n      dup1\n      0x40\n      add\n      0x40\n      mstore\n      dup1\n      and(0xffffffffffffffffffffffffffffffffffffffff, 0x00)\n      dup2\n      mstore\n      0x20\n      add\n      0x00\n      dup2\n      mstore\n      pop\n      swap1\n      jump\t// out\n        /* \"#utility.yul\":88:205   */\n    tag_166:\n        /* \"#utility.yul\":197:198   */\n      0x00\n        /* \"#utility.yul\":194:195   */\n      dup1\n        /* \"#utility.yul\":187:199   */\n      revert\n        /* \"#utility.yul\":334:460   */\n    tag_168:\n        /* \"#utility.yul\":371:378   */\n      0x00\n        /* \"#utility.yul\":411:453   */\n      0xffffffffffffffffffffffffffffffffffffffff\n        /* \"#utility.yul\":404:409   */\n      dup3\n        /* \"#utility.yul\":400:454   */\n      and\n        /* \"#utility.yul\":389:454   */\n      swap1\n      pop\n        /* \"#utility.yul\":334:460   */\n      swap2\n      swap1\n      pop\n      jump\t// out\n        /* \"#utility.yul\":466:562   */\n    tag_169:\n        /* \"#utility.yul\":503:510   */\n      0x00\n        /* \"#utility.yul\":532:556   */\n      tag_220\n        /* \"#utility.yul\":550:555   */\n      dup3\n        /* \"#utility.yul\":532:556   */\n      tag_168\n      jump\t// in\n    tag_220:\n        /* \"#utility.yul\":521:556   */\n      swap1\n      pop\n        /* \"#utility.yul\":466:562   */\n      swap2\n      swap1\n      pop\n      jump\t// out\n        /* \"#utility.yul\":568:690   */\n    tag_170:\n        /* \"#utility.yul\":641:665   */\n      tag_222\n        /* \"#utility.yul\":659:664   */\n      dup2\n        /* \"#utility.yul\":641:665   */\n      tag_169\n      jump\t// in\n    tag_222:\n        /* \"#utility.yul\":634:639   */\n      dup2\n        /* \"#utility.yul\":631:666   */\n      eq\n        /* \"#utility.yul\":621:684   */\n      tag_223\n      jumpi\n        /* \"#utility.yul\":680:681   */\n      0x00\n        /* \"#utility.yul\":677:678   */\n      dup1\n        /* \"#utility.yul\":670:682   */\n      revert\n        /* \"#utility.yul\":621:684   */\n    tag_223:\n        /* \"#utility.yul\":568:690   */\n      pop\n      jump\t// out\n        /* \"#utility.yul\":696:835   */\n    tag_171:\n        /* \"#utility.yul\":742:747   */\n      0x00\n        /* \"#utility.yul\":780:786   */\n      dup2\n        /* \"#utility.yul\":767:787   */\n      calldataload\n        /* \"#utility.yul\":758:787   */\n      swap1\n      pop\n        /* \"#utility.yul\":796:829   */\n      tag_225\n        /* \"#utility.yul\":823:828   */\n      dup2\n        /* \"#utility.yul\":796:829   */\n      tag_170\n      jump\t// in\n    tag_225:\n        /* \"#utility.yul\":696:835   */\n      swap3\n      swap2\n      pop\n      pop\n      jump\t// out\n        /* \"#utility.yul\":841:1315   */\n    tag_10:\n        /* \"#utility.yul\":909:915   */\n      0x00\n        /* \"#utility.yul\":917:923   */\n      dup1\n        /* \"#utility.yul\":966:968   */\n      0x40\n        /* \"#utility.yul\":954:963   */\n      dup4\n        /* \"#utility.yul\":945:952   */\n      dup6\n        /* \"#utility.yul\":941:964   */\n      sub\n        /* \"#utility.yul\":937:969   */\n      slt\n        /* \"#utility.yul\":934:1053   */\n      iszero\n      tag_227\n      jumpi\n        /* \"#utility.yul\":972:1051   */\n      tag_228\n      tag_166\n      jump\t// in\n    tag_228:\n        /* \"#utility.yul\":934:1053   */\n    tag_227:\n        /* \"#utility.yul\":1092:1093   */\n      0x00\n        /* \"#utility.yul\":1117:1170   */\n      tag_229\n        /* \"#utility.yul\":1162:1169   */\n      dup6\n        /* \"#utility.yul\":1153:1159   */\n      dup3\n        /* \"#utility.yul\":1142:1151   */\n      dup7\n        /* \"#utility.yul\":1138:1160   */\n      add\n        /* \"#utility.yul\":1117:1170   */\n      tag_171\n      jump\t// in\n    tag_229:\n        /* \"#utility.yul\":1107:1170   */\n      swap3\n      pop\n        /* \"#utility.yul\":1063:1180   */\n      pop\n        /* \"#utility.yul\":1219:1221   */\n      0x20\n        /* \"#utility.yul\":1245:1298   */\n      tag_230\n        /* \"#utility.yul\":1290:1297   */\n      dup6\n        /* \"#utility.yul\":1281:1287   */\n      dup3\n        /* \"#utility.yul\":1270:1279   */\n      dup7\n        /* \"#utility.yul\":1266:1288   */\n      add\n        /* \"#utility.yul\":1245:1298   */\n      tag_171\n      jump\t// in\n    tag_230:\n        /* \"#utility.yul\":1235:1298   */\n      swap2\n      pop\n        /* \"#utility.yul\":1190:1308   */\n      pop\n        /* \"#utility.yul\":841:1315   */\n      swap3\n      pop\n      swap3\n      swap1\n      pop\n      jump\t// out\n        /* \"#utility.yul\":1321:1650   */\n    tag_14:\n        /* \"#utility.yul\":1380:1386   */\n      0x00\n        /* \"#utility.yul\":1429:1431   */\n      0x20\n        /* \"#utility.yul\":1417:1426   */\n      dup3\n        /* \"#utility.yul\":1408:1415   */\n      dup5\n        /* \"#utility.yul\":1404:1427   */\n      sub\n        /* \"#utility.yul\":1400:1432   */\n      slt\n        /* \"#utility.yul\":1397:1516   */\n      iszero\n      tag_232\n      jumpi\n        /* \"#utility.yul\":1435:1514   */\n      tag_233\n      tag_166\n      jump\t// in\n    tag_233:\n        /* \"#utility.yul\":1397:1516   */\n    tag_232:\n        /* \"#utility.yul\":1555:1556   */\n      0x00\n        /* \"#utility.yul\":1580:1633   */\n      tag_234\n        /* \"#utility.yul\":1625:1632   */\n      dup5\n        /* \"#utility.yul\":1616:1622   */\n      dup3\n        /* \"#utility.yul\":1605:1614   */\n      dup6\n        /* \"#utility.yul\":1601:1623   */\n      add\n        /* \"#utility.yul\":1580:1633   */\n      tag_171\n      jump\t// in\n    tag_234:\n        /* \"#utility.yul\":1570:1633   */\n      swap2\n      pop\n        /* \"#utility.yul\":1526:1643   */\n      pop\n        /* \"#utility.yul\":1321:1650   */\n      swap3\n      swap2\n      pop\n      pop\n      jump\t// out\n        /* \"#utility.yul\":1656:1733   */\n    tag_172:\n        /* \"#utility.yul\":1693:1700   */\n      0x00\n        /* \"#utility.yul\":1722:1727   */\n      dup2\n        /* \"#utility.yul\":1711:1727   */\n      swap1\n      pop\n        /* \"#utility.yul\":1656:1733   */\n      swap2\n      swap1\n      pop\n      jump\t// out\n        /* \"#utility.yul\":1739:1857   */\n    tag_173:\n        /* \"#utility.yul\":1826:1850   */\n      tag_237\n        /* \"#utility.yul\":1844:1849   */\n      dup2\n        /* \"#utility.yul\":1826:1850   */\n      tag_172\n      jump\t// in\n    tag_237:\n        /* \"#utility.yul\":1821:1824   */\n      dup3\n        /* \"#utility.yul\":1814:1851   */\n      mstore\n        /* \"#utility.yul\":1739:1857   */\n      pop\n      pop\n      jump\t// out\n        /* \"#utility.yul\":1863:2195   */\n    tag_17:\n        /* \"#utility.yul\":1984:1988   */\n      0x00\n        /* \"#utility.yul\":2022:2024   */\n      0x40\n        /* \"#utility.yul\":2011:2020   */\n      dup3\n        /* \"#utility.yul\":2007:2025   */\n      add\n        /* \"#utility.yul\":1999:2025   */\n      swap1\n      pop\n        /* \"#utility.yul\":2035:2106   */\n      tag_239\n        /* \"#utility.yul\":2103:2104   */\n      0x00\n        /* \"#utility.yul\":2092:2101   */\n      dup4\n        /* \"#utility.yul\":2088:2105   */\n      add\n        /* \"#utility.yul\":2079:2085   */\n      dup6\n        /* \"#utility.yul\":2035:2106   */\n      tag_173\n      jump\t// in\n    tag_239:\n        /* \"#utility.yul\":2116:2188   */\n      tag_240\n        /* \"#utility.yul\":2184:2186   */\n      0x20\n        /* \"#utility.yul\":2173:2182   */\n      dup4\n        /* \"#utility.yul\":2169:2187   */\n      add\n        /* \"#utility.yul\":2160:2166   */\n      dup5\n        /* \"#utility.yul\":2116:2188   */\n      tag_173\n      jump\t// in\n    tag_240:\n        /* \"#utility.yul\":1863:2195   */\n      swap4\n      swap3\n      pop\n      pop\n      pop\n      jump\t// out\n        /* \"#utility.yul\":2201:2319   */\n    tag_174:\n        /* \"#utility.yul\":2288:2312   */\n      tag_242\n        /* \"#utility.yul\":2306:2311   */\n      dup2\n        /* \"#utility.yul\":2288:2312   */\n      tag_169\n      jump\t// in\n    tag_242:\n        /* \"#utility.yul\":2283:2286   */\n      dup3\n        /* \"#utility.yul\":2276:2313   */\n      mstore\n        /* \"#utility.yul\":2201:2319   */\n      pop\n      pop\n      jump\t// out\n        /* \"#utility.yul\":2325:2547   */\n    tag_21:\n        /* \"#utility.yul\":2418:2422   */\n      0x00\n        /* \"#utility.yul\":2456:2458   */\n      0x20\n        /* \"#utility.yul\":2445:2454   */\n      dup3\n        /* \"#utility.yul\":2441:2459   */\n      add\n        /* \"#utility.yul\":2433:2459   */\n      swap1\n      pop\n        /* \"#utility.yul\":2469:2540   */\n      tag_244\n        /* \"#utility.yul\":2537:2538   */\n      0x00\n        /* \"#utility.yul\":2526:2535   */\n      dup4\n        /* \"#utility.yul\":2522:2539   */\n      add\n        /* \"#utility.yul\":2513:2519   */\n      dup5\n        /* \"#utility.yul\":2469:2540   */\n      tag_174\n      jump\t// in\n    tag_244:\n        /* \"#utility.yul\":2325:2547   */\n      swap3\n      swap2\n      pop\n      pop\n      jump\t// out\n        /* \"#utility.yul\":2553:2775   */\n    tag_25:\n        /* \"#utility.yul\":2646:2650   */\n      0x00\n        /* \"#utility.yul\":2684:2686   */\n      0x20\n        /* \"#utility.yul\":2673:2682   */\n      dup3\n        /* \"#utility.yul\":2669:2687   */\n      add\n        /* \"#utility.yul\":2661:2687   */\n      swap1\n      pop\n        /* \"#utility.yul\":2697:2768   */\n      tag_246\n        /* \"#utility.yul\":2765:2766   */\n      0x00\n        /* \"#utility.yul\":2754:2763   */\n      dup4\n        /* \"#utility.yul\":2750:2767   */\n      add\n        /* \"#utility.yul\":2741:2747   */\n      dup5\n        /* \"#utility.yul\":2697:2768   */\n      tag_173\n      jump\t// in\n    tag_246:\n        /* \"#utility.yul\":2553:2775   */\n      swap3\n      swap2\n      pop\n      pop\n      jump\t// out\n        /* \"#utility.yul\":2781:2903   */\n    tag_175:\n        /* \"#utility.yul\":2854:2878   */\n      tag_248\n        /* \"#utility.yul\":2872:2877   */\n      dup2\n        /* \"#utility.yul\":2854:2878   */\n      tag_172\n      jump\t// in\n    tag_248:\n        /* \"#utility.yul\":2847:2852   */\n      dup2\n        /* \"#utility.yul\":2844:2879   */\n      eq\n        /* \"#utility.yul\":2834:2897   */\n      tag_249\n      jumpi\n        /* \"#utility.yul\":2893:2894   */\n      0x00\n        /* \"#utility.yul\":2890:2891   */\n      dup1\n        /* \"#utility.yul\":2883:2895   */\n      revert\n        /* \"#utility.yul\":2834:2897   */\n    tag_249:\n        /* \"#utility.yul\":2781:2903   */\n      pop\n      jump\t// out\n        /* \"#utility.yul\":2909:3048   */\n    tag_176:\n        /* \"#utility.yul\":2955:2960   */\n      0x00\n        /* \"#utility.yul\":2993:2999   */\n      dup2\n        /* \"#utility.yul\":2980:3000   */\n      calldataload\n        /* \"#utility.yul\":2971:3000   */\n      swap1\n      pop\n        /* \"#utility.yul\":3009:3042   */\n      tag_251\n        /* \"#utility.yul\":3036:3041   */\n      dup2\n        /* \"#utility.yul\":3009:3042   */\n      tag_175\n      jump\t// in\n    tag_251:\n        /* \"#utility.yul\":2909:3048   */\n      swap3\n      swap2\n      pop\n      pop\n      jump\t// out\n        /* \"#utility.yul\":3054:3528   */\n    tag_28:\n        /* \"#utility.yul\":3122:3128   */\n      0x00\n        /* \"#utility.yul\":3130:3136   */\n      dup1\n        /* \"#utility.yul\":3179:3181   */\n      0x40\n        /* \"#utility.yul\":3167:3176   */\n      dup4\n        /* \"#utility.yul\":3158:3165   */\n      dup6\n        /* \"#utility.yul\":3154:3177   */\n      sub\n        /* \"#utility.yul\":3150:3182   */\n      slt\n        /* \"#utility.yul\":3147:3266   */\n      iszero\n      tag_253\n      jumpi\n        /* \"#utility.yul\":3185:3264   */\n      tag_254\n      tag_166\n      jump\t// in\n    tag_254:\n        /* \"#utility.yul\":3147:3266   */\n    tag_253:\n        /* \"#utility.yul\":3305:3306   */\n      0x00\n        /* \"#utility.yul\":3330:3383   */\n      tag_255\n        /* \"#utility.yul\":3375:3382   */\n      dup6\n        /* \"#utility.yul\":3366:3372   */\n      dup3\n        /* \"#utility.yul\":3355:3364   */\n      dup7\n        /* \"#utility.yul\":3351:3373   */\n      add\n        /* \"#utility.yul\":3330:3383   */\n      tag_171\n      jump\t// in\n    tag_255:\n        /* \"#utility.yul\":3320:3383   */\n      swap3\n      pop\n        /* \"#utility.yul\":3276:3393   */\n      pop\n        /* \"#utility.yul\":3432:3434   */\n      0x20\n        /* \"#utility.yul\":3458:3511   */\n      tag_256\n        /* \"#utility.yul\":3503:3510   */\n      dup6\n        /* \"#utility.yul\":3494:3500   */\n      dup3\n        /* \"#utility.yul\":3483:3492   */\n      dup7\n        /* \"#utility.yul\":3479:3501   */\n      add\n        /* \"#utility.yul\":3458:3511   */\n      tag_176\n      jump\t// in\n    tag_256:\n        /* \"#utility.yul\":3448:3511   */\n      swap2\n      pop\n        /* \"#utility.yul\":3403:3521   */\n      pop\n        /* \"#utility.yul\":3054:3528   */\n      swap3\n      pop\n      swap3\n      swap1\n      pop\n      jump\t// out\n        /* \"#utility.yul\":3534:3611   */\n    tag_177:\n        /* \"#utility.yul\":3571:3578   */\n      0x00\n        /* \"#utility.yul\":3600:3605   */\n      dup2\n        /* \"#utility.yul\":3589:3605   */\n      swap1\n      pop\n        /* \"#utility.yul\":3534:3611   */\n      swap2\n      swap1\n      pop\n      jump\t// out\n        /* \"#utility.yul\":3617:3735   */\n    tag_178:\n        /* \"#utility.yul\":3704:3728   */\n      tag_259\n        /* \"#utility.yul\":3722:3727   */\n      dup2\n        /* \"#utility.yul\":3704:3728   */\n      tag_177\n      jump\t// in\n    tag_259:\n        /* \"#utility.yul\":3699:3702   */\n      dup3\n        /* \"#utility.yul\":3692:3729   */\n      mstore\n        /* \"#utility.yul\":3617:3735   */\n      pop\n      pop\n      jump\t// out\n        /* \"#utility.yul\":3741:3963   */\n    tag_31:\n        /* \"#utility.yul\":3834:3838   */\n      0x00\n        /* \"#utility.yul\":3872:3874   */\n      0x20\n        /* \"#utility.yul\":3861:3870   */\n      dup3\n        /* \"#utility.yul\":3857:3875   */\n      add\n        /* \"#utility.yul\":3849:3875   */\n      swap1\n      pop\n        /* \"#utility.yul\":3885:3956   */\n      tag_261\n        /* \"#utility.yul\":3953:3954   */\n      0x00\n        /* \"#utility.yul\":3942:3951   */\n      dup4\n        /* \"#utility.yul\":3938:3955   */\n      add\n        /* \"#utility.yul\":3929:3935   */\n      dup5\n        /* \"#utility.yul\":3885:3956   */\n      tag_178\n      jump\t// in\n    tag_261:\n        /* \"#utility.yul\":3741:3963   */\n      swap3\n      swap2\n      pop\n      pop\n      jump\t// out\n        /* \"#utility.yul\":3969:4112   */\n    tag_179:\n        /* \"#utility.yul\":4026:4031   */\n      0x00\n        /* \"#utility.yul\":4057:4063   */\n      dup2\n        /* \"#utility.yul\":4051:4064   */\n      mload\n        /* \"#utility.yul\":4042:4064   */\n      swap1\n      pop\n        /* \"#utility.yul\":4073:4106   */\n      tag_263\n        /* \"#utility.yul\":4100:4105   */\n      dup2\n        /* \"#utility.yul\":4073:4106   */\n      tag_175\n      jump\t// in\n    tag_263:\n        /* \"#utility.yul\":3969:4112   */\n      swap3\n      swap2\n      pop\n      pop\n      jump\t// out\n        /* \"#utility.yul\":4118:4469   */\n    tag_39:\n        /* \"#utility.yul\":4188:4194   */\n      0x00\n        /* \"#utility.yul\":4237:4239   */\n      0x20\n        /* \"#utility.yul\":4225:4234   */\n      dup3\n        /* \"#utility.yul\":4216:4223   */\n      dup5\n        /* \"#utility.yul\":4212:4235   */\n      sub\n        /* \"#utility.yul\":4208:4240   */\n      slt\n        /* \"#utility.yul\":4205:4324   */\n      iszero\n      tag_265\n      jumpi\n        /* \"#utility.yul\":4243:4322   */\n      tag_266\n      tag_166\n      jump\t// in\n    tag_266:\n        /* \"#utility.yul\":4205:4324   */\n    tag_265:\n        /* \"#utility.yul\":4363:4364   */\n      0x00\n        /* \"#utility.yul\":4388:4452   */\n      tag_267\n        /* \"#utility.yul\":4444:4451   */\n      dup5\n        /* \"#utility.yul\":4435:4441   */\n      dup3\n        /* \"#utility.yul\":4424:4433   */\n      dup6\n        /* \"#utility.yul\":4420:4442   */\n      add\n        /* \"#utility.yul\":4388:4452   */\n      tag_179\n      jump\t// in\n    tag_267:\n        /* \"#utility.yul\":4378:4452   */\n      swap2\n      pop\n        /* \"#utility.yul\":4334:4462   */\n      pop\n        /* \"#utility.yul\":4118:4469   */\n      swap3\n      swap2\n      pop\n      pop\n      jump\t// out\n        /* \"#utility.yul\":4475:4807   */\n    tag_42:\n        /* \"#utility.yul\":4596:4600   */\n      0x00\n        /* \"#utility.yul\":4634:4636   */\n      0x40\n        /* \"#utility.yul\":4623:4632   */\n      dup3\n        /* \"#utility.yul\":4619:4637   */\n      add\n        /* \"#utility.yul\":4611:4637   */\n      swap1\n      pop\n        /* \"#utility.yul\":4647:4718   */\n      tag_269\n        /* \"#utility.yul\":4715:4716   */\n      0x00\n        /* \"#utility.yul\":4704:4713   */\n      dup4\n        /* \"#utility.yul\":4700:4717   */\n      add\n        /* \"#utility.yul\":4691:4697   */\n      dup6\n        /* \"#utility.yul\":4647:4718   */\n      tag_174\n      jump\t// in\n    tag_269:\n        /* \"#utility.yul\":4728:4800   */\n      tag_270\n        /* \"#utility.yul\":4796:4798   */\n      0x20\n        /* \"#utility.yul\":4785:4794   */\n      dup4\n        /* \"#utility.yul\":4781:4799   */\n      add\n        /* \"#utility.yul\":4772:4778   */\n      dup5\n        /* \"#utility.yul\":4728:4800   */\n      tag_173\n      jump\t// in\n    tag_270:\n        /* \"#utility.yul\":4475:4807   */\n      swap4\n      swap3\n      pop\n      pop\n      pop\n      jump\t// out\n        /* \"#utility.yul\":4813:4903   */\n    tag_180:\n        /* \"#utility.yul\":4847:4854   */\n      0x00\n        /* \"#utility.yul\":4890:4895   */\n      dup2\n        /* \"#utility.yul\":4883:4896   */\n      iszero\n        /* \"#utility.yul\":4876:4897   */\n      iszero\n        /* \"#utility.yul\":4865:4897   */\n      swap1\n      pop\n        /* \"#utility.yul\":4813:4903   */\n      swap2\n      swap1\n      pop\n      jump\t// out\n        /* \"#utility.yul\":4909:5025   */\n    tag_181:\n        /* \"#utility.yul\":4979:5000   */\n      tag_273\n        /* \"#utility.yul\":4994:4999   */\n      dup2\n        /* \"#utility.yul\":4979:5000   */\n      tag_180\n      jump\t// in\n    tag_273:\n        /* \"#utility.yul\":4972:4977   */\n      dup2\n        /* \"#utility.yul\":4969:5001   */\n      eq\n        /* \"#utility.yul\":4959:5019   */\n      tag_274\n      jumpi\n        /* \"#utility.yul\":5015:5016   */\n      0x00\n        /* \"#utility.yul\":5012:5013   */\n      dup1\n        /* \"#utility.yul\":5005:5017   */\n      revert\n        /* \"#utility.yul\":4959:5019   */\n    tag_274:\n        /* \"#utility.yul\":4909:5025   */\n      pop\n      jump\t// out\n        /* \"#utility.yul\":5031:5168   */\n    tag_182:\n        /* \"#utility.yul\":5085:5090   */\n      0x00\n        /* \"#utility.yul\":5116:5122   */\n      dup2\n        /* \"#utility.yul\":5110:5123   */\n      mload\n        /* \"#utility.yul\":5101:5123   */\n      swap1\n      pop\n        /* \"#utility.yul\":5132:5162   */\n      tag_276\n        /* \"#utility.yul\":5156:5161   */\n      dup2\n        /* \"#utility.yul\":5132:5162   */\n      tag_181\n      jump\t// in\n    tag_276:\n        /* \"#utility.yul\":5031:5168   */\n      swap3\n      swap2\n      pop\n      pop\n      jump\t// out\n        /* \"#utility.yul\":5174:5519   */\n    tag_46:\n        /* \"#utility.yul\":5241:5247   */\n      0x00\n        /* \"#utility.yul\":5290:5292   */\n      0x20\n        /* \"#utility.yul\":5278:5287   */\n      dup3\n        /* \"#utility.yul\":5269:5276   */\n      dup5\n        /* \"#utility.yul\":5265:5288   */\n      sub\n        /* \"#utility.yul\":5261:5293   */\n      slt\n        /* \"#utility.yul\":5258:5377   */\n      iszero\n      tag_278\n      jumpi\n        /* \"#utility.yul\":5296:5375   */\n      tag_279\n      tag_166\n      jump\t// in\n    tag_279:\n        /* \"#utility.yul\":5258:5377   */\n    tag_278:\n        /* \"#utility.yul\":5416:5417   */\n      0x00\n        /* \"#utility.yul\":5441:5502   */\n      tag_280\n        /* \"#utility.yul\":5494:5501   */\n      dup5\n        /* \"#utility.yul\":5485:5491   */\n      dup3\n        /* \"#utility.yul\":5474:5483   */\n      dup6\n        /* \"#utility.yul\":5470:5492   */\n      add\n        /* \"#utility.yul\":5441:5502   */\n      tag_182\n      jump\t// in\n    tag_280:\n        /* \"#utility.yul\":5431:5502   */\n      swap2\n      pop\n        /* \"#utility.yul\":5387:5512   */\n      pop\n        /* \"#utility.yul\":5174:5519   */\n      swap3\n      swap2\n      pop\n      pop\n      jump\t// out\n        /* \"#utility.yul\":5525:5857   */\n    tag_58:\n        /* \"#utility.yul\":5646:5650   */\n      0x00\n        /* \"#utility.yul\":5684:5686   */\n      0x40\n        /* \"#utility.yul\":5673:5682   */\n      dup3\n        /* \"#utility.yul\":5669:5687   */\n      add\n        /* \"#utility.yul\":5661:5687   */\n      swap1\n      pop\n        /* \"#utility.yul\":5697:5768   */\n      tag_282\n        /* \"#utility.yul\":5765:5766   */\n      0x00\n        /* \"#utility.yul\":5754:5763   */\n      dup4\n        /* \"#utility.yul\":5750:5767   */\n      add\n        /* \"#utility.yul\":5741:5747   */\n      dup6\n        /* \"#utility.yul\":5697:5768   */\n      tag_174\n      jump\t// in\n    tag_282:\n        /* \"#utility.yul\":5778:5850   */\n      tag_283\n        /* \"#utility.yul\":5846:5848   */\n      0x20\n        /* \"#utility.yul\":5835:5844   */\n      dup4\n        /* \"#utility.yul\":5831:5849   */\n      add\n        /* \"#utility.yul\":5822:5828   */\n      dup5\n        /* \"#utility.yul\":5778:5850   */\n      tag_174\n      jump\t// in\n    tag_283:\n        /* \"#utility.yul\":5525:5857   */\n      swap4\n      swap3\n      pop\n      pop\n      pop\n      jump\t// out\n        /* \"#utility.yul\":5863:6043   */\n    tag_65:\n        /* \"#utility.yul\":5911:5988   */\n      0x4e487b7100000000000000000000000000000000000000000000000000000000\n        /* \"#utility.yul\":5908:5909   */\n      0x00\n        /* \"#utility.yul\":5901:5989   */\n      mstore\n        /* \"#utility.yul\":6008:6012   */\n      0x41\n        /* \"#utility.yul\":6005:6006   */\n      0x04\n        /* \"#utility.yul\":5998:6013   */\n      mstore\n        /* \"#utility.yul\":6032:6036   */\n      0x24\n        /* \"#utility.yul\":6029:6030   */\n      0x00\n        /* \"#utility.yul\":6022:6037   */\n      revert\n        /* \"#utility.yul\":6049:6229   */\n    tag_72:\n        /* \"#utility.yul\":6097:6174   */\n      0x4e487b7100000000000000000000000000000000000000000000000000000000\n        /* \"#utility.yul\":6094:6095   */\n      0x00\n        /* \"#utility.yul\":6087:6175   */\n      mstore\n        /* \"#utility.yul\":6194:6198   */\n      0x32\n        /* \"#utility.yul\":6191:6192   */\n      0x04\n        /* \"#utility.yul\":6184:6199   */\n      mstore\n        /* \"#utility.yul\":6218:6222   */\n      0x24\n        /* \"#utility.yul\":6215:6216   */\n      0x00\n        /* \"#utility.yul\":6208:6223   */\n      revert\n        /* \"#utility.yul\":6235:6336   */\n    tag_183:\n        /* \"#utility.yul\":6271:6278   */\n      0x00\n        /* \"#utility.yul\":6311:6329   */\n      0xffffffffffffffff\n        /* \"#utility.yul\":6304:6309   */\n      dup3\n        /* \"#utility.yul\":6300:6330   */\n      and\n        /* \"#utility.yul\":6289:6330   */\n      swap1\n      pop\n        /* \"#utility.yul\":6235:6336   */\n      swap2\n      swap1\n      pop\n      jump\t// out\n        /* \"#utility.yul\":6342:6457   */\n    tag_184:\n        /* \"#utility.yul\":6427:6450   */\n      tag_288\n        /* \"#utility.yul\":6444:6449   */\n      dup2\n        /* \"#utility.yul\":6427:6450   */\n      tag_183\n      jump\t// in\n    tag_288:\n        /* \"#utility.yul\":6422:6425   */\n      dup3\n        /* \"#utility.yul\":6415:6451   */\n      mstore\n        /* \"#utility.yul\":6342:6457   */\n      pop\n      pop\n      jump\t// out\n        /* \"#utility.yul\":6463:6561   */\n    tag_185:\n        /* \"#utility.yul\":6514:6520   */\n      0x00\n        /* \"#utility.yul\":6548:6553   */\n      dup2\n        /* \"#utility.yul\":6542:6554   */\n      mload\n        /* \"#utility.yul\":6532:6554   */\n      swap1\n      pop\n        /* \"#utility.yul\":6463:6561   */\n      swap2\n      swap1\n      pop\n      jump\t// out\n        /* \"#utility.yul\":6567:6725   */\n    tag_186:\n        /* \"#utility.yul\":6640:6651   */\n      0x00\n        /* \"#utility.yul\":6674:6680   */\n      dup3\n        /* \"#utility.yul\":6669:6672   */\n      dup3\n        /* \"#utility.yul\":6662:6681   */\n      mstore\n        /* \"#utility.yul\":6714:6718   */\n      0x20\n        /* \"#utility.yul\":6709:6712   */\n      dup3\n        /* \"#utility.yul\":6705:6719   */\n      add\n        /* \"#utility.yul\":6690:6719   */\n      swap1\n      pop\n        /* \"#utility.yul\":6567:6725   */\n      swap3\n      swap2\n      pop\n      pop\n      jump\t// out\n        /* \"#utility.yul\":6731:6977   */\n    tag_187:\n        /* \"#utility.yul\":6812:6813   */\n      0x00\n        /* \"#utility.yul\":6822:6935   */\n    tag_292:\n        /* \"#utility.yul\":6836:6842   */\n      dup4\n        /* \"#utility.yul\":6833:6834   */\n      dup2\n        /* \"#utility.yul\":6830:6843   */\n      lt\n        /* \"#utility.yul\":6822:6935   */\n      iszero\n      tag_294\n      jumpi\n        /* \"#utility.yul\":6921:6922   */\n      dup1\n        /* \"#utility.yul\":6916:6919   */\n      dup3\n        /* \"#utility.yul\":6912:6923   */\n      add\n        /* \"#utility.yul\":6906:6924   */\n      mload\n        /* \"#utility.yul\":6902:6903   */\n      dup2\n        /* \"#utility.yul\":6897:6900   */\n      dup5\n        /* \"#utility.yul\":6893:6904   */\n      add\n        /* \"#utility.yul\":6886:6925   */\n      mstore\n        /* \"#utility.yul\":6858:6860   */\n      0x20\n        /* \"#utility.yul\":6855:6856   */\n      dup2\n        /* \"#utility.yul\":6851:6861   */\n      add\n        /* \"#utility.yul\":6846:6861   */\n      swap1\n      pop\n        /* \"#utility.yul\":6822:6935   */\n      jump(tag_292)\n    tag_294:\n        /* \"#utility.yul\":6969:6970   */\n      0x00\n        /* \"#utility.yul\":6960:6966   */\n      dup5\n        /* \"#utility.yul\":6955:6958   */\n      dup5\n        /* \"#utility.yul\":6951:6967   */\n      add\n        /* \"#utility.yul\":6944:6971   */\n      mstore\n        /* \"#utility.yul\":6793:6977   */\n      pop\n        /* \"#utility.yul\":6731:6977   */\n      pop\n      pop\n      pop\n      jump\t// out\n        /* \"#utility.yul\":6983:7085   */\n    tag_188:\n        /* \"#utility.yul\":7024:7030   */\n      0x00\n        /* \"#utility.yul\":7075:7077   */\n      0x1f\n        /* \"#utility.yul\":7071:7078   */\n      not\n        /* \"#utility.yul\":7066:7068   */\n      0x1f\n        /* \"#utility.yul\":7059:7064   */\n      dup4\n        /* \"#utility.yul\":7055:7069   */\n      add\n        /* \"#utility.yul\":7051:7079   */\n      and\n        /* \"#utility.yul\":7041:7079   */\n      swap1\n      pop\n        /* \"#utility.yul\":6983:7085   */\n      swap2\n      swap1\n      pop\n      jump\t// out\n        /* \"#utility.yul\":7091:7444   */\n    tag_189:\n        /* \"#utility.yul\":7167:7170   */\n      0x00\n        /* \"#utility.yul\":7195:7233   */\n      tag_297\n        /* \"#utility.yul\":7227:7232   */\n      dup3\n        /* \"#utility.yul\":7195:7233   */\n      tag_185\n      jump\t// in\n    tag_297:\n        /* \"#utility.yul\":7249:7309   */\n      tag_298\n        /* \"#utility.yul\":7302:7308   */\n      dup2\n        /* \"#utility.yul\":7297:7300   */\n      dup6\n        /* \"#utility.yul\":7249:7309   */\n      tag_186\n      jump\t// in\n    tag_298:\n        /* \"#utility.yul\":7242:7309   */\n      swap4\n      pop\n        /* \"#utility.yul\":7318:7383   */\n      tag_299\n        /* \"#utility.yul\":7376:7382   */\n      dup2\n        /* \"#utility.yul\":7371:7374   */\n      dup6\n        /* \"#utility.yul\":7364:7368   */\n      0x20\n        /* \"#utility.yul\":7357:7362   */\n      dup7\n        /* \"#utility.yul\":7353:7369   */\n      add\n        /* \"#utility.yul\":7318:7383   */\n      tag_187\n      jump\t// in\n    tag_299:\n        /* \"#utility.yul\":7408:7437   */\n      tag_300\n        /* \"#utility.yul\":7430:7436   */\n      dup2\n        /* \"#utility.yul\":7408:7437   */\n      tag_188\n      jump\t// in\n    tag_300:\n        /* \"#utility.yul\":7403:7406   */\n      dup5\n        /* \"#utility.yul\":7399:7438   */\n      add\n        /* \"#utility.yul\":7392:7438   */\n      swap2\n      pop\n        /* \"#utility.yul\":7171:7444   */\n      pop\n        /* \"#utility.yul\":7091:7444   */\n      swap3\n      swap2\n      pop\n      pop\n      jump\t// out\n        /* \"#utility.yul\":7450:7593   */\n    tag_190:\n        /* \"#utility.yul\":7546:7552   */\n      0x00\n        /* \"#utility.yul\":7580:7585   */\n      dup2\n        /* \"#utility.yul\":7574:7586   */\n      mload\n        /* \"#utility.yul\":7564:7586   */\n      swap1\n      pop\n        /* \"#utility.yul\":7450:7593   */\n      swap2\n      swap1\n      pop\n      jump\t// out\n        /* \"#utility.yul\":7599:7802   */\n    tag_191:\n        /* \"#utility.yul\":7717:7728   */\n      0x00\n        /* \"#utility.yul\":7751:7757   */\n      dup3\n        /* \"#utility.yul\":7746:7749   */\n      dup3\n        /* \"#utility.yul\":7739:7758   */\n      mstore\n        /* \"#utility.yul\":7791:7795   */\n      0x20\n        /* \"#utility.yul\":7786:7789   */\n      dup3\n        /* \"#utility.yul\":7782:7796   */\n      add\n        /* \"#utility.yul\":7767:7796   */\n      swap1\n      pop\n        /* \"#utility.yul\":7599:7802   */\n      swap3\n      swap2\n      pop\n      pop\n      jump\t// out\n        /* \"#utility.yul\":7808:7969   */\n    tag_192:\n        /* \"#utility.yul\":7904:7908   */\n      0x00\n        /* \"#utility.yul\":7927:7930   */\n      dup2\n        /* \"#utility.yul\":7919:7930   */\n      swap1\n      pop\n        /* \"#utility.yul\":7957:7961   */\n      0x20\n        /* \"#utility.yul\":7952:7955   */\n      dup3\n        /* \"#utility.yul\":7948:7962   */\n      add\n        /* \"#utility.yul\":7940:7962   */\n      swap1\n      pop\n        /* \"#utility.yul\":7808:7969   */\n      swap2\n      swap1\n      pop\n      jump\t// out\n        /* \"#utility.yul\":7975:8083   */\n    tag_193:\n        /* \"#utility.yul\":8052:8076   */\n      tag_305\n        /* \"#utility.yul\":8070:8075   */\n      dup2\n        /* \"#utility.yul\":8052:8076   */\n      tag_169\n      jump\t// in\n    tag_305:\n        /* \"#utility.yul\":8047:8050   */\n      dup3\n        /* \"#utility.yul\":8040:8077   */\n      mstore\n        /* \"#utility.yul\":7975:8083   */\n      pop\n      pop\n      jump\t// out\n        /* \"#utility.yul\":8089:8197   */\n    tag_194:\n        /* \"#utility.yul\":8166:8190   */\n      tag_307\n        /* \"#utility.yul\":8184:8189   */\n      dup2\n        /* \"#utility.yul\":8166:8190   */\n      tag_172\n      jump\t// in\n    tag_307:\n        /* \"#utility.yul\":8161:8164   */\n      dup3\n        /* \"#utility.yul\":8154:8191   */\n      mstore\n        /* \"#utility.yul\":8089:8197   */\n      pop\n      pop\n      jump\t// out\n        /* \"#utility.yul\":8271:8779   */\n    tag_195:\n        /* \"#utility.yul\":8416:8420   */\n      0x40\n        /* \"#utility.yul\":8411:8414   */\n      dup3\n        /* \"#utility.yul\":8407:8421   */\n      add\n        /* \"#utility.yul\":8504:8508   */\n      0x00\n        /* \"#utility.yul\":8497:8502   */\n      dup3\n        /* \"#utility.yul\":8493:8509   */\n      add\n        /* \"#utility.yul\":8487:8510   */\n      mload\n        /* \"#utility.yul\":8523:8586   */\n      tag_309\n        /* \"#utility.yul\":8580:8584   */\n      0x00\n        /* \"#utility.yul\":8575:8578   */\n      dup6\n        /* \"#utility.yul\":8571:8585   */\n      add\n        /* \"#utility.yul\":8557:8569   */\n      dup3\n        /* \"#utility.yul\":8523:8586   */\n      tag_193\n      jump\t// in\n    tag_309:\n        /* \"#utility.yul\":8431:8596   */\n      pop\n        /* \"#utility.yul\":8680:8684   */\n      0x20\n        /* \"#utility.yul\":8673:8678   */\n      dup3\n        /* \"#utility.yul\":8669:8685   */\n      add\n        /* \"#utility.yul\":8663:8686   */\n      mload\n        /* \"#utility.yul\":8699:8762   */\n      tag_310\n        /* \"#utility.yul\":8756:8760   */\n      0x20\n        /* \"#utility.yul\":8751:8754   */\n      dup6\n        /* \"#utility.yul\":8747:8761   */\n      add\n        /* \"#utility.yul\":8733:8745   */\n      dup3\n        /* \"#utility.yul\":8699:8762   */\n      tag_194\n      jump\t// in\n    tag_310:\n        /* \"#utility.yul\":8606:8772   */\n      pop\n        /* \"#utility.yul\":8385:8779   */\n      pop\n        /* \"#utility.yul\":8271:8779   */\n      pop\n      pop\n      jump\t// out\n        /* \"#utility.yul\":8785:9080   */\n    tag_196:\n        /* \"#utility.yul\":8912:8922   */\n      0x00\n        /* \"#utility.yul\":8933:9037   */\n      tag_312\n        /* \"#utility.yul\":9033:9036   */\n      dup4\n        /* \"#utility.yul\":9025:9031   */\n      dup4\n        /* \"#utility.yul\":8933:9037   */\n      tag_195\n      jump\t// in\n    tag_312:\n        /* \"#utility.yul\":9069:9073   */\n      0x40\n        /* \"#utility.yul\":9064:9067   */\n      dup4\n        /* \"#utility.yul\":9060:9074   */\n      add\n        /* \"#utility.yul\":9046:9074   */\n      swap1\n      pop\n        /* \"#utility.yul\":8785:9080   */\n      swap3\n      swap2\n      pop\n      pop\n      jump\t// out\n        /* \"#utility.yul\":9086:9228   */\n    tag_197:\n        /* \"#utility.yul\":9185:9189   */\n      0x00\n        /* \"#utility.yul\":9217:9221   */\n      0x20\n        /* \"#utility.yul\":9212:9215   */\n      dup3\n        /* \"#utility.yul\":9208:9222   */\n      add\n        /* \"#utility.yul\":9200:9222   */\n      swap1\n      pop\n        /* \"#utility.yul\":9086:9228   */\n      swap2\n      swap1\n      pop\n      jump\t// out\n        /* \"#utility.yul\":9306:10250   */\n    tag_198:\n        /* \"#utility.yul\":9473:9476   */\n      0x00\n        /* \"#utility.yul\":9502:9585   */\n      tag_315\n        /* \"#utility.yul\":9579:9584   */\n      dup3\n        /* \"#utility.yul\":9502:9585   */\n      tag_190\n      jump\t// in\n    tag_315:\n        /* \"#utility.yul\":9601:9706   */\n      tag_316\n        /* \"#utility.yul\":9699:9705   */\n      dup2\n        /* \"#utility.yul\":9694:9697   */\n      dup6\n        /* \"#utility.yul\":9601:9706   */\n      tag_191\n      jump\t// in\n    tag_316:\n        /* \"#utility.yul\":9594:9706   */\n      swap4\n      pop\n        /* \"#utility.yul\":9730:9815   */\n      tag_317\n        /* \"#utility.yul\":9809:9814   */\n      dup4\n        /* \"#utility.yul\":9730:9815   */\n      tag_192\n      jump\t// in\n    tag_317:\n        /* \"#utility.yul\":9838:9845   */\n      dup1\n        /* \"#utility.yul\":9869:9870   */\n      0x00\n        /* \"#utility.yul\":9854:10225   */\n    tag_318:\n        /* \"#utility.yul\":9879:9885   */\n      dup4\n        /* \"#utility.yul\":9876:9877   */\n      dup2\n        /* \"#utility.yul\":9873:9886   */\n      lt\n        /* \"#utility.yul\":9854:10225   */\n      iszero\n      tag_320\n      jumpi\n        /* \"#utility.yul\":9955:9961   */\n      dup2\n        /* \"#utility.yul\":9949:9962   */\n      mload\n        /* \"#utility.yul\":9982:10103   */\n      tag_321\n        /* \"#utility.yul\":10099:10102   */\n      dup9\n        /* \"#utility.yul\":10084:10097   */\n      dup3\n        /* \"#utility.yul\":9982:10103   */\n      tag_196\n      jump\t// in\n    tag_321:\n        /* \"#utility.yul\":9975:10103   */\n      swap8\n      pop\n        /* \"#utility.yul\":10126:10215   */\n      tag_322\n        /* \"#utility.yul\":10208:10214   */\n      dup4\n        /* \"#utility.yul\":10126:10215   */\n      tag_197\n      jump\t// in\n    tag_322:\n        /* \"#utility.yul\":10116:10215   */\n      swap3\n      pop\n        /* \"#utility.yul\":9914:10225   */\n      pop\n        /* \"#utility.yul\":9901:9902   */\n      0x01\n        /* \"#utility.yul\":9898:9899   */\n      dup2\n        /* \"#utility.yul\":9894:9903   */\n      add\n        /* \"#utility.yul\":9889:9903   */\n      swap1\n      pop\n        /* \"#utility.yul\":9854:10225   */\n      jump(tag_318)\n    tag_320:\n        /* \"#utility.yul\":9858:9872   */\n      pop\n        /* \"#utility.yul\":10241:10244   */\n      dup6\n        /* \"#utility.yul\":10234:10244   */\n      swap4\n      pop\n        /* \"#utility.yul\":9478:10250   */\n      pop\n      pop\n      pop\n        /* \"#utility.yul\":9306:10250   */\n      swap3\n      swap2\n      pop\n      pop\n      jump\t// out\n        /* \"#utility.yul\":10324:11778   */\n    tag_199:\n        /* \"#utility.yul\":10453:10456   */\n      0x00\n        /* \"#utility.yul\":10489:10493   */\n      0xa0\n        /* \"#utility.yul\":10484:10487   */\n      dup4\n        /* \"#utility.yul\":10480:10494   */\n      add\n        /* \"#utility.yul\":10580:10584   */\n      0x00\n        /* \"#utility.yul\":10573:10578   */\n      dup4\n        /* \"#utility.yul\":10569:10585   */\n      add\n        /* \"#utility.yul\":10563:10586   */\n      mload\n        /* \"#utility.yul\":10633:10636   */\n      dup5\n        /* \"#utility.yul\":10627:10631   */\n      dup3\n        /* \"#utility.yul\":10623:10637   */\n      sub\n        /* \"#utility.yul\":10616:10620   */\n      0x00\n        /* \"#utility.yul\":10611:10614   */\n      dup7\n        /* \"#utility.yul\":10607:10621   */\n      add\n        /* \"#utility.yul\":10600:10638   */\n      mstore\n        /* \"#utility.yul\":10659:10730   */\n      tag_324\n        /* \"#utility.yul\":10725:10729   */\n      dup3\n        /* \"#utility.yul\":10711:10723   */\n      dup3\n        /* \"#utility.yul\":10659:10730   */\n      tag_189\n      jump\t// in\n    tag_324:\n        /* \"#utility.yul\":10651:10730   */\n      swap2\n      pop\n        /* \"#utility.yul\":10504:10741   */\n      pop\n        /* \"#utility.yul\":10823:10827   */\n      0x20\n        /* \"#utility.yul\":10816:10821   */\n      dup4\n        /* \"#utility.yul\":10812:10828   */\n      add\n        /* \"#utility.yul\":10806:10829   */\n      mload\n        /* \"#utility.yul\":10876:10879   */\n      dup5\n        /* \"#utility.yul\":10870:10874   */\n      dup3\n        /* \"#utility.yul\":10866:10880   */\n      sub\n        /* \"#utility.yul\":10859:10863   */\n      0x20\n        /* \"#utility.yul\":10854:10857   */\n      dup7\n        /* \"#utility.yul\":10850:10864   */\n      add\n        /* \"#utility.yul\":10843:10881   */\n      mstore\n        /* \"#utility.yul\":10902:10973   */\n      tag_325\n        /* \"#utility.yul\":10968:10972   */\n      dup3\n        /* \"#utility.yul\":10954:10966   */\n      dup3\n        /* \"#utility.yul\":10902:10973   */\n      tag_189\n      jump\t// in\n    tag_325:\n        /* \"#utility.yul\":10894:10973   */\n      swap2\n      pop\n        /* \"#utility.yul\":10751:10984   */\n      pop\n        /* \"#utility.yul\":11074:11078   */\n      0x40\n        /* \"#utility.yul\":11067:11072   */\n      dup4\n        /* \"#utility.yul\":11063:11079   */\n      add\n        /* \"#utility.yul\":11057:11080   */\n      mload\n        /* \"#utility.yul\":11127:11130   */\n      dup5\n        /* \"#utility.yul\":11121:11125   */\n      dup3\n        /* \"#utility.yul\":11117:11131   */\n      sub\n        /* \"#utility.yul\":11110:11114   */\n      0x40\n        /* \"#utility.yul\":11105:11108   */\n      dup7\n        /* \"#utility.yul\":11101:11115   */\n      add\n        /* \"#utility.yul\":11094:11132   */\n      mstore\n        /* \"#utility.yul\":11153:11314   */\n      tag_326\n        /* \"#utility.yul\":11309:11313   */\n      dup3\n        /* \"#utility.yul\":11295:11307   */\n      dup3\n        /* \"#utility.yul\":11153:11314   */\n      tag_198\n      jump\t// in\n    tag_326:\n        /* \"#utility.yul\":11145:11314   */\n      swap2\n      pop\n        /* \"#utility.yul\":10994:11325   */\n      pop\n        /* \"#utility.yul\":11411:11415   */\n      0x60\n        /* \"#utility.yul\":11404:11409   */\n      dup4\n        /* \"#utility.yul\":11400:11416   */\n      add\n        /* \"#utility.yul\":11394:11417   */\n      mload\n        /* \"#utility.yul\":11430:11493   */\n      tag_327\n        /* \"#utility.yul\":11487:11491   */\n      0x60\n        /* \"#utility.yul\":11482:11485   */\n      dup7\n        /* \"#utility.yul\":11478:11492   */\n      add\n        /* \"#utility.yul\":11464:11476   */\n      dup3\n        /* \"#utility.yul\":11430:11493   */\n      tag_193\n      jump\t// in\n    tag_327:\n        /* \"#utility.yul\":11335:11503   */\n      pop\n        /* \"#utility.yul\":11590:11594   */\n      0x80\n        /* \"#utility.yul\":11583:11588   */\n      dup4\n        /* \"#utility.yul\":11579:11595   */\n      add\n        /* \"#utility.yul\":11573:11596   */\n      mload\n        /* \"#utility.yul\":11643:11646   */\n      dup5\n        /* \"#utility.yul\":11637:11641   */\n      dup3\n        /* \"#utility.yul\":11633:11647   */\n      sub\n        /* \"#utility.yul\":11626:11630   */\n      0x80\n        /* \"#utility.yul\":11621:11624   */\n      dup7\n        /* \"#utility.yul\":11617:11631   */\n      add\n        /* \"#utility.yul\":11610:11648   */\n      mstore\n        /* \"#utility.yul\":11669:11740   */\n      tag_328\n        /* \"#utility.yul\":11735:11739   */\n      dup3\n        /* \"#utility.yul\":11721:11733   */\n      dup3\n        /* \"#utility.yul\":11669:11740   */\n      tag_189\n      jump\t// in\n    tag_328:\n        /* \"#utility.yul\":11661:11740   */\n      swap2\n      pop\n        /* \"#utility.yul\":11513:11751   */\n      pop\n        /* \"#utility.yul\":11768:11772   */\n      dup1\n        /* \"#utility.yul\":11761:11772   */\n      swap2\n      pop\n        /* \"#utility.yul\":10458:11778   */\n      pop\n        /* \"#utility.yul\":10324:11778   */\n      swap3\n      swap2\n      pop\n      pop\n      jump\t// out\n        /* \"#utility.yul\":11784:12283   */\n    tag_77:\n        /* \"#utility.yul\":11963:11967   */\n      0x00\n        /* \"#utility.yul\":12001:12003   */\n      0x40\n        /* \"#utility.yul\":11990:11999   */\n      dup3\n        /* \"#utility.yul\":11986:12004   */\n      add\n        /* \"#utility.yul\":11978:12004   */\n      swap1\n      pop\n        /* \"#utility.yul\":12014:12083   */\n      tag_330\n        /* \"#utility.yul\":12080:12081   */\n      0x00\n        /* \"#utility.yul\":12069:12078   */\n      dup4\n        /* \"#utility.yul\":12065:12082   */\n      add\n        /* \"#utility.yul\":12056:12062   */\n      dup6\n        /* \"#utility.yul\":12014:12083   */\n      tag_184\n      jump\t// in\n    tag_330:\n        /* \"#utility.yul\":12130:12139   */\n      dup2\n        /* \"#utility.yul\":12124:12128   */\n      dup2\n        /* \"#utility.yul\":12120:12140   */\n      sub\n        /* \"#utility.yul\":12115:12117   */\n      0x20\n        /* \"#utility.yul\":12104:12113   */\n      dup4\n        /* \"#utility.yul\":12100:12118   */\n      add\n        /* \"#utility.yul\":12093:12141   */\n      mstore\n        /* \"#utility.yul\":12158:12276   */\n      tag_331\n        /* \"#utility.yul\":12271:12275   */\n      dup2\n        /* \"#utility.yul\":12262:12268   */\n      dup5\n        /* \"#utility.yul\":12158:12276   */\n      tag_199\n      jump\t// in\n    tag_331:\n        /* \"#utility.yul\":12150:12276   */\n      swap1\n      pop\n        /* \"#utility.yul\":11784:12283   */\n      swap4\n      swap3\n      pop\n      pop\n      pop\n      jump\t// out\n        /* \"#utility.yul\":12289:12411   */\n    tag_200:\n        /* \"#utility.yul\":12362:12386   */\n      tag_333\n        /* \"#utility.yul\":12380:12385   */\n      dup2\n        /* \"#utility.yul\":12362:12386   */\n      tag_177\n      jump\t// in\n    tag_333:\n        /* \"#utility.yul\":12355:12360   */\n      dup2\n        /* \"#utility.yul\":12352:12387   */\n      eq\n        /* \"#utility.yul\":12342:12405   */\n      tag_334\n      jumpi\n        /* \"#utility.yul\":12401:12402   */\n      0x00\n        /* \"#utility.yul\":12398:12399   */\n      dup1\n        /* \"#utility.yul\":12391:12403   */\n      revert\n        /* \"#utility.yul\":12342:12405   */\n    tag_334:\n        /* \"#utility.yul\":12289:12411   */\n      pop\n      jump\t// out\n        /* \"#utility.yul\":12417:12560   */\n    tag_201:\n        /* \"#utility.yul\":12474:12479   */\n      0x00\n        /* \"#utility.yul\":12505:12511   */\n      dup2\n        /* \"#utility.yul\":12499:12512   */\n      mload\n        /* \"#utility.yul\":12490:12512   */\n      swap1\n      pop\n        /* \"#utility.yul\":12521:12554   */\n      tag_336\n        /* \"#utility.yul\":12548:12553   */\n      dup2\n        /* \"#utility.yul\":12521:12554   */\n      tag_200\n      jump\t// in\n    tag_336:\n        /* \"#utility.yul\":12417:12560   */\n      swap3\n      swap2\n      pop\n      pop\n      jump\t// out\n        /* \"#utility.yul\":12566:12917   */\n    tag_115:\n        /* \"#utility.yul\":12636:12642   */\n      0x00\n        /* \"#utility.yul\":12685:12687   */\n      0x20\n        /* \"#utility.yul\":12673:12682   */\n      dup3\n        /* \"#utility.yul\":12664:12671   */\n      dup5\n        /* \"#utility.yul\":12660:12683   */\n      sub\n        /* \"#utility.yul\":12656:12688   */\n      slt\n        /* \"#utility.yul\":12653:12772   */\n      iszero\n      tag_338\n      jumpi\n        /* \"#utility.yul\":12691:12770   */\n      tag_339\n      tag_166\n      jump\t// in\n    tag_339:\n        /* \"#utility.yul\":12653:12772   */\n    tag_338:\n        /* \"#utility.yul\":12811:12812   */\n      0x00\n        /* \"#utility.yul\":12836:12900   */\n      tag_340\n        /* \"#utility.yul\":12892:12899   */\n      dup5\n        /* \"#utility.yul\":12883:12889   */\n      dup3\n        /* \"#utility.yul\":12872:12881   */\n      dup6\n        /* \"#utility.yul\":12868:12890   */\n      add\n        /* \"#utility.yul\":12836:12900   */\n      tag_201\n      jump\t// in\n    tag_340:\n        /* \"#utility.yul\":12826:12900   */\n      swap2\n      pop\n        /* \"#utility.yul\":12782:12910   */\n      pop\n        /* \"#utility.yul\":12566:12917   */\n      swap3\n      swap2\n      pop\n      pop\n      jump\t// out\n        /* \"#utility.yul\":12923:13583   */\n    tag_117:\n        /* \"#utility.yul\":13126:13130   */\n      0x00\n        /* \"#utility.yul\":13164:13167   */\n      0xa0\n        /* \"#utility.yul\":13153:13162   */\n      dup3\n        /* \"#utility.yul\":13149:13168   */\n      add\n        /* \"#utility.yul\":13141:13168   */\n      swap1\n      pop\n        /* \"#utility.yul\":13178:13249   */\n      tag_342\n        /* \"#utility.yul\":13246:13247   */\n      0x00\n        /* \"#utility.yul\":13235:13244   */\n      dup4\n        /* \"#utility.yul\":13231:13248   */\n      add\n        /* \"#utility.yul\":13222:13228   */\n      dup9\n        /* \"#utility.yul\":13178:13249   */\n      tag_178\n      jump\t// in\n    tag_342:\n        /* \"#utility.yul\":13259:13329   */\n      tag_343\n        /* \"#utility.yul\":13325:13327   */\n      0x20\n        /* \"#utility.yul\":13314:13323   */\n      dup4\n        /* \"#utility.yul\":13310:13328   */\n      add\n        /* \"#utility.yul\":13301:13307   */\n      dup8\n        /* \"#utility.yul\":13259:13329   */\n      tag_184\n      jump\t// in\n    tag_343:\n        /* \"#utility.yul\":13339:13411   */\n      tag_344\n        /* \"#utility.yul\":13407:13409   */\n      0x40\n        /* \"#utility.yul\":13396:13405   */\n      dup4\n        /* \"#utility.yul\":13392:13410   */\n      add\n        /* \"#utility.yul\":13383:13389   */\n      dup7\n        /* \"#utility.yul\":13339:13411   */\n      tag_174\n      jump\t// in\n    tag_344:\n        /* \"#utility.yul\":13421:13493   */\n      tag_345\n        /* \"#utility.yul\":13489:13491   */\n      0x60\n        /* \"#utility.yul\":13478:13487   */\n      dup4\n        /* \"#utility.yul\":13474:13492   */\n      add\n        /* \"#utility.yul\":13465:13471   */\n      dup6\n        /* \"#utility.yul\":13421:13493   */\n      tag_173\n      jump\t// in\n    tag_345:\n        /* \"#utility.yul\":13503:13576   */\n      tag_346\n        /* \"#utility.yul\":13571:13574   */\n      0x80\n        /* \"#utility.yul\":13560:13569   */\n      dup4\n        /* \"#utility.yul\":13556:13575   */\n      add\n        /* \"#utility.yul\":13547:13553   */\n      dup5\n        /* \"#utility.yul\":13503:13576   */\n      tag_173\n      jump\t// in\n    tag_346:\n        /* \"#utility.yul\":12923:13583   */\n      swap7\n      swap6\n      pop\n      pop\n      pop\n      pop\n      pop\n      pop\n      jump\t// out\n        /* \"#utility.yul\":13657:14004   */\n    tag_202:\n        /* \"#utility.yul\":13814:13818   */\n      0x20\n        /* \"#utility.yul\":13809:13812   */\n      dup3\n        /* \"#utility.yul\":13805:13819   */\n      add\n        /* \"#utility.yul\":13905:13909   */\n      0x00\n        /* \"#utility.yul\":13898:13903   */\n      dup3\n        /* \"#utility.yul\":13894:13910   */\n      add\n        /* \"#utility.yul\":13888:13911   */\n      mload\n        /* \"#utility.yul\":13924:13987   */\n      tag_348\n        /* \"#utility.yul\":13981:13985   */\n      0x00\n        /* \"#utility.yul\":13976:13979   */\n      dup6\n        /* \"#utility.yul\":13972:13986   */\n      add\n        /* \"#utility.yul\":13958:13970   */\n      dup3\n        /* \"#utility.yul\":13924:13987   */\n      tag_194\n      jump\t// in\n    tag_348:\n        /* \"#utility.yul\":13829:13997   */\n      pop\n        /* \"#utility.yul\":13783:14004   */\n      pop\n        /* \"#utility.yul\":13657:14004   */\n      pop\n      pop\n      jump\t// out\n        /* \"#utility.yul\":14010:14352   */\n    tag_120:\n        /* \"#utility.yul\":14163:14167   */\n      0x00\n        /* \"#utility.yul\":14201:14203   */\n      0x20\n        /* \"#utility.yul\":14190:14199   */\n      dup3\n        /* \"#utility.yul\":14186:14204   */\n      add\n        /* \"#utility.yul\":14178:14204   */\n      swap1\n      pop\n        /* \"#utility.yul\":14214:14345   */\n      tag_350\n        /* \"#utility.yul\":14342:14343   */\n      0x00\n        /* \"#utility.yul\":14331:14340   */\n      dup4\n        /* \"#utility.yul\":14327:14344   */\n      add\n        /* \"#utility.yul\":14318:14324   */\n      dup5\n        /* \"#utility.yul\":14214:14345   */\n      tag_202\n      jump\t// in\n    tag_350:\n        /* \"#utility.yul\":14010:14352   */\n      swap3\n      swap2\n      pop\n      pop\n      jump\t// out\n        /* \"#utility.yul\":14358:14800   */\n    tag_124:\n        /* \"#utility.yul\":14507:14511   */\n      0x00\n        /* \"#utility.yul\":14545:14547   */\n      0x60\n        /* \"#utility.yul\":14534:14543   */\n      dup3\n        /* \"#utility.yul\":14530:14548   */\n      add\n        /* \"#utility.yul\":14522:14548   */\n      swap1\n      pop\n        /* \"#utility.yul\":14558:14629   */\n      tag_352\n        /* \"#utility.yul\":14626:14627   */\n      0x00\n        /* \"#utility.yul\":14615:14624   */\n      dup4\n        /* \"#utility.yul\":14611:14628   */\n      add\n        /* \"#utility.yul\":14602:14608   */\n      dup7\n        /* \"#utility.yul\":14558:14629   */\n      tag_174\n      jump\t// in\n    tag_352:\n        /* \"#utility.yul\":14639:14711   */\n      tag_353\n        /* \"#utility.yul\":14707:14709   */\n      0x20\n        /* \"#utility.yul\":14696:14705   */\n      dup4\n        /* \"#utility.yul\":14692:14710   */\n      add\n        /* \"#utility.yul\":14683:14689   */\n      dup6\n        /* \"#utility.yul\":14639:14711   */\n      tag_174\n      jump\t// in\n    tag_353:\n        /* \"#utility.yul\":14721:14793   */\n      tag_354\n        /* \"#utility.yul\":14789:14791   */\n      0x40\n        /* \"#utility.yul\":14778:14787   */\n      dup4\n        /* \"#utility.yul\":14774:14792   */\n      add\n        /* \"#utility.yul\":14765:14771   */\n      dup5\n        /* \"#utility.yul\":14721:14793   */\n      tag_173\n      jump\t// in\n    tag_354:\n        /* \"#utility.yul\":14358:14800   */\n      swap5\n      swap4\n      pop\n      pop\n      pop\n      pop\n      jump\t// out\n        /* \"#utility.yul\":14806:14975   */\n    tag_203:\n        /* \"#utility.yul\":14890:14901   */\n      0x00\n        /* \"#utility.yul\":14924:14930   */\n      dup3\n        /* \"#utility.yul\":14919:14922   */\n      dup3\n        /* \"#utility.yul\":14912:14931   */\n      mstore\n        /* \"#utility.yul\":14964:14968   */\n      0x20\n        /* \"#utility.yul\":14959:14962   */\n      dup3\n        /* \"#utility.yul\":14955:14969   */\n      add\n        /* \"#utility.yul\":14940:14969   */\n      swap1\n      pop\n        /* \"#utility.yul\":14806:14975   */\n      swap3\n      swap2\n      pop\n      pop\n      jump\t// out\n        /* \"#utility.yul\":14981:15210   */\n    tag_204:\n        /* \"#utility.yul\":15121:15155   */\n      0x5361666545524332303a204552433230206f7065726174696f6e20646964206e\n        /* \"#utility.yul\":15117:15118   */\n      0x00\n        /* \"#utility.yul\":15109:15115   */\n      dup3\n        /* \"#utility.yul\":15105:15119   */\n      add\n        /* \"#utility.yul\":15098:15156   */\n      mstore\n        /* \"#utility.yul\":15190:15202   */\n      0x6f74207375636365656400000000000000000000000000000000000000000000\n        /* \"#utility.yul\":15185:15187   */\n      0x20\n        /* \"#utility.yul\":15177:15183   */\n      dup3\n        /* \"#utility.yul\":15173:15188   */\n      add\n        /* \"#utility.yul\":15166:15203   */\n      mstore\n        /* \"#utility.yul\":14981:15210   */\n      pop\n      jump\t// out\n        /* \"#utility.yul\":15216:15582   */\n    tag_205:\n        /* \"#utility.yul\":15358:15361   */\n      0x00\n        /* \"#utility.yul\":15379:15446   */\n      tag_358\n        /* \"#utility.yul\":15443:15445   */\n      0x2a\n        /* \"#utility.yul\":15438:15441   */\n      dup4\n        /* \"#utility.yul\":15379:15446   */\n      tag_203\n      jump\t// in\n    tag_358:\n        /* \"#utility.yul\":15372:15446   */\n      swap2\n      pop\n        /* \"#utility.yul\":15455:15548   */\n      tag_359\n        /* \"#utility.yul\":15544:15547   */\n      dup3\n        /* \"#utility.yul\":15455:15548   */\n      tag_204\n      jump\t// in\n    tag_359:\n        /* \"#utility.yul\":15573:15575   */\n      0x40\n        /* \"#utility.yul\":15568:15571   */\n      dup3\n        /* \"#utility.yul\":15564:15576   */\n      add\n        /* \"#utility.yul\":15557:15576   */\n      swap1\n      pop\n        /* \"#utility.yul\":15216:15582   */\n      swap2\n      swap1\n      pop\n      jump\t// out\n        /* \"#utility.yul\":15588:16007   */\n    tag_133:\n        /* \"#utility.yul\":15754:15758   */\n      0x00\n        /* \"#utility.yul\":15792:15794   */\n      0x20\n        /* \"#utility.yul\":15781:15790   */\n      dup3\n        /* \"#utility.yul\":15777:15795   */\n      add\n        /* \"#utility.yul\":15769:15795   */\n      swap1\n      pop\n        /* \"#utility.yul\":15841:15850   */\n      dup2\n        /* \"#utility.yul\":15835:15839   */\n      dup2\n        /* \"#utility.yul\":15831:15851   */\n      sub\n        /* \"#utility.yul\":15827:15828   */\n      0x00\n        /* \"#utility.yul\":15816:15825   */\n      dup4\n        /* \"#utility.yul\":15812:15829   */\n      add\n        /* \"#utility.yul\":15805:15852   */\n      mstore\n        /* \"#utility.yul\":15869:16000   */\n      tag_361\n        /* \"#utility.yul\":15995:15999   */\n      dup2\n        /* \"#utility.yul\":15869:16000   */\n      tag_205\n      jump\t// in\n    tag_361:\n        /* \"#utility.yul\":15861:16000   */\n      swap1\n      pop\n        /* \"#utility.yul\":15588:16007   */\n      swap2\n      swap1\n      pop\n      jump\t// out\n        /* \"#utility.yul\":16013:16238   */\n    tag_206:\n        /* \"#utility.yul\":16153:16187   */\n      0x416464726573733a20696e73756666696369656e742062616c616e636520666f\n        /* \"#utility.yul\":16149:16150   */\n      0x00\n        /* \"#utility.yul\":16141:16147   */\n      dup3\n        /* \"#utility.yul\":16137:16151   */\n      add\n        /* \"#utility.yul\":16130:16188   */\n      mstore\n        /* \"#utility.yul\":16222:16230   */\n      0x722063616c6c0000000000000000000000000000000000000000000000000000\n        /* \"#utility.yul\":16217:16219   */\n      0x20\n        /* \"#utility.yul\":16209:16215   */\n      dup3\n        /* \"#utility.yul\":16205:16220   */\n      add\n        /* \"#utility.yul\":16198:16231   */\n      mstore\n        /* \"#utility.yul\":16013:16238   */\n      pop\n      jump\t// out\n        /* \"#utility.yul\":16244:16610   */\n    tag_207:\n        /* \"#utility.yul\":16386:16389   */\n      0x00\n        /* \"#utility.yul\":16407:16474   */\n      tag_364\n        /* \"#utility.yul\":16471:16473   */\n      0x26\n        /* \"#utility.yul\":16466:16469   */\n      dup4\n        /* \"#utility.yul\":16407:16474   */\n      tag_203\n      jump\t// in\n    tag_364:\n        /* \"#utility.yul\":16400:16474   */\n      swap2\n      pop\n        /* \"#utility.yul\":16483:16576   */\n      tag_365\n        /* \"#utility.yul\":16572:16575   */\n      dup3\n        /* \"#utility.yul\":16483:16576   */\n      tag_206\n      jump\t// in\n    tag_365:\n        /* \"#utility.yul\":16601:16603   */\n      0x40\n        /* \"#utility.yul\":16596:16599   */\n      dup3\n        /* \"#utility.yul\":16592:16604   */\n      add\n        /* \"#utility.yul\":16585:16604   */\n      swap1\n      pop\n        /* \"#utility.yul\":16244:16610   */\n      swap2\n      swap1\n      pop\n      jump\t// out\n        /* \"#utility.yul\":16616:17035   */\n    tag_140:\n        /* \"#utility.yul\":16782:16786   */\n      0x00\n        /* \"#utility.yul\":16820:16822   */\n      0x20\n        /* \"#utility.yul\":16809:16818   */\n      dup3\n        /* \"#utility.yul\":16805:16823   */\n      add\n        /* \"#utility.yul\":16797:16823   */\n      swap1\n      pop\n        /* \"#utility.yul\":16869:16878   */\n      dup2\n        /* \"#utility.yul\":16863:16867   */\n      dup2\n        /* \"#utility.yul\":16859:16879   */\n      sub\n        /* \"#utility.yul\":16855:16856   */\n      0x00\n        /* \"#utility.yul\":16844:16853   */\n      dup4\n        /* \"#utility.yul\":16840:16857   */\n      add\n        /* \"#utility.yul\":16833:16880   */\n      mstore\n        /* \"#utility.yul\":16897:17028   */\n      tag_367\n        /* \"#utility.yul\":17023:17027   */\n      dup2\n        /* \"#utility.yul\":16897:17028   */\n      tag_207\n      jump\t// in\n    tag_367:\n        /* \"#utility.yul\":16889:17028   */\n      swap1\n      pop\n        /* \"#utility.yul\":16616:17035   */\n      swap2\n      swap1\n      pop\n      jump\t// out\n        /* \"#utility.yul\":17041:17188   */\n    tag_208:\n        /* \"#utility.yul\":17142:17153   */\n      0x00\n        /* \"#utility.yul\":17179:17182   */\n      dup2\n        /* \"#utility.yul\":17164:17182   */\n      swap1\n      pop\n        /* \"#utility.yul\":17041:17188   */\n      swap3\n      swap2\n      pop\n      pop\n      jump\t// out\n        /* \"#utility.yul\":17194:17580   */\n    tag_209:\n        /* \"#utility.yul\":17298:17301   */\n      0x00\n        /* \"#utility.yul\":17326:17364   */\n      tag_370\n        /* \"#utility.yul\":17358:17363   */\n      dup3\n        /* \"#utility.yul\":17326:17364   */\n      tag_185\n      jump\t// in\n    tag_370:\n        /* \"#utility.yul\":17380:17468   */\n      tag_371\n        /* \"#utility.yul\":17461:17467   */\n      dup2\n        /* \"#utility.yul\":17456:17459   */\n      dup6\n        /* \"#utility.yul\":17380:17468   */\n      tag_208\n      jump\t// in\n    tag_371:\n        /* \"#utility.yul\":17373:17468   */\n      swap4\n      pop\n        /* \"#utility.yul\":17477:17542   */\n      tag_372\n        /* \"#utility.yul\":17535:17541   */\n      dup2\n        /* \"#utility.yul\":17530:17533   */\n      dup6\n        /* \"#utility.yul\":17523:17527   */\n      0x20\n        /* \"#utility.yul\":17516:17521   */\n      dup7\n        /* \"#utility.yul\":17512:17528   */\n      add\n        /* \"#utility.yul\":17477:17542   */\n      tag_187\n      jump\t// in\n    tag_372:\n        /* \"#utility.yul\":17567:17573   */\n      dup1\n        /* \"#utility.yul\":17562:17565   */\n      dup5\n        /* \"#utility.yul\":17558:17574   */\n      add\n        /* \"#utility.yul\":17551:17574   */\n      swap2\n      pop\n        /* \"#utility.yul\":17302:17580   */\n      pop\n        /* \"#utility.yul\":17194:17580   */\n      swap3\n      swap2\n      pop\n      pop\n      jump\t// out\n        /* \"#utility.yul\":17586:17857   */\n    tag_142:\n        /* \"#utility.yul\":17716:17719   */\n      0x00\n        /* \"#utility.yul\":17738:17831   */\n      tag_374\n        /* \"#utility.yul\":17827:17830   */\n      dup3\n        /* \"#utility.yul\":17818:17824   */\n      dup5\n        /* \"#utility.yul\":17738:17831   */\n      tag_209\n      jump\t// in\n    tag_374:\n        /* \"#utility.yul\":17731:17831   */\n      swap2\n      pop\n        /* \"#utility.yul\":17848:17851   */\n      dup2\n        /* \"#utility.yul\":17841:17851   */\n      swap1\n      pop\n        /* \"#utility.yul\":17586:17857   */\n      swap3\n      swap2\n      pop\n      pop\n      jump\t// out\n        /* \"#utility.yul\":17863:18042   */\n    tag_210:\n        /* \"#utility.yul\":18003:18034   */\n      0x416464726573733a2063616c6c20746f206e6f6e2d636f6e7472616374000000\n        /* \"#utility.yul\":17999:18000   */\n      0x00\n        /* \"#utility.yul\":17991:17997   */\n      dup3\n        /* \"#utility.yul\":17987:18001   */\n      add\n        /* \"#utility.yul\":17980:18035   */\n      mstore\n        /* \"#utility.yul\":17863:18042   */\n      pop\n      jump\t// out\n        /* \"#utility.yul\":18048:18414   */\n    tag_211:\n        /* \"#utility.yul\":18190:18193   */\n      0x00\n        /* \"#utility.yul\":18211:18278   */\n      tag_377\n        /* \"#utility.yul\":18275:18277   */\n      0x1d\n        /* \"#utility.yul\":18270:18273   */\n      dup4\n        /* \"#utility.yul\":18211:18278   */\n      tag_203\n      jump\t// in\n    tag_377:\n        /* \"#utility.yul\":18204:18278   */\n      swap2\n      pop\n        /* \"#utility.yul\":18287:18380   */\n      tag_378\n        /* \"#utility.yul\":18376:18379   */\n      dup3\n        /* \"#utility.yul\":18287:18380   */\n      tag_210\n      jump\t// in\n    tag_378:\n        /* \"#utility.yul\":18405:18407   */\n      0x20\n        /* \"#utility.yul\":18400:18403   */\n      dup3\n        /* \"#utility.yul\":18396:18408   */\n      add\n        /* \"#utility.yul\":18389:18408   */\n      swap1\n      pop\n        /* \"#utility.yul\":18048:18414   */\n      swap2\n      swap1\n      pop\n      jump\t// out\n        /* \"#utility.yul\":18420:18839   */\n    tag_155:\n        /* \"#utility.yul\":18586:18590   */\n      0x00\n        /* \"#utility.yul\":18624:18626   */\n      0x20\n        /* \"#utility.yul\":18613:18622   */\n      dup3\n        /* \"#utility.yul\":18609:18627   */\n      add\n        /* \"#utility.yul\":18601:18627   */\n      swap1\n      pop\n        /* \"#utility.yul\":18673:18682   */\n      dup2\n        /* \"#utility.yul\":18667:18671   */\n      dup2\n        /* \"#utility.yul\":18663:18683   */\n      sub\n        /* \"#utility.yul\":18659:18660   */\n      0x00\n        /* \"#utility.yul\":18648:18657   */\n      dup4\n        /* \"#utility.yul\":18644:18661   */\n      add\n        /* \"#utility.yul\":18637:18684   */\n      mstore\n        /* \"#utility.yul\":18701:18832   */\n      tag_380\n        /* \"#utility.yul\":18827:18831   */\n      dup2\n        /* \"#utility.yul\":18701:18832   */\n      tag_211\n      jump\t// in\n    tag_380:\n        /* \"#utility.yul\":18693:18832   */\n      swap1\n      pop\n        /* \"#utility.yul\":18420:18839   */\n      swap2\n      swap1\n      pop\n      jump\t// out\n        /* \"#utility.yul\":18845:18944   */\n    tag_212:\n        /* \"#utility.yul\":18897:18903   */\n      0x00\n        /* \"#utility.yul\":18931:18936   */\n      dup2\n        /* \"#utility.yul\":18925:18937   */\n      mload\n        /* \"#utility.yul\":18915:18937   */\n      swap1\n      pop\n        /* \"#utility.yul\":18845:18944   */\n      swap2\n      swap1\n      pop\n      jump\t// out\n        /* \"#utility.yul\":18950:19327   */\n    tag_213:\n        /* \"#utility.yul\":19038:19041   */\n      0x00\n        /* \"#utility.yul\":19066:19105   */\n      tag_383\n        /* \"#utility.yul\":19099:19104   */\n      dup3\n        /* \"#utility.yul\":19066:19105   */\n      tag_212\n      jump\t// in\n    tag_383:\n        /* \"#utility.yul\":19121:19192   */\n      tag_384\n        /* \"#utility.yul\":19185:19191   */\n      dup2\n        /* \"#utility.yul\":19180:19183   */\n      dup6\n        /* \"#utility.yul\":19121:19192   */\n      tag_203\n      jump\t// in\n    tag_384:\n        /* \"#utility.yul\":19114:19192   */\n      swap4\n      pop\n        /* \"#utility.yul\":19201:19266   */\n      tag_385\n        /* \"#utility.yul\":19259:19265   */\n      dup2\n        /* \"#utility.yul\":19254:19257   */\n      dup6\n        /* \"#utility.yul\":19247:19251   */\n      0x20\n        /* \"#utility.yul\":19240:19245   */\n      dup7\n        /* \"#utility.yul\":19236:19252   */\n      add\n        /* \"#utility.yul\":19201:19266   */\n      tag_187\n      jump\t// in\n    tag_385:\n        /* \"#utility.yul\":19291:19320   */\n      tag_386\n        /* \"#utility.yul\":19313:19319   */\n      dup2\n        /* \"#utility.yul\":19291:19320   */\n      tag_188\n      jump\t// in\n    tag_386:\n        /* \"#utility.yul\":19286:19289   */\n      dup5\n        /* \"#utility.yul\":19282:19321   */\n      add\n        /* \"#utility.yul\":19275:19321   */\n      swap2\n      pop\n        /* \"#utility.yul\":19042:19327   */\n      pop\n        /* \"#utility.yul\":18950:19327   */\n      swap3\n      swap2\n      pop\n      pop\n      jump\t// out\n        /* \"#utility.yul\":19333:19646   */\n    tag_164:\n        /* \"#utility.yul\":19446:19450   */\n      0x00\n        /* \"#utility.yul\":19484:19486   */\n      0x20\n        /* \"#utility.yul\":19473:19482   */\n      dup3\n        /* \"#utility.yul\":19469:19487   */\n      add\n        /* \"#utility.yul\":19461:19487   */\n      swap1\n      pop\n        /* \"#utility.yul\":19533:19542   */\n      dup2\n        /* \"#utility.yul\":19527:19531   */\n      dup2\n        /* \"#utility.yul\":19523:19543   */\n      sub\n        /* \"#utility.yul\":19519:19520   */\n      0x00\n        /* \"#utility.yul\":19508:19517   */\n      dup4\n        /* \"#utility.yul\":19504:19521   */\n      add\n        /* \"#utility.yul\":19497:19544   */\n      mstore\n        /* \"#utility.yul\":19561:19639   */\n      tag_388\n        /* \"#utility.yul\":19634:19638   */\n      dup2\n        /* \"#utility.yul\":19625:19631   */\n      dup5\n        /* \"#utility.yul\":19561:19639   */\n      tag_213\n      jump\t// in\n    tag_388:\n        /* \"#utility.yul\":19553:19639   */\n      swap1\n      pop\n        /* \"#utility.yul\":19333:19646   */\n      swap3\n      swap2\n      pop\n      pop\n      jump\t// out\n\n    auxdata: 0xa2646970667358221220c652c2fd448a6f2c990c8cb168d830f307aa234da34c4bc2ad337f432e78e36c64736f6c63430008130033\n}\n",
				"bytecode": {
					"linkReferences": {},
					"object": "60e060405273f694e193200268f9a4868e4aa017a0118c9a8177600160006101000a81548173ffffffffffffffffffffffffffffffffffffffff021916908373ffffffffffffffffffffffffffffffffffffffff160217905550730b9d5d9136855f6fec3c0993fee6e9ce8a297846600260006101000a81548173ffffffffffffffffffffffffffffffffffffffff021916908373ffffffffffffffffffffffffffffffffffffffff160217905550735425890298aed601595a70ab815c96711a31bc65600360006101000a81548173ffffffffffffffffffffffffffffffffffffffff021916908373ffffffffffffffffffffffffffffffffffffffff16021790555067de41ba4fc9d91ad9600360146101000a81548167ffffffffffffffff021916908367ffffffffffffffff16021790555034801561014057600080fd5b50336000806101000a81548173ffffffffffffffffffffffffffffffffffffffff021916908373ffffffffffffffffffffffffffffffffffffffff160217905550600160009054906101000a900473ffffffffffffffffffffffffffffffffffffffff1673ffffffffffffffffffffffffffffffffffffffff1660808173ffffffffffffffffffffffffffffffffffffffff1681525050600260009054906101000a900473ffffffffffffffffffffffffffffffffffffffff1673ffffffffffffffffffffffffffffffffffffffff1660a08173ffffffffffffffffffffffffffffffffffffffff1681525050600360009054906101000a900473ffffffffffffffffffffffffffffffffffffffff1673ffffffffffffffffffffffffffffffffffffffff1660c08173ffffffffffffffffffffffffffffffffffffffff168152505060805160a05160c0516119d361030d6000396000818161034a01528181610411015281816105190152818161090f015281816109b001528181610a8c0152610ad30152600081816102ae015281816105c8015281816106d70152818161077801526108500152600081816106230152818161088c01528181610b0f0152610b9201526119d36000f3fe608060405234801561001057600080fd5b50600436106100575760003560e01c80633aeac4e11461005c5780636392a51f146100785780638da5cb5b146100a9578063ed3bd5bc146100c7578063fe2c5d36146100e5575b600080fd5b610076600480360381019061007191906110d4565b610115565b005b610092600480360381019061008d9190611114565b6102a9565b6040516100a092919061115a565b60405180910390f35b6100b16103e9565b6040516100be9190611192565b60405180910390f35b6100cf61040d565b6040516100dc91906111ad565b60405180910390f35b6100ff60048036038101906100fa91906111f4565b6104b0565b60405161010c919061124d565b60405180910390f35b60008054906101000a900473ffffffffffffffffffffffffffffffffffffffff1673ffffffffffffffffffffffffffffffffffffffff163373ffffffffffffffffffffffffffffffffffffffff161461016d57600080fd5b60008173ffffffffffffffffffffffffffffffffffffffff166370a08231306040518263ffffffff1660e01b81526004016101a89190611192565b602060405180830381865afa1580156101c5573d6000803e3d6000fd5b505050506040513d601f19601f820116820180604052508101906101e9919061127d565b905060008103610225576040517fd0d04f6000000000000000000000000000000000000000000000000000000000815260040160405180910390fd5b8173ffffffffffffffffffffffffffffffffffffffff1663a9059cbb84836040518363ffffffff1660e01b81526004016102609291906112aa565b6020604051808303816000875af115801561027f573d6000803e3d6000fd5b505050506040513d601f19601f820116820180604052508101906102a3919061130b565b50505050565b6000807f000000000000000000000000000000000000000000000000000000000000000073ffffffffffffffffffffffffffffffffffffffff166370a08231846040518263ffffffff1660e01b81526004016103059190611192565b602060405180830381865afa158015610322573d6000803e3d6000fd5b505050506040513d601f19601f82011682018060405250810190610346919061127d565b91507f000000000000000000000000000000000000000000000000000000000000000073ffffffffffffffffffffffffffffffffffffffff166370a08231846040518263ffffffff1660e01b81526004016103a19190611192565b602060405180830381865afa1580156103be573d6000803e3d6000fd5b505050506040513d601f19601f820116820180604052508101906103e2919061127d565b9050915091565b60008054906101000a900473ffffffffffffffffffffffffffffffffffffffff1681565b60007f000000000000000000000000000000000000000000000000000000000000000073ffffffffffffffffffffffffffffffffffffffff1663dd62ed3e33306040518363ffffffff1660e01b815260040161046a929190611338565b602060405180830381865afa158015610487573d6000803e3d6000fd5b505050506040513d601f19601f820116820180604052508101906104ab919061127d565b905090565b600080600167ffffffffffffffff8111156104ce576104cd611361565b5b60405190808252806020026020018201604052801561050757816020015b6104f4611041565b8152602001906001900390816104ec5790505b509050600060405180604001604052807f000000000000000000000000000000000000000000000000000000000000000073ffffffffffffffffffffffffffffffffffffffff168152602001858152509050808260008151811061056e5761056d611390565b5b602002602001018190525060006040518060a00160405280876040516020016105979190611192565b60405160208183030381529060405281526020016040518060200160405280600081525081526020018481526020017f000000000000000000000000000000000000000000000000000000000000000073ffffffffffffffffffffffffffffffffffffffff16815260200161061a60405180602001604052806000815250610ca5565b815250905060007f000000000000000000000000000000000000000000000000000000000000000073ffffffffffffffffffffffffffffffffffffffff166320487ded600360149054906101000a900467ffffffffffffffff16846040518363ffffffff1660e01b81526004016106929291906115f9565b602060405180830381865afa1580156106af573d6000803e3d6000fd5b505050506040513d601f19601f820116820180604052508101906106d3919061127d565b90507f000000000000000000000000000000000000000000000000000000000000000073ffffffffffffffffffffffffffffffffffffffff166370a08231306040518263ffffffff1660e01b815260040161072e9190611192565b602060405180830381865afa15801561074b573d6000803e3d6000fd5b505050506040513d601f19601f8201168201806040525081019061076f919061127d565b81111561084e577f000000000000000000000000000000000000000000000000000000000000000073ffffffffffffffffffffffffffffffffffffffff166370a08231306040518263ffffffff1660e01b81526004016107cf9190611192565b602060405180830381865afa1580156107ec573d6000803e3d6000fd5b505050506040513d601f19601f82011682018060405250810190610810919061127d565b816040517f28fdcaa100000000000000000000000000000000000000000000000000000000815260040161084592919061115a565b60405180910390fd5b7f000000000000000000000000000000000000000000000000000000000000000073ffffffffffffffffffffffffffffffffffffffff1663095ea7b37f0000000000000000000000000000000000000000000000000000000000000000836040518363ffffffff1660e01b81526004016108c99291906112aa565b6020604051808303816000875af11580156108e8573d6000803e3d6000fd5b505050506040513d601f19601f8201168201806040525081019061090c919061130b565b507f000000000000000000000000000000000000000000000000000000000000000073ffffffffffffffffffffffffffffffffffffffff166370a08231336040518263ffffffff1660e01b81526004016109669190611192565b602060405180830381865afa158015610983573d6000803e3d6000fd5b505050506040513d601f19601f820116820180604052508101906109a7919061127d565b861115610a84577f000000000000000000000000000000000000000000000000000000000000000073ffffffffffffffffffffffffffffffffffffffff166370a08231336040518263ffffffff1660e01b8152600401610a079190611192565b602060405180830381865afa158015610a24573d6000803e3d6000fd5b505050506040513d601f19601f82011682018060405250810190610a48919061127d565b6040517f6212cf3b000000000000000000000000000000000000000000000000000000008152600401610a7b91906111ad565b60405180910390fd5b610ad13330887f000000000000000000000000000000000000000000000000000000000000000073ffffffffffffffffffffffffffffffffffffffff16610d24909392919063ffffffff16565b7f000000000000000000000000000000000000000000000000000000000000000073ffffffffffffffffffffffffffffffffffffffff1663095ea7b37f0000000000000000000000000000000000000000000000000000000000000000886040518363ffffffff1660e01b8152600401610b4c9291906112aa565b6020604051808303816000875af1158015610b6b573d6000803e3d6000fd5b505050506040513d601f19601f82011682018060405250810190610b8f919061130b565b507f000000000000000000000000000000000000000000000000000000000000000073ffffffffffffffffffffffffffffffffffffffff166396f4e9f9600360149054906101000a900467ffffffffffffffff16846040518363ffffffff1660e01b8152600401610c019291906115f9565b6020604051808303816000875af1158015610c20573d6000803e3d6000fd5b505050506040513d601f19601f82011682018060405250810190610c449190611655565b94507fb55a3d3f1ccd1c10f00aff03ad884028d98fa1d478fae03acecbf884ce8e8fbc85600360149054906101000a900467ffffffffffffffff16898985604051610c93959493929190611682565b60405180910390a15050505092915050565b60606397a657c960e01b82604051602401610cc091906116f1565b604051602081830303815290604052907bffffffffffffffffffffffffffffffffffffffffffffffffffffffff19166020820180517bffffffffffffffffffffffffffffffffffffffffffffffffffffffff83818316178352505050509050919050565b610da7846323b872dd60e01b858585604051602401610d459392919061170c565b604051602081830303815290604052907bffffffffffffffffffffffffffffffffffffffffffffffffffffffff19166020820180517bffffffffffffffffffffffffffffffffffffffffffffffffffffffff8381831617835250505050610dad565b50505050565b6000610e0f826040518060400160405280602081526020017f5361666545524332303a206c6f772d6c6576656c2063616c6c206661696c65648152508573ffffffffffffffffffffffffffffffffffffffff16610e749092919063ffffffff16565b9050600081511115610e6f5780806020019051810190610e2f919061130b565b610e6e576040517f08c379a0000000000000000000000000000000000000000000000000000000008152600401610e65906117c6565b60405180910390fd5b5b505050565b6060610e838484600085610e8c565b90509392505050565b606082471015610ed1576040517f08c379a0000000000000000000000000000000000000000000000000000000008152600401610ec890611858565b60405180910390fd5b6000808673ffffffffffffffffffffffffffffffffffffffff168587604051610efa91906118b4565b60006040518083038185875af1925050503d8060008114610f37576040519150601f19603f3d011682016040523d82523d6000602084013e610f3c565b606091505b5091509150610f4d87838387610f59565b92505050949350505050565b60608315610fbb576000835103610fb357610f7385610fce565b610fb2576040517f08c379a0000000000000000000000000000000000000000000000000000000008152600401610fa990611917565b60405180910390fd5b5b829050610fc6565b610fc58383610ff1565b5b949350505050565b6000808273ffffffffffffffffffffffffffffffffffffffff163b119050919050565b6000825111156110045781518083602001fd5b806040517f08c379a0000000000000000000000000000000000000000000000000000000008152600401611038919061197b565b60405180910390fd5b6040518060400160405280600073ffffffffffffffffffffffffffffffffffffffff168152602001600081525090565b600080fd5b600073ffffffffffffffffffffffffffffffffffffffff82169050919050565b60006110a182611076565b9050919050565b6110b181611096565b81146110bc57600080fd5b50565b6000813590506110ce816110a8565b92915050565b600080604083850312156110eb576110ea611071565b5b60006110f9858286016110bf565b925050602061110a858286016110bf565b9150509250929050565b60006020828403121561112a57611129611071565b5b6000611138848285016110bf565b91505092915050565b6000819050919050565b61115481611141565b82525050565b600060408201905061116f600083018561114b565b61117c602083018461114b565b9392505050565b61118c81611096565b82525050565b60006020820190506111a76000830184611183565b92915050565b60006020820190506111c2600083018461114b565b92915050565b6111d181611141565b81146111dc57600080fd5b50565b6000813590506111ee816111c8565b92915050565b6000806040838503121561120b5761120a611071565b5b6000611219858286016110bf565b925050602061122a858286016111df565b9150509250929050565b6000819050919050565b61124781611234565b82525050565b6000602082019050611262600083018461123e565b92915050565b600081519050611277816111c8565b92915050565b60006020828403121561129357611292611071565b5b60006112a184828501611268565b91505092915050565b60006040820190506112bf6000830185611183565b6112cc602083018461114b565b9392505050565b60008115159050919050565b6112e8816112d3565b81146112f357600080fd5b50565b600081519050611305816112df565b92915050565b60006020828403121561132157611320611071565b5b600061132f848285016112f6565b91505092915050565b600060408201905061134d6000830185611183565b61135a6020830184611183565b9392505050565b7f4e487b7100000000000000000000000000000000000000000000000000000000600052604160045260246000fd5b7f4e487b7100000000000000000000000000000000000000000000000000000000600052603260045260246000fd5b600067ffffffffffffffff82169050919050565b6113dc816113bf565b82525050565b600081519050919050565b600082825260208201905092915050565b60005b8381101561141c578082015181840152602081019050611401565b60008484015250505050565b6000601f19601f8301169050919050565b6000611444826113e2565b61144e81856113ed565b935061145e8185602086016113fe565b61146781611428565b840191505092915050565b600081519050919050565b600082825260208201905092915050565b6000819050602082019050919050565b6114a781611096565b82525050565b6114b681611141565b82525050565b6040820160008201516114d2600085018261149e565b5060208201516114e560208501826114ad565b50505050565b60006114f783836114bc565b60408301905092915050565b6000602082019050919050565b600061151b82611472565b611525818561147d565b93506115308361148e565b8060005b8381101561156157815161154888826114eb565b975061155383611503565b925050600181019050611534565b5085935050505092915050565b600060a083016000830151848203600086015261158b8282611439565b915050602083015184820360208601526115a58282611439565b915050604083015184820360408601526115bf8282611510565b91505060608301516115d4606086018261149e565b50608083015184820360808601526115ec8282611439565b9150508091505092915050565b600060408201905061160e60008301856113d3565b8181036020830152611620818461156e565b90509392505050565b61163281611234565b811461163d57600080fd5b50565b60008151905061164f81611629565b92915050565b60006020828403121561166b5761166a611071565b5b600061167984828501611640565b91505092915050565b600060a082019050611697600083018861123e565b6116a460208301876113d3565b6116b16040830186611183565b6116be606083018561114b565b6116cb608083018461114b565b9695505050505050565b6020820160008201516116eb60008501826114ad565b50505050565b600060208201905061170660008301846116d5565b92915050565b60006060820190506117216000830186611183565b61172e6020830185611183565b61173b604083018461114b565b949350505050565b600082825260208201905092915050565b7f5361666545524332303a204552433230206f7065726174696f6e20646964206e60008201527f6f74207375636365656400000000000000000000000000000000000000000000602082015250565b60006117b0602a83611743565b91506117bb82611754565b604082019050919050565b600060208201905081810360008301526117df816117a3565b9050919050565b7f416464726573733a20696e73756666696369656e742062616c616e636520666f60008201527f722063616c6c0000000000000000000000000000000000000000000000000000602082015250565b6000611842602683611743565b915061184d826117e6565b604082019050919050565b6000602082019050818103600083015261187181611835565b9050919050565b600081905092915050565b600061188e826113e2565b6118988185611878565b93506118a88185602086016113fe565b80840191505092915050565b60006118c08284611883565b915081905092915050565b7f416464726573733a2063616c6c20746f206e6f6e2d636f6e7472616374000000600082015250565b6000611901601d83611743565b915061190c826118cb565b602082019050919050565b60006020820190508181036000830152611930816118f4565b9050919050565b600081519050919050565b600061194d82611937565b6119578185611743565b93506119678185602086016113fe565b61197081611428565b840191505092915050565b600060208201905081810360008301526119958184611942565b90509291505056fea2646970667358221220c652c2fd448a6f2c990c8cb168d830f307aa234da34c4bc2ad337f432e78e36c64736f6c63430008130033",
					"opcodes": "PUSH1 0xE0 PUSH1 0x40 MSTORE PUSH20 0xF694E193200268F9A4868E4AA017A0118C9A8177 PUSH1 0x1 PUSH1 0x0 PUSH2 0x100 EXP DUP2 SLOAD DUP2 PUSH20 0xFFFFFFFFFFFFFFFFFFFFFFFFFFFFFFFFFFFFFFFF MUL NOT AND SWAP1 DUP4 PUSH20 0xFFFFFFFFFFFFFFFFFFFFFFFFFFFFFFFFFFFFFFFF AND MUL OR SWAP1 SSTORE POP PUSH20 0xB9D5D9136855F6FEC3C0993FEE6E9CE8A297846 PUSH1 0x2 PUSH1 0x0 PUSH2 0x100 EXP DUP2 SLOAD DUP2 PUSH20 0xFFFFFFFFFFFFFFFFFFFFFFFFFFFFFFFFFFFFFFFF MUL NOT AND SWAP1 DUP4 PUSH20 0xFFFFFFFFFFFFFFFFFFFFFFFFFFFFFFFFFFFFFFFF AND MUL OR SWAP1 SSTORE POP PUSH20 0x5425890298AED601595A70AB815C96711A31BC65 PUSH1 0x3 PUSH1 0x0 PUSH2 0x100 EXP DUP2 SLOAD DUP2 PUSH20 0xFFFFFFFFFFFFFFFFFFFFFFFFFFFFFFFFFFFFFFFF MUL NOT AND SWAP1 DUP4 PUSH20 0xFFFFFFFFFFFFFFFFFFFFFFFFFFFFFFFFFFFFFFFF AND MUL OR SWAP1 SSTORE POP PUSH8 0xDE41BA4FC9D91AD9 PUSH1 0x3 PUSH1 0x14 PUSH2 0x100 EXP DUP2 SLOAD DUP2 PUSH8 0xFFFFFFFFFFFFFFFF MUL NOT AND SWAP1 DUP4 PUSH8 0xFFFFFFFFFFFFFFFF AND MUL OR SWAP1 SSTORE POP CALLVALUE DUP1 ISZERO PUSH2 0x140 JUMPI PUSH1 0x0 DUP1 REVERT JUMPDEST POP CALLER PUSH1 0x0 DUP1 PUSH2 0x100 EXP DUP2 SLOAD DUP2 PUSH20 0xFFFFFFFFFFFFFFFFFFFFFFFFFFFFFFFFFFFFFFFF MUL NOT AND SWAP1 DUP4 PUSH20 0xFFFFFFFFFFFFFFFFFFFFFFFFFFFFFFFFFFFFFFFF AND MUL OR SWAP1 SSTORE POP PUSH1 0x1 PUSH1 0x0 SWAP1 SLOAD SWAP1 PUSH2 0x100 EXP SWAP1 DIV PUSH20 0xFFFFFFFFFFFFFFFFFFFFFFFFFFFFFFFFFFFFFFFF AND PUSH20 0xFFFFFFFFFFFFFFFFFFFFFFFFFFFFFFFFFFFFFFFF AND PUSH1 0x80 DUP2 PUSH20 0xFFFFFFFFFFFFFFFFFFFFFFFFFFFFFFFFFFFFFFFF AND DUP2 MSTORE POP POP PUSH1 0x2 PUSH1 0x0 SWAP1 SLOAD SWAP1 PUSH2 0x100 EXP SWAP1 DIV PUSH20 0xFFFFFFFFFFFFFFFFFFFFFFFFFFFFFFFFFFFFFFFF AND PUSH20 0xFFFFFFFFFFFFFFFFFFFFFFFFFFFFFFFFFFFFFFFF AND PUSH1 0xA0 DUP2 PUSH20 0xFFFFFFFFFFFFFFFFFFFFFFFFFFFFFFFFFFFFFFFF AND DUP2 MSTORE POP POP PUSH1 0x3 PUSH1 0x0 SWAP1 SLOAD SWAP1 PUSH2 0x100 EXP SWAP1 DIV PUSH20 0xFFFFFFFFFFFFFFFFFFFFFFFFFFFFFFFFFFFFFFFF AND PUSH20 0xFFFFFFFFFFFFFFFFFFFFFFFFFFFFFFFFFFFFFFFF AND PUSH1 0xC0 DUP2 PUSH20 0xFFFFFFFFFFFFFFFFFFFFFFFFFFFFFFFFFFFFFFFF AND DUP2 MSTORE POP POP PUSH1 0x80 MLOAD PUSH1 0xA0 MLOAD PUSH1 0xC0 MLOAD PUSH2 0x19D3 PUSH2 0x30D PUSH1 0x0 CODECOPY PUSH1 0x0 DUP2 DUP2 PUSH2 0x34A ADD MSTORE DUP2 DUP2 PUSH2 0x411 ADD MSTORE DUP2 DUP2 PUSH2 0x519 ADD MSTORE DUP2 DUP2 PUSH2 0x90F ADD MSTORE DUP2 DUP2 PUSH2 0x9B0 ADD MSTORE DUP2 DUP2 PUSH2 0xA8C ADD MSTORE PUSH2 0xAD3 ADD MSTORE PUSH1 0x0 DUP2 DUP2 PUSH2 0x2AE ADD MSTORE DUP2 DUP2 PUSH2 0x5C8 ADD MSTORE DUP2 DUP2 PUSH2 0x6D7 ADD MSTORE DUP2 DUP2 PUSH2 0x778 ADD MSTORE PUSH2 0x850 ADD MSTORE PUSH1 0x0 DUP2 DUP2 PUSH2 0x623 ADD MSTORE DUP2 DUP2 PUSH2 0x88C ADD MSTORE DUP2 DUP2 PUSH2 0xB0F ADD MSTORE PUSH2 0xB92 ADD MSTORE PUSH2 0x19D3 PUSH1 0x0 RETURN INVALID PUSH1 0x80 PUSH1 0x40 MSTORE CALLVALUE DUP1 ISZERO PUSH2 0x10 JUMPI PUSH1 0x0 DUP1 REVERT JUMPDEST POP PUSH1 0x4 CALLDATASIZE LT PUSH2 0x57 JUMPI PUSH1 0x0 CALLDATALOAD PUSH1 0xE0 SHR DUP1 PUSH4 0x3AEAC4E1 EQ PUSH2 0x5C JUMPI DUP1 PUSH4 0x6392A51F EQ PUSH2 0x78 JUMPI DUP1 PUSH4 0x8DA5CB5B EQ PUSH2 0xA9 JUMPI DUP1 PUSH4 0xED3BD5BC EQ PUSH2 0xC7 JUMPI DUP1 PUSH4 0xFE2C5D36 EQ PUSH2 0xE5 JUMPI JUMPDEST PUSH1 0x0 DUP1 REVERT JUMPDEST PUSH2 0x76 PUSH1 0x4 DUP1 CALLDATASIZE SUB DUP2 ADD SWAP1 PUSH2 0x71 SWAP2 SWAP1 PUSH2 0x10D4 JUMP JUMPDEST PUSH2 0x115 JUMP JUMPDEST STOP JUMPDEST PUSH2 0x92 PUSH1 0x4 DUP1 CALLDATASIZE SUB DUP2 ADD SWAP1 PUSH2 0x8D SWAP2 SWAP1 PUSH2 0x1114 JUMP JUMPDEST PUSH2 0x2A9 JUMP JUMPDEST PUSH1 0x40 MLOAD PUSH2 0xA0 SWAP3 SWAP2 SWAP1 PUSH2 0x115A JUMP JUMPDEST PUSH1 0x40 MLOAD DUP1 SWAP2 SUB SWAP1 RETURN JUMPDEST PUSH2 0xB1 PUSH2 0x3E9 JUMP JUMPDEST PUSH1 0x40 MLOAD PUSH2 0xBE SWAP2 SWAP1 PUSH2 0x1192 JUMP JUMPDEST PUSH1 0x40 MLOAD DUP1 SWAP2 SUB SWAP1 RETURN JUMPDEST PUSH2 0xCF PUSH2 0x40D JUMP JUMPDEST PUSH1 0x40 MLOAD PUSH2 0xDC SWAP2 SWAP1 PUSH2 0x11AD JUMP JUMPDEST PUSH1 0x40 MLOAD DUP1 SWAP2 SUB SWAP1 RETURN JUMPDEST PUSH2 0xFF PUSH1 0x4 DUP1 CALLDATASIZE SUB DUP2 ADD SWAP1 PUSH2 0xFA SWAP2 SWAP1 PUSH2 0x11F4 JUMP JUMPDEST PUSH2 0x4B0 JUMP JUMPDEST PUSH1 0x40 MLOAD PUSH2 0x10C SWAP2 SWAP1 PUSH2 0x124D JUMP JUMPDEST PUSH1 0x40 MLOAD DUP1 SWAP2 SUB SWAP1 RETURN JUMPDEST PUSH1 0x0 DUP1 SLOAD SWAP1 PUSH2 0x100 EXP SWAP1 DIV PUSH20 0xFFFFFFFFFFFFFFFFFFFFFFFFFFFFFFFFFFFFFFFF AND PUSH20 0xFFFFFFFFFFFFFFFFFFFFFFFFFFFFFFFFFFFFFFFF AND CALLER PUSH20 0xFFFFFFFFFFFFFFFFFFFFFFFFFFFFFFFFFFFFFFFF AND EQ PUSH2 0x16D JUMPI PUSH1 0x0 DUP1 REVERT JUMPDEST PUSH1 0x0 DUP2 PUSH20 0xFFFFFFFFFFFFFFFFFFFFFFFFFFFFFFFFFFFFFFFF AND PUSH4 0x70A08231 ADDRESS PUSH1 0x40 MLOAD DUP3 PUSH4 0xFFFFFFFF AND PUSH1 0xE0 SHL DUP2 MSTORE PUSH1 0x4 ADD PUSH2 0x1A8 SWAP2 SWAP1 PUSH2 0x1192 JUMP JUMPDEST PUSH1 0x20 PUSH1 0x40 MLOAD DUP1 DUP4 SUB DUP2 DUP7 GAS STATICCALL ISZERO DUP1 ISZERO PUSH2 0x1C5 JUMPI RETURNDATASIZE PUSH1 0x0 DUP1 RETURNDATACOPY RETURNDATASIZE PUSH1 0x0 REVERT JUMPDEST POP POP POP POP PUSH1 0x40 MLOAD RETURNDATASIZE PUSH1 0x1F NOT PUSH1 0x1F DUP3 ADD AND DUP3 ADD DUP1 PUSH1 0x40 MSTORE POP DUP2 ADD SWAP1 PUSH2 0x1E9 SWAP2 SWAP1 PUSH2 0x127D JUMP JUMPDEST SWAP1 POP PUSH1 0x0 DUP2 SUB PUSH2 0x225 JUMPI PUSH1 0x40 MLOAD PUSH32 0xD0D04F6000000000000000000000000000000000000000000000000000000000 DUP2 MSTORE PUSH1 0x4 ADD PUSH1 0x40 MLOAD DUP1 SWAP2 SUB SWAP1 REVERT JUMPDEST DUP2 PUSH20 0xFFFFFFFFFFFFFFFFFFFFFFFFFFFFFFFFFFFFFFFF AND PUSH4 0xA9059CBB DUP5 DUP4 PUSH1 0x40 MLOAD DUP4 PUSH4 0xFFFFFFFF AND PUSH1 0xE0 SHL DUP2 MSTORE PUSH1 0x4 ADD PUSH2 0x260 SWAP3 SWAP2 SWAP1 PUSH2 0x12AA JUMP JUMPDEST PUSH1 0x20 PUSH1 0x40 MLOAD DUP1 DUP4 SUB DUP2 PUSH1 0x0 DUP8 GAS CALL ISZERO DUP1 ISZERO PUSH2 0x27F JUMPI RETURNDATASIZE PUSH1 0x0 DUP1 RETURNDATACOPY RETURNDATASIZE PUSH1 0x0 REVERT JUMPDEST POP POP POP POP PUSH1 0x40 MLOAD RETURNDATASIZE PUSH1 0x1F NOT PUSH1 0x1F DUP3 ADD AND DUP3 ADD DUP1 PUSH1 0x40 MSTORE POP DUP2 ADD SWAP1 PUSH2 0x2A3 SWAP2 SWAP1 PUSH2 0x130B JUMP JUMPDEST POP POP POP POP JUMP JUMPDEST PUSH1 0x0 DUP1 PUSH32 0x0 PUSH20 0xFFFFFFFFFFFFFFFFFFFFFFFFFFFFFFFFFFFFFFFF AND PUSH4 0x70A08231 DUP5 PUSH1 0x40 MLOAD DUP3 PUSH4 0xFFFFFFFF AND PUSH1 0xE0 SHL DUP2 MSTORE PUSH1 0x4 ADD PUSH2 0x305 SWAP2 SWAP1 PUSH2 0x1192 JUMP JUMPDEST PUSH1 0x20 PUSH1 0x40 MLOAD DUP1 DUP4 SUB DUP2 DUP7 GAS STATICCALL ISZERO DUP1 ISZERO PUSH2 0x322 JUMPI RETURNDATASIZE PUSH1 0x0 DUP1 RETURNDATACOPY RETURNDATASIZE PUSH1 0x0 REVERT JUMPDEST POP POP POP POP PUSH1 0x40 MLOAD RETURNDATASIZE PUSH1 0x1F NOT PUSH1 0x1F DUP3 ADD AND DUP3 ADD DUP1 PUSH1 0x40 MSTORE POP DUP2 ADD SWAP1 PUSH2 0x346 SWAP2 SWAP1 PUSH2 0x127D JUMP JUMPDEST SWAP2 POP PUSH32 0x0 PUSH20 0xFFFFFFFFFFFFFFFFFFFFFFFFFFFFFFFFFFFFFFFF AND PUSH4 0x70A08231 DUP5 PUSH1 0x40 MLOAD DUP3 PUSH4 0xFFFFFFFF AND PUSH1 0xE0 SHL DUP2 MSTORE PUSH1 0x4 ADD PUSH2 0x3A1 SWAP2 SWAP1 PUSH2 0x1192 JUMP JUMPDEST PUSH1 0x20 PUSH1 0x40 MLOAD DUP1 DUP4 SUB DUP2 DUP7 GAS STATICCALL ISZERO DUP1 ISZERO PUSH2 0x3BE JUMPI RETURNDATASIZE PUSH1 0x0 DUP1 RETURNDATACOPY RETURNDATASIZE PUSH1 0x0 REVERT JUMPDEST POP POP POP POP PUSH1 0x40 MLOAD RETURNDATASIZE PUSH1 0x1F NOT PUSH1 0x1F DUP3 ADD AND DUP3 ADD DUP1 PUSH1 0x40 MSTORE POP DUP2 ADD SWAP1 PUSH2 0x3E2 SWAP2 SWAP1 PUSH2 0x127D JUMP JUMPDEST SWAP1 POP SWAP2 POP SWAP2 JUMP JUMPDEST PUSH1 0x0 DUP1 SLOAD SWAP1 PUSH2 0x100 EXP SWAP1 DIV PUSH20 0xFFFFFFFFFFFFFFFFFFFFFFFFFFFFFFFFFFFFFFFF AND DUP2 JUMP JUMPDEST PUSH1 0x0 PUSH32 0x0 PUSH20 0xFFFFFFFFFFFFFFFFFFFFFFFFFFFFFFFFFFFFFFFF AND PUSH4 0xDD62ED3E CALLER ADDRESS PUSH1 0x40 MLOAD DUP4 PUSH4 0xFFFFFFFF AND PUSH1 0xE0 SHL DUP2 MSTORE PUSH1 0x4 ADD PUSH2 0x46A SWAP3 SWAP2 SWAP1 PUSH2 0x1338 JUMP JUMPDEST PUSH1 0x20 PUSH1 0x40 MLOAD DUP1 DUP4 SUB DUP2 DUP7 GAS STATICCALL ISZERO DUP1 ISZERO PUSH2 0x487 JUMPI RETURNDATASIZE PUSH1 0x0 DUP1 RETURNDATACOPY RETURNDATASIZE PUSH1 0x0 REVERT JUMPDEST POP POP POP POP PUSH1 0x40 MLOAD RETURNDATASIZE PUSH1 0x1F NOT PUSH1 0x1F DUP3 ADD AND DUP3 ADD DUP1 PUSH1 0x40 MSTORE POP DUP2 ADD SWAP1 PUSH2 0x4AB SWAP2 SWAP1 PUSH2 0x127D JUMP JUMPDEST SWAP1 POP SWAP1 JUMP JUMPDEST PUSH1 0x0 DUP1 PUSH1 0x1 PUSH8 0xFFFFFFFFFFFFFFFF DUP2 GT ISZERO PUSH2 0x4CE JUMPI PUSH2 0x4CD PUSH2 0x1361 JUMP JUMPDEST JUMPDEST PUSH1 0x40 MLOAD SWAP1 DUP1 DUP3 MSTORE DUP1 PUSH1 0x20 MUL PUSH1 0x20 ADD DUP3 ADD PUSH1 0x40 MSTORE DUP1 ISZERO PUSH2 0x507 JUMPI DUP2 PUSH1 0x20 ADD JUMPDEST PUSH2 0x4F4 PUSH2 0x1041 JUMP JUMPDEST DUP2 MSTORE PUSH1 0x20 ADD SWAP1 PUSH1 0x1 SWAP1 SUB SWAP1 DUP2 PUSH2 0x4EC JUMPI SWAP1 POP JUMPDEST POP SWAP1 POP PUSH1 0x0 PUSH1 0x40 MLOAD DUP1 PUSH1 0x40 ADD PUSH1 0x40 MSTORE DUP1 PUSH32 0x0 PUSH20 0xFFFFFFFFFFFFFFFFFFFFFFFFFFFFFFFFFFFFFFFF AND DUP2 MSTORE PUSH1 0x20 ADD DUP6 DUP2 MSTORE POP SWAP1 POP DUP1 DUP3 PUSH1 0x0 DUP2 MLOAD DUP2 LT PUSH2 0x56E JUMPI PUSH2 0x56D PUSH2 0x1390 JUMP JUMPDEST JUMPDEST PUSH1 0x20 MUL PUSH1 0x20 ADD ADD DUP2 SWAP1 MSTORE POP PUSH1 0x0 PUSH1 0x40 MLOAD DUP1 PUSH1 0xA0 ADD PUSH1 0x40 MSTORE DUP1 DUP8 PUSH1 0x40 MLOAD PUSH1 0x20 ADD PUSH2 0x597 SWAP2 SWAP1 PUSH2 0x1192 JUMP JUMPDEST PUSH1 0x40 MLOAD PUSH1 0x20 DUP2 DUP4 SUB SUB DUP2 MSTORE SWAP1 PUSH1 0x40 MSTORE DUP2 MSTORE PUSH1 0x20 ADD PUSH1 0x40 MLOAD DUP1 PUSH1 0x20 ADD PUSH1 0x40 MSTORE DUP1 PUSH1 0x0 DUP2 MSTORE POP DUP2 MSTORE PUSH1 0x20 ADD DUP5 DUP2 MSTORE PUSH1 0x20 ADD PUSH32 0x0 PUSH20 0xFFFFFFFFFFFFFFFFFFFFFFFFFFFFFFFFFFFFFFFF AND DUP2 MSTORE PUSH1 0x20 ADD PUSH2 0x61A PUSH1 0x40 MLOAD DUP1 PUSH1 0x20 ADD PUSH1 0x40 MSTORE DUP1 PUSH1 0x0 DUP2 MSTORE POP PUSH2 0xCA5 JUMP JUMPDEST DUP2 MSTORE POP SWAP1 POP PUSH1 0x0 PUSH32 0x0 PUSH20 0xFFFFFFFFFFFFFFFFFFFFFFFFFFFFFFFFFFFFFFFF AND PUSH4 0x20487DED PUSH1 0x3 PUSH1 0x14 SWAP1 SLOAD SWAP1 PUSH2 0x100 EXP SWAP1 DIV PUSH8 0xFFFFFFFFFFFFFFFF AND DUP5 PUSH1 0x40 MLOAD DUP4 PUSH4 0xFFFFFFFF AND PUSH1 0xE0 SHL DUP2 MSTORE PUSH1 0x4 ADD PUSH2 0x692 SWAP3 SWAP2 SWAP1 PUSH2 0x15F9 JUMP JUMPDEST PUSH1 0x20 PUSH1 0x40 MLOAD DUP1 DUP4 SUB DUP2 DUP7 GAS STATICCALL ISZERO DUP1 ISZERO PUSH2 0x6AF JUMPI RETURNDATASIZE PUSH1 0x0 DUP1 RETURNDATACOPY RETURNDATASIZE PUSH1 0x0 REVERT JUMPDEST POP POP POP POP PUSH1 0x40 MLOAD RETURNDATASIZE PUSH1 0x1F NOT PUSH1 0x1F DUP3 ADD AND DUP3 ADD DUP1 PUSH1 0x40 MSTORE POP DUP2 ADD SWAP1 PUSH2 0x6D3 SWAP2 SWAP1 PUSH2 0x127D JUMP JUMPDEST SWAP1 POP PUSH32 0x0 PUSH20 0xFFFFFFFFFFFFFFFFFFFFFFFFFFFFFFFFFFFFFFFF AND PUSH4 0x70A08231 ADDRESS PUSH1 0x40 MLOAD DUP3 PUSH4 0xFFFFFFFF AND PUSH1 0xE0 SHL DUP2 MSTORE PUSH1 0x4 ADD PUSH2 0x72E SWAP2 SWAP1 PUSH2 0x1192 JUMP JUMPDEST PUSH1 0x20 PUSH1 0x40 MLOAD DUP1 DUP4 SUB DUP2 DUP7 GAS STATICCALL ISZERO DUP1 ISZERO PUSH2 0x74B JUMPI RETURNDATASIZE PUSH1 0x0 DUP1 RETURNDATACOPY RETURNDATASIZE PUSH1 0x0 REVERT JUMPDEST POP POP POP POP PUSH1 0x40 MLOAD RETURNDATASIZE PUSH1 0x1F NOT PUSH1 0x1F DUP3 ADD AND DUP3 ADD DUP1 PUSH1 0x40 MSTORE POP DUP2 ADD SWAP1 PUSH2 0x76F SWAP2 SWAP1 PUSH2 0x127D JUMP JUMPDEST DUP2 GT ISZERO PUSH2 0x84E JUMPI PUSH32 0x0 PUSH20 0xFFFFFFFFFFFFFFFFFFFFFFFFFFFFFFFFFFFFFFFF AND PUSH4 0x70A08231 ADDRESS PUSH1 0x40 MLOAD DUP3 PUSH4 0xFFFFFFFF AND PUSH1 0xE0 SHL DUP2 MSTORE PUSH1 0x4 ADD PUSH2 0x7CF SWAP2 SWAP1 PUSH2 0x1192 JUMP JUMPDEST PUSH1 0x20 PUSH1 0x40 MLOAD DUP1 DUP4 SUB DUP2 DUP7 GAS STATICCALL ISZERO DUP1 ISZERO PUSH2 0x7EC JUMPI RETURNDATASIZE PUSH1 0x0 DUP1 RETURNDATACOPY RETURNDATASIZE PUSH1 0x0 REVERT JUMPDEST POP POP POP POP PUSH1 0x40 MLOAD RETURNDATASIZE PUSH1 0x1F NOT PUSH1 0x1F DUP3 ADD AND DUP3 ADD DUP1 PUSH1 0x40 MSTORE POP DUP2 ADD SWAP1 PUSH2 0x810 SWAP2 SWAP1 PUSH2 0x127D JUMP JUMPDEST DUP2 PUSH1 0x40 MLOAD PUSH32 0x28FDCAA100000000000000000000000000000000000000000000000000000000 DUP2 MSTORE PUSH1 0x4 ADD PUSH2 0x845 SWAP3 SWAP2 SWAP1 PUSH2 0x115A JUMP JUMPDEST PUSH1 0x40 MLOAD DUP1 SWAP2 SUB SWAP1 REVERT JUMPDEST PUSH32 0x0 PUSH20 0xFFFFFFFFFFFFFFFFFFFFFFFFFFFFFFFFFFFFFFFF AND PUSH4 0x95EA7B3 PUSH32 0x0 DUP4 PUSH1 0x40 MLOAD DUP4 PUSH4 0xFFFFFFFF AND PUSH1 0xE0 SHL DUP2 MSTORE PUSH1 0x4 ADD PUSH2 0x8C9 SWAP3 SWAP2 SWAP1 PUSH2 0x12AA JUMP JUMPDEST PUSH1 0x20 PUSH1 0x40 MLOAD DUP1 DUP4 SUB DUP2 PUSH1 0x0 DUP8 GAS CALL ISZERO DUP1 ISZERO PUSH2 0x8E8 JUMPI RETURNDATASIZE PUSH1 0x0 DUP1 RETURNDATACOPY RETURNDATASIZE PUSH1 0x0 REVERT JUMPDEST POP POP POP POP PUSH1 0x40 MLOAD RETURNDATASIZE PUSH1 0x1F NOT PUSH1 0x1F DUP3 ADD AND DUP3 ADD DUP1 PUSH1 0x40 MSTORE POP DUP2 ADD SWAP1 PUSH2 0x90C SWAP2 SWAP1 PUSH2 0x130B JUMP JUMPDEST POP PUSH32 0x0 PUSH20 0xFFFFFFFFFFFFFFFFFFFFFFFFFFFFFFFFFFFFFFFF AND PUSH4 0x70A08231 CALLER PUSH1 0x40 MLOAD DUP3 PUSH4 0xFFFFFFFF AND PUSH1 0xE0 SHL DUP2 MSTORE PUSH1 0x4 ADD PUSH2 0x966 SWAP2 SWAP1 PUSH2 0x1192 JUMP JUMPDEST PUSH1 0x20 PUSH1 0x40 MLOAD DUP1 DUP4 SUB DUP2 DUP7 GAS STATICCALL ISZERO DUP1 ISZERO PUSH2 0x983 JUMPI RETURNDATASIZE PUSH1 0x0 DUP1 RETURNDATACOPY RETURNDATASIZE PUSH1 0x0 REVERT JUMPDEST POP POP POP POP PUSH1 0x40 MLOAD RETURNDATASIZE PUSH1 0x1F NOT PUSH1 0x1F DUP3 ADD AND DUP3 ADD DUP1 PUSH1 0x40 MSTORE POP DUP2 ADD SWAP1 PUSH2 0x9A7 SWAP2 SWAP1 PUSH2 0x127D JUMP JUMPDEST DUP7 GT ISZERO PUSH2 0xA84 JUMPI PUSH32 0x0 PUSH20 0xFFFFFFFFFFFFFFFFFFFFFFFFFFFFFFFFFFFFFFFF AND PUSH4 0x70A08231 CALLER PUSH1 0x40 MLOAD DUP3 PUSH4 0xFFFFFFFF AND PUSH1 0xE0 SHL DUP2 MSTORE PUSH1 0x4 ADD PUSH2 0xA07 SWAP2 SWAP1 PUSH2 0x1192 JUMP JUMPDEST PUSH1 0x20 PUSH1 0x40 MLOAD DUP1 DUP4 SUB DUP2 DUP7 GAS STATICCALL ISZERO DUP1 ISZERO PUSH2 0xA24 JUMPI RETURNDATASIZE PUSH1 0x0 DUP1 RETURNDATACOPY RETURNDATASIZE PUSH1 0x0 REVERT JUMPDEST POP POP POP POP PUSH1 0x40 MLOAD RETURNDATASIZE PUSH1 0x1F NOT PUSH1 0x1F DUP3 ADD AND DUP3 ADD DUP1 PUSH1 0x40 MSTORE POP DUP2 ADD SWAP1 PUSH2 0xA48 SWAP2 SWAP1 PUSH2 0x127D JUMP JUMPDEST PUSH1 0x40 MLOAD PUSH32 0x6212CF3B00000000000000000000000000000000000000000000000000000000 DUP2 MSTORE PUSH1 0x4 ADD PUSH2 0xA7B SWAP2 SWAP1 PUSH2 0x11AD JUMP JUMPDEST PUSH1 0x40 MLOAD DUP1 SWAP2 SUB SWAP1 REVERT JUMPDEST PUSH2 0xAD1 CALLER ADDRESS DUP9 PUSH32 0x0 PUSH20 0xFFFFFFFFFFFFFFFFFFFFFFFFFFFFFFFFFFFFFFFF AND PUSH2 0xD24 SWAP1 SWAP4 SWAP3 SWAP2 SWAP1 PUSH4 0xFFFFFFFF AND JUMP JUMPDEST PUSH32 0x0 PUSH20 0xFFFFFFFFFFFFFFFFFFFFFFFFFFFFFFFFFFFFFFFF AND PUSH4 0x95EA7B3 PUSH32 0x0 DUP9 PUSH1 0x40 MLOAD DUP4 PUSH4 0xFFFFFFFF AND PUSH1 0xE0 SHL DUP2 MSTORE PUSH1 0x4 ADD PUSH2 0xB4C SWAP3 SWAP2 SWAP1 PUSH2 0x12AA JUMP JUMPDEST PUSH1 0x20 PUSH1 0x40 MLOAD DUP1 DUP4 SUB DUP2 PUSH1 0x0 DUP8 GAS CALL ISZERO DUP1 ISZERO PUSH2 0xB6B JUMPI RETURNDATASIZE PUSH1 0x0 DUP1 RETURNDATACOPY RETURNDATASIZE PUSH1 0x0 REVERT JUMPDEST POP POP POP POP PUSH1 0x40 MLOAD RETURNDATASIZE PUSH1 0x1F NOT PUSH1 0x1F DUP3 ADD AND DUP3 ADD DUP1 PUSH1 0x40 MSTORE POP DUP2 ADD SWAP1 PUSH2 0xB8F SWAP2 SWAP1 PUSH2 0x130B JUMP JUMPDEST POP PUSH32 0x0 PUSH20 0xFFFFFFFFFFFFFFFFFFFFFFFFFFFFFFFFFFFFFFFF AND PUSH4 0x96F4E9F9 PUSH1 0x3 PUSH1 0x14 SWAP1 SLOAD SWAP1 PUSH2 0x100 EXP SWAP1 DIV PUSH8 0xFFFFFFFFFFFFFFFF AND DUP5 PUSH1 0x40 MLOAD DUP4 PUSH4 0xFFFFFFFF AND PUSH1 0xE0 SHL DUP2 MSTORE PUSH1 0x4 ADD PUSH2 0xC01 SWAP3 SWAP2 SWAP1 PUSH2 0x15F9 JUMP JUMPDEST PUSH1 0x20 PUSH1 0x40 MLOAD DUP1 DUP4 SUB DUP2 PUSH1 0x0 DUP8 GAS CALL ISZERO DUP1 ISZERO PUSH2 0xC20 JUMPI RETURNDATASIZE PUSH1 0x0 DUP1 RETURNDATACOPY RETURNDATASIZE PUSH1 0x0 REVERT JUMPDEST POP POP POP POP PUSH1 0x40 MLOAD RETURNDATASIZE PUSH1 0x1F NOT PUSH1 0x1F DUP3 ADD AND DUP3 ADD DUP1 PUSH1 0x40 MSTORE POP DUP2 ADD SWAP1 PUSH2 0xC44 SWAP2 SWAP1 PUSH2 0x1655 JUMP JUMPDEST SWAP5 POP PUSH32 0xB55A3D3F1CCD1C10F00AFF03AD884028D98FA1D478FAE03ACECBF884CE8E8FBC DUP6 PUSH1 0x3 PUSH1 0x14 SWAP1 SLOAD SWAP1 PUSH2 0x100 EXP SWAP1 DIV PUSH8 0xFFFFFFFFFFFFFFFF AND DUP10 DUP10 DUP6 PUSH1 0x40 MLOAD PUSH2 0xC93 SWAP6 SWAP5 SWAP4 SWAP3 SWAP2 SWAP1 PUSH2 0x1682 JUMP JUMPDEST PUSH1 0x40 MLOAD DUP1 SWAP2 SUB SWAP1 LOG1 POP POP POP POP SWAP3 SWAP2 POP POP JUMP JUMPDEST PUSH1 0x60 PUSH4 0x97A657C9 PUSH1 0xE0 SHL DUP3 PUSH1 0x40 MLOAD PUSH1 0x24 ADD PUSH2 0xCC0 SWAP2 SWAP1 PUSH2 0x16F1 JUMP JUMPDEST PUSH1 0x40 MLOAD PUSH1 0x20 DUP2 DUP4 SUB SUB DUP2 MSTORE SWAP1 PUSH1 0x40 MSTORE SWAP1 PUSH28 0xFFFFFFFFFFFFFFFFFFFFFFFFFFFFFFFFFFFFFFFFFFFFFFFFFFFFFFFF NOT AND PUSH1 0x20 DUP3 ADD DUP1 MLOAD PUSH28 0xFFFFFFFFFFFFFFFFFFFFFFFFFFFFFFFFFFFFFFFFFFFFFFFFFFFFFFFF DUP4 DUP2 DUP4 AND OR DUP4 MSTORE POP POP POP POP SWAP1 POP SWAP2 SWAP1 POP JUMP JUMPDEST PUSH2 0xDA7 DUP5 PUSH4 0x23B872DD PUSH1 0xE0 SHL DUP6 DUP6 DUP6 PUSH1 0x40 MLOAD PUSH1 0x24 ADD PUSH2 0xD45 SWAP4 SWAP3 SWAP2 SWAP1 PUSH2 0x170C JUMP JUMPDEST PUSH1 0x40 MLOAD PUSH1 0x20 DUP2 DUP4 SUB SUB DUP2 MSTORE SWAP1 PUSH1 0x40 MSTORE SWAP1 PUSH28 0xFFFFFFFFFFFFFFFFFFFFFFFFFFFFFFFFFFFFFFFFFFFFFFFFFFFFFFFF NOT AND PUSH1 0x20 DUP3 ADD DUP1 MLOAD PUSH28 0xFFFFFFFFFFFFFFFFFFFFFFFFFFFFFFFFFFFFFFFFFFFFFFFFFFFFFFFF DUP4 DUP2 DUP4 AND OR DUP4 MSTORE POP POP POP POP PUSH2 0xDAD JUMP JUMPDEST POP POP POP POP JUMP JUMPDEST PUSH1 0x0 PUSH2 0xE0F DUP3 PUSH1 0x40 MLOAD DUP1 PUSH1 0x40 ADD PUSH1 0x40 MSTORE DUP1 PUSH1 0x20 DUP2 MSTORE PUSH1 0x20 ADD PUSH32 0x5361666545524332303A206C6F772D6C6576656C2063616C6C206661696C6564 DUP2 MSTORE POP DUP6 PUSH20 0xFFFFFFFFFFFFFFFFFFFFFFFFFFFFFFFFFFFFFFFF AND PUSH2 0xE74 SWAP1 SWAP3 SWAP2 SWAP1 PUSH4 0xFFFFFFFF AND JUMP JUMPDEST SWAP1 POP PUSH1 0x0 DUP2 MLOAD GT ISZERO PUSH2 0xE6F JUMPI DUP1 DUP1 PUSH1 0x20 ADD SWAP1 MLOAD DUP2 ADD SWAP1 PUSH2 0xE2F SWAP2 SWAP1 PUSH2 0x130B JUMP JUMPDEST PUSH2 0xE6E JUMPI PUSH1 0x40 MLOAD PUSH32 0x8C379A000000000000000000000000000000000000000000000000000000000 DUP2 MSTORE PUSH1 0x4 ADD PUSH2 0xE65 SWAP1 PUSH2 0x17C6 JUMP JUMPDEST PUSH1 0x40 MLOAD DUP1 SWAP2 SUB SWAP1 REVERT JUMPDEST JUMPDEST POP POP POP JUMP JUMPDEST PUSH1 0x60 PUSH2 0xE83 DUP5 DUP5 PUSH1 0x0 DUP6 PUSH2 0xE8C JUMP JUMPDEST SWAP1 POP SWAP4 SWAP3 POP POP POP JUMP JUMPDEST PUSH1 0x60 DUP3 SELFBALANCE LT ISZERO PUSH2 0xED1 JUMPI PUSH1 0x40 MLOAD PUSH32 0x8C379A000000000000000000000000000000000000000000000000000000000 DUP2 MSTORE PUSH1 0x4 ADD PUSH2 0xEC8 SWAP1 PUSH2 0x1858 JUMP JUMPDEST PUSH1 0x40 MLOAD DUP1 SWAP2 SUB SWAP1 REVERT JUMPDEST PUSH1 0x0 DUP1 DUP7 PUSH20 0xFFFFFFFFFFFFFFFFFFFFFFFFFFFFFFFFFFFFFFFF AND DUP6 DUP8 PUSH1 0x40 MLOAD PUSH2 0xEFA SWAP2 SWAP1 PUSH2 0x18B4 JUMP JUMPDEST PUSH1 0x0 PUSH1 0x40 MLOAD DUP1 DUP4 SUB DUP2 DUP6 DUP8 GAS CALL SWAP3 POP POP POP RETURNDATASIZE DUP1 PUSH1 0x0 DUP2 EQ PUSH2 0xF37 JUMPI PUSH1 0x40 MLOAD SWAP2 POP PUSH1 0x1F NOT PUSH1 0x3F RETURNDATASIZE ADD AND DUP3 ADD PUSH1 0x40 MSTORE RETURNDATASIZE DUP3 MSTORE RETURNDATASIZE PUSH1 0x0 PUSH1 0x20 DUP5 ADD RETURNDATACOPY PUSH2 0xF3C JUMP JUMPDEST PUSH1 0x60 SWAP2 POP JUMPDEST POP SWAP2 POP SWAP2 POP PUSH2 0xF4D DUP8 DUP4 DUP4 DUP8 PUSH2 0xF59 JUMP JUMPDEST SWAP3 POP POP POP SWAP5 SWAP4 POP POP POP POP JUMP JUMPDEST PUSH1 0x60 DUP4 ISZERO PUSH2 0xFBB JUMPI PUSH1 0x0 DUP4 MLOAD SUB PUSH2 0xFB3 JUMPI PUSH2 0xF73 DUP6 PUSH2 0xFCE JUMP JUMPDEST PUSH2 0xFB2 JUMPI PUSH1 0x40 MLOAD PUSH32 0x8C379A000000000000000000000000000000000000000000000000000000000 DUP2 MSTORE PUSH1 0x4 ADD PUSH2 0xFA9 SWAP1 PUSH2 0x1917 JUMP JUMPDEST PUSH1 0x40 MLOAD DUP1 SWAP2 SUB SWAP1 REVERT JUMPDEST JUMPDEST DUP3 SWAP1 POP PUSH2 0xFC6 JUMP JUMPDEST PUSH2 0xFC5 DUP4 DUP4 PUSH2 0xFF1 JUMP JUMPDEST JUMPDEST SWAP5 SWAP4 POP POP POP POP JUMP JUMPDEST PUSH1 0x0 DUP1 DUP3 PUSH20 0xFFFFFFFFFFFFFFFFFFFFFFFFFFFFFFFFFFFFFFFF AND EXTCODESIZE GT SWAP1 POP SWAP2 SWAP1 POP JUMP JUMPDEST PUSH1 0x0 DUP3 MLOAD GT ISZERO PUSH2 0x1004 JUMPI DUP2 MLOAD DUP1 DUP4 PUSH1 0x20 ADD REVERT JUMPDEST DUP1 PUSH1 0x40 MLOAD PUSH32 0x8C379A000000000000000000000000000000000000000000000000000000000 DUP2 MSTORE PUSH1 0x4 ADD PUSH2 0x1038 SWAP2 SWAP1 PUSH2 0x197B JUMP JUMPDEST PUSH1 0x40 MLOAD DUP1 SWAP2 SUB SWAP1 REVERT JUMPDEST PUSH1 0x40 MLOAD DUP1 PUSH1 0x40 ADD PUSH1 0x40 MSTORE DUP1 PUSH1 0x0 PUSH20 0xFFFFFFFFFFFFFFFFFFFFFFFFFFFFFFFFFFFFFFFF AND DUP2 MSTORE PUSH1 0x20 ADD PUSH1 0x0 DUP2 MSTORE POP SWAP1 JUMP JUMPDEST PUSH1 0x0 DUP1 REVERT JUMPDEST PUSH1 0x0 PUSH20 0xFFFFFFFFFFFFFFFFFFFFFFFFFFFFFFFFFFFFFFFF DUP3 AND SWAP1 POP SWAP2 SWAP1 POP JUMP JUMPDEST PUSH1 0x0 PUSH2 0x10A1 DUP3 PUSH2 0x1076 JUMP JUMPDEST SWAP1 POP SWAP2 SWAP1 POP JUMP JUMPDEST PUSH2 0x10B1 DUP2 PUSH2 0x1096 JUMP JUMPDEST DUP2 EQ PUSH2 0x10BC JUMPI PUSH1 0x0 DUP1 REVERT JUMPDEST POP JUMP JUMPDEST PUSH1 0x0 DUP2 CALLDATALOAD SWAP1 POP PUSH2 0x10CE DUP2 PUSH2 0x10A8 JUMP JUMPDEST SWAP3 SWAP2 POP POP JUMP JUMPDEST PUSH1 0x0 DUP1 PUSH1 0x40 DUP4 DUP6 SUB SLT ISZERO PUSH2 0x10EB JUMPI PUSH2 0x10EA PUSH2 0x1071 JUMP JUMPDEST JUMPDEST PUSH1 0x0 PUSH2 0x10F9 DUP6 DUP3 DUP7 ADD PUSH2 0x10BF JUMP JUMPDEST SWAP3 POP POP PUSH1 0x20 PUSH2 0x110A DUP6 DUP3 DUP7 ADD PUSH2 0x10BF JUMP JUMPDEST SWAP2 POP POP SWAP3 POP SWAP3 SWAP1 POP JUMP JUMPDEST PUSH1 0x0 PUSH1 0x20 DUP3 DUP5 SUB SLT ISZERO PUSH2 0x112A JUMPI PUSH2 0x1129 PUSH2 0x1071 JUMP JUMPDEST JUMPDEST PUSH1 0x0 PUSH2 0x1138 DUP5 DUP3 DUP6 ADD PUSH2 0x10BF JUMP JUMPDEST SWAP2 POP POP SWAP3 SWAP2 POP POP JUMP JUMPDEST PUSH1 0x0 DUP2 SWAP1 POP SWAP2 SWAP1 POP JUMP JUMPDEST PUSH2 0x1154 DUP2 PUSH2 0x1141 JUMP JUMPDEST DUP3 MSTORE POP POP JUMP JUMPDEST PUSH1 0x0 PUSH1 0x40 DUP3 ADD SWAP1 POP PUSH2 0x116F PUSH1 0x0 DUP4 ADD DUP6 PUSH2 0x114B JUMP JUMPDEST PUSH2 0x117C PUSH1 0x20 DUP4 ADD DUP5 PUSH2 0x114B JUMP JUMPDEST SWAP4 SWAP3 POP POP POP JUMP JUMPDEST PUSH2 0x118C DUP2 PUSH2 0x1096 JUMP JUMPDEST DUP3 MSTORE POP POP JUMP JUMPDEST PUSH1 0x0 PUSH1 0x20 DUP3 ADD SWAP1 POP PUSH2 0x11A7 PUSH1 0x0 DUP4 ADD DUP5 PUSH2 0x1183 JUMP JUMPDEST SWAP3 SWAP2 POP POP JUMP JUMPDEST PUSH1 0x0 PUSH1 0x20 DUP3 ADD SWAP1 POP PUSH2 0x11C2 PUSH1 0x0 DUP4 ADD DUP5 PUSH2 0x114B JUMP JUMPDEST SWAP3 SWAP2 POP POP JUMP JUMPDEST PUSH2 0x11D1 DUP2 PUSH2 0x1141 JUMP JUMPDEST DUP2 EQ PUSH2 0x11DC JUMPI PUSH1 0x0 DUP1 REVERT JUMPDEST POP JUMP JUMPDEST PUSH1 0x0 DUP2 CALLDATALOAD SWAP1 POP PUSH2 0x11EE DUP2 PUSH2 0x11C8 JUMP JUMPDEST SWAP3 SWAP2 POP POP JUMP JUMPDEST PUSH1 0x0 DUP1 PUSH1 0x40 DUP4 DUP6 SUB SLT ISZERO PUSH2 0x120B JUMPI PUSH2 0x120A PUSH2 0x1071 JUMP JUMPDEST JUMPDEST PUSH1 0x0 PUSH2 0x1219 DUP6 DUP3 DUP7 ADD PUSH2 0x10BF JUMP JUMPDEST SWAP3 POP POP PUSH1 0x20 PUSH2 0x122A DUP6 DUP3 DUP7 ADD PUSH2 0x11DF JUMP JUMPDEST SWAP2 POP POP SWAP3 POP SWAP3 SWAP1 POP JUMP JUMPDEST PUSH1 0x0 DUP2 SWAP1 POP SWAP2 SWAP1 POP JUMP JUMPDEST PUSH2 0x1247 DUP2 PUSH2 0x1234 JUMP JUMPDEST DUP3 MSTORE POP POP JUMP JUMPDEST PUSH1 0x0 PUSH1 0x20 DUP3 ADD SWAP1 POP PUSH2 0x1262 PUSH1 0x0 DUP4 ADD DUP5 PUSH2 0x123E JUMP JUMPDEST SWAP3 SWAP2 POP POP JUMP JUMPDEST PUSH1 0x0 DUP2 MLOAD SWAP1 POP PUSH2 0x1277 DUP2 PUSH2 0x11C8 JUMP JUMPDEST SWAP3 SWAP2 POP POP JUMP JUMPDEST PUSH1 0x0 PUSH1 0x20 DUP3 DUP5 SUB SLT ISZERO PUSH2 0x1293 JUMPI PUSH2 0x1292 PUSH2 0x1071 JUMP JUMPDEST JUMPDEST PUSH1 0x0 PUSH2 0x12A1 DUP5 DUP3 DUP6 ADD PUSH2 0x1268 JUMP JUMPDEST SWAP2 POP POP SWAP3 SWAP2 POP POP JUMP JUMPDEST PUSH1 0x0 PUSH1 0x40 DUP3 ADD SWAP1 POP PUSH2 0x12BF PUSH1 0x0 DUP4 ADD DUP6 PUSH2 0x1183 JUMP JUMPDEST PUSH2 0x12CC PUSH1 0x20 DUP4 ADD DUP5 PUSH2 0x114B JUMP JUMPDEST SWAP4 SWAP3 POP POP POP JUMP JUMPDEST PUSH1 0x0 DUP2 ISZERO ISZERO SWAP1 POP SWAP2 SWAP1 POP JUMP JUMPDEST PUSH2 0x12E8 DUP2 PUSH2 0x12D3 JUMP JUMPDEST DUP2 EQ PUSH2 0x12F3 JUMPI PUSH1 0x0 DUP1 REVERT JUMPDEST POP JUMP JUMPDEST PUSH1 0x0 DUP2 MLOAD SWAP1 POP PUSH2 0x1305 DUP2 PUSH2 0x12DF JUMP JUMPDEST SWAP3 SWAP2 POP POP JUMP JUMPDEST PUSH1 0x0 PUSH1 0x20 DUP3 DUP5 SUB SLT ISZERO PUSH2 0x1321 JUMPI PUSH2 0x1320 PUSH2 0x1071 JUMP JUMPDEST JUMPDEST PUSH1 0x0 PUSH2 0x132F DUP5 DUP3 DUP6 ADD PUSH2 0x12F6 JUMP JUMPDEST SWAP2 POP POP SWAP3 SWAP2 POP POP JUMP JUMPDEST PUSH1 0x0 PUSH1 0x40 DUP3 ADD SWAP1 POP PUSH2 0x134D PUSH1 0x0 DUP4 ADD DUP6 PUSH2 0x1183 JUMP JUMPDEST PUSH2 0x135A PUSH1 0x20 DUP4 ADD DUP5 PUSH2 0x1183 JUMP JUMPDEST SWAP4 SWAP3 POP POP POP JUMP JUMPDEST PUSH32 0x4E487B7100000000000000000000000000000000000000000000000000000000 PUSH1 0x0 MSTORE PUSH1 0x41 PUSH1 0x4 MSTORE PUSH1 0x24 PUSH1 0x0 REVERT JUMPDEST PUSH32 0x4E487B7100000000000000000000000000000000000000000000000000000000 PUSH1 0x0 MSTORE PUSH1 0x32 PUSH1 0x4 MSTORE PUSH1 0x24 PUSH1 0x0 REVERT JUMPDEST PUSH1 0x0 PUSH8 0xFFFFFFFFFFFFFFFF DUP3 AND SWAP1 POP SWAP2 SWAP1 POP JUMP JUMPDEST PUSH2 0x13DC DUP2 PUSH2 0x13BF JUMP JUMPDEST DUP3 MSTORE POP POP JUMP JUMPDEST PUSH1 0x0 DUP2 MLOAD SWAP1 POP SWAP2 SWAP1 POP JUMP JUMPDEST PUSH1 0x0 DUP3 DUP3 MSTORE PUSH1 0x20 DUP3 ADD SWAP1 POP SWAP3 SWAP2 POP POP JUMP JUMPDEST PUSH1 0x0 JUMPDEST DUP4 DUP2 LT ISZERO PUSH2 0x141C JUMPI DUP1 DUP3 ADD MLOAD DUP2 DUP5 ADD MSTORE PUSH1 0x20 DUP2 ADD SWAP1 POP PUSH2 0x1401 JUMP JUMPDEST PUSH1 0x0 DUP5 DUP5 ADD MSTORE POP POP POP POP JUMP JUMPDEST PUSH1 0x0 PUSH1 0x1F NOT PUSH1 0x1F DUP4 ADD AND SWAP1 POP SWAP2 SWAP1 POP JUMP JUMPDEST PUSH1 0x0 PUSH2 0x1444 DUP3 PUSH2 0x13E2 JUMP JUMPDEST PUSH2 0x144E DUP2 DUP6 PUSH2 0x13ED JUMP JUMPDEST SWAP4 POP PUSH2 0x145E DUP2 DUP6 PUSH1 0x20 DUP7 ADD PUSH2 0x13FE JUMP JUMPDEST PUSH2 0x1467 DUP2 PUSH2 0x1428 JUMP JUMPDEST DUP5 ADD SWAP2 POP POP SWAP3 SWAP2 POP POP JUMP JUMPDEST PUSH1 0x0 DUP2 MLOAD SWAP1 POP SWAP2 SWAP1 POP JUMP JUMPDEST PUSH1 0x0 DUP3 DUP3 MSTORE PUSH1 0x20 DUP3 ADD SWAP1 POP SWAP3 SWAP2 POP POP JUMP JUMPDEST PUSH1 0x0 DUP2 SWAP1 POP PUSH1 0x20 DUP3 ADD SWAP1 POP SWAP2 SWAP1 POP JUMP JUMPDEST PUSH2 0x14A7 DUP2 PUSH2 0x1096 JUMP JUMPDEST DUP3 MSTORE POP POP JUMP JUMPDEST PUSH2 0x14B6 DUP2 PUSH2 0x1141 JUMP JUMPDEST DUP3 MSTORE POP POP JUMP JUMPDEST PUSH1 0x40 DUP3 ADD PUSH1 0x0 DUP3 ADD MLOAD PUSH2 0x14D2 PUSH1 0x0 DUP6 ADD DUP3 PUSH2 0x149E JUMP JUMPDEST POP PUSH1 0x20 DUP3 ADD MLOAD PUSH2 0x14E5 PUSH1 0x20 DUP6 ADD DUP3 PUSH2 0x14AD JUMP JUMPDEST POP POP POP POP JUMP JUMPDEST PUSH1 0x0 PUSH2 0x14F7 DUP4 DUP4 PUSH2 0x14BC JUMP JUMPDEST PUSH1 0x40 DUP4 ADD SWAP1 POP SWAP3 SWAP2 POP POP JUMP JUMPDEST PUSH1 0x0 PUSH1 0x20 DUP3 ADD SWAP1 POP SWAP2 SWAP1 POP JUMP JUMPDEST PUSH1 0x0 PUSH2 0x151B DUP3 PUSH2 0x1472 JUMP JUMPDEST PUSH2 0x1525 DUP2 DUP6 PUSH2 0x147D JUMP JUMPDEST SWAP4 POP PUSH2 0x1530 DUP4 PUSH2 0x148E JUMP JUMPDEST DUP1 PUSH1 0x0 JUMPDEST DUP4 DUP2 LT ISZERO PUSH2 0x1561 JUMPI DUP2 MLOAD PUSH2 0x1548 DUP9 DUP3 PUSH2 0x14EB JUMP JUMPDEST SWAP8 POP PUSH2 0x1553 DUP4 PUSH2 0x1503 JUMP JUMPDEST SWAP3 POP POP PUSH1 0x1 DUP2 ADD SWAP1 POP PUSH2 0x1534 JUMP JUMPDEST POP DUP6 SWAP4 POP POP POP POP SWAP3 SWAP2 POP POP JUMP JUMPDEST PUSH1 0x0 PUSH1 0xA0 DUP4 ADD PUSH1 0x0 DUP4 ADD MLOAD DUP5 DUP3 SUB PUSH1 0x0 DUP7 ADD MSTORE PUSH2 0x158B DUP3 DUP3 PUSH2 0x1439 JUMP JUMPDEST SWAP2 POP POP PUSH1 0x20 DUP4 ADD MLOAD DUP5 DUP3 SUB PUSH1 0x20 DUP7 ADD MSTORE PUSH2 0x15A5 DUP3 DUP3 PUSH2 0x1439 JUMP JUMPDEST SWAP2 POP POP PUSH1 0x40 DUP4 ADD MLOAD DUP5 DUP3 SUB PUSH1 0x40 DUP7 ADD MSTORE PUSH2 0x15BF DUP3 DUP3 PUSH2 0x1510 JUMP JUMPDEST SWAP2 POP POP PUSH1 0x60 DUP4 ADD MLOAD PUSH2 0x15D4 PUSH1 0x60 DUP7 ADD DUP3 PUSH2 0x149E JUMP JUMPDEST POP PUSH1 0x80 DUP4 ADD MLOAD DUP5 DUP3 SUB PUSH1 0x80 DUP7 ADD MSTORE PUSH2 0x15EC DUP3 DUP3 PUSH2 0x1439 JUMP JUMPDEST SWAP2 POP POP DUP1 SWAP2 POP POP SWAP3 SWAP2 POP POP JUMP JUMPDEST PUSH1 0x0 PUSH1 0x40 DUP3 ADD SWAP1 POP PUSH2 0x160E PUSH1 0x0 DUP4 ADD DUP6 PUSH2 0x13D3 JUMP JUMPDEST DUP2 DUP2 SUB PUSH1 0x20 DUP4 ADD MSTORE PUSH2 0x1620 DUP2 DUP5 PUSH2 0x156E JUMP JUMPDEST SWAP1 POP SWAP4 SWAP3 POP POP POP JUMP JUMPDEST PUSH2 0x1632 DUP2 PUSH2 0x1234 JUMP JUMPDEST DUP2 EQ PUSH2 0x163D JUMPI PUSH1 0x0 DUP1 REVERT JUMPDEST POP JUMP JUMPDEST PUSH1 0x0 DUP2 MLOAD SWAP1 POP PUSH2 0x164F DUP2 PUSH2 0x1629 JUMP JUMPDEST SWAP3 SWAP2 POP POP JUMP JUMPDEST PUSH1 0x0 PUSH1 0x20 DUP3 DUP5 SUB SLT ISZERO PUSH2 0x166B JUMPI PUSH2 0x166A PUSH2 0x1071 JUMP JUMPDEST JUMPDEST PUSH1 0x0 PUSH2 0x1679 DUP5 DUP3 DUP6 ADD PUSH2 0x1640 JUMP JUMPDEST SWAP2 POP POP SWAP3 SWAP2 POP POP JUMP JUMPDEST PUSH1 0x0 PUSH1 0xA0 DUP3 ADD SWAP1 POP PUSH2 0x1697 PUSH1 0x0 DUP4 ADD DUP9 PUSH2 0x123E JUMP JUMPDEST PUSH2 0x16A4 PUSH1 0x20 DUP4 ADD DUP8 PUSH2 0x13D3 JUMP JUMPDEST PUSH2 0x16B1 PUSH1 0x40 DUP4 ADD DUP7 PUSH2 0x1183 JUMP JUMPDEST PUSH2 0x16BE PUSH1 0x60 DUP4 ADD DUP6 PUSH2 0x114B JUMP JUMPDEST PUSH2 0x16CB PUSH1 0x80 DUP4 ADD DUP5 PUSH2 0x114B JUMP JUMPDEST SWAP7 SWAP6 POP POP POP POP POP POP JUMP JUMPDEST PUSH1 0x20 DUP3 ADD PUSH1 0x0 DUP3 ADD MLOAD PUSH2 0x16EB PUSH1 0x0 DUP6 ADD DUP3 PUSH2 0x14AD JUMP JUMPDEST POP POP POP POP JUMP JUMPDEST PUSH1 0x0 PUSH1 0x20 DUP3 ADD SWAP1 POP PUSH2 0x1706 PUSH1 0x0 DUP4 ADD DUP5 PUSH2 0x16D5 JUMP JUMPDEST SWAP3 SWAP2 POP POP JUMP JUMPDEST PUSH1 0x0 PUSH1 0x60 DUP3 ADD SWAP1 POP PUSH2 0x1721 PUSH1 0x0 DUP4 ADD DUP7 PUSH2 0x1183 JUMP JUMPDEST PUSH2 0x172E PUSH1 0x20 DUP4 ADD DUP6 PUSH2 0x1183 JUMP JUMPDEST PUSH2 0x173B PUSH1 0x40 DUP4 ADD DUP5 PUSH2 0x114B JUMP JUMPDEST SWAP5 SWAP4 POP POP POP POP JUMP JUMPDEST PUSH1 0x0 DUP3 DUP3 MSTORE PUSH1 0x20 DUP3 ADD SWAP1 POP SWAP3 SWAP2 POP POP JUMP JUMPDEST PUSH32 0x5361666545524332303A204552433230206F7065726174696F6E20646964206E PUSH1 0x0 DUP3 ADD MSTORE PUSH32 0x6F74207375636365656400000000000000000000000000000000000000000000 PUSH1 0x20 DUP3 ADD MSTORE POP JUMP JUMPDEST PUSH1 0x0 PUSH2 0x17B0 PUSH1 0x2A DUP4 PUSH2 0x1743 JUMP JUMPDEST SWAP2 POP PUSH2 0x17BB DUP3 PUSH2 0x1754 JUMP JUMPDEST PUSH1 0x40 DUP3 ADD SWAP1 POP SWAP2 SWAP1 POP JUMP JUMPDEST PUSH1 0x0 PUSH1 0x20 DUP3 ADD SWAP1 POP DUP2 DUP2 SUB PUSH1 0x0 DUP4 ADD MSTORE PUSH2 0x17DF DUP2 PUSH2 0x17A3 JUMP JUMPDEST SWAP1 POP SWAP2 SWAP1 POP JUMP JUMPDEST PUSH32 0x416464726573733A20696E73756666696369656E742062616C616E636520666F PUSH1 0x0 DUP3 ADD MSTORE PUSH32 0x722063616C6C0000000000000000000000000000000000000000000000000000 PUSH1 0x20 DUP3 ADD MSTORE POP JUMP JUMPDEST PUSH1 0x0 PUSH2 0x1842 PUSH1 0x26 DUP4 PUSH2 0x1743 JUMP JUMPDEST SWAP2 POP PUSH2 0x184D DUP3 PUSH2 0x17E6 JUMP JUMPDEST PUSH1 0x40 DUP3 ADD SWAP1 POP SWAP2 SWAP1 POP JUMP JUMPDEST PUSH1 0x0 PUSH1 0x20 DUP3 ADD SWAP1 POP DUP2 DUP2 SUB PUSH1 0x0 DUP4 ADD MSTORE PUSH2 0x1871 DUP2 PUSH2 0x1835 JUMP JUMPDEST SWAP1 POP SWAP2 SWAP1 POP JUMP JUMPDEST PUSH1 0x0 DUP2 SWAP1 POP SWAP3 SWAP2 POP POP JUMP JUMPDEST PUSH1 0x0 PUSH2 0x188E DUP3 PUSH2 0x13E2 JUMP JUMPDEST PUSH2 0x1898 DUP2 DUP6 PUSH2 0x1878 JUMP JUMPDEST SWAP4 POP PUSH2 0x18A8 DUP2 DUP6 PUSH1 0x20 DUP7 ADD PUSH2 0x13FE JUMP JUMPDEST DUP1 DUP5 ADD SWAP2 POP POP SWAP3 SWAP2 POP POP JUMP JUMPDEST PUSH1 0x0 PUSH2 0x18C0 DUP3 DUP5 PUSH2 0x1883 JUMP JUMPDEST SWAP2 POP DUP2 SWAP1 POP SWAP3 SWAP2 POP POP JUMP JUMPDEST PUSH32 0x416464726573733A2063616C6C20746F206E6F6E2D636F6E7472616374000000 PUSH1 0x0 DUP3 ADD MSTORE POP JUMP JUMPDEST PUSH1 0x0 PUSH2 0x1901 PUSH1 0x1D DUP4 PUSH2 0x1743 JUMP JUMPDEST SWAP2 POP PUSH2 0x190C DUP3 PUSH2 0x18CB JUMP JUMPDEST PUSH1 0x20 DUP3 ADD SWAP1 POP SWAP2 SWAP1 POP JUMP JUMPDEST PUSH1 0x0 PUSH1 0x20 DUP3 ADD SWAP1 POP DUP2 DUP2 SUB PUSH1 0x0 DUP4 ADD MSTORE PUSH2 0x1930 DUP2 PUSH2 0x18F4 JUMP JUMPDEST SWAP1 POP SWAP2 SWAP1 POP JUMP JUMPDEST PUSH1 0x0 DUP2 MLOAD SWAP1 POP SWAP2 SWAP1 POP JUMP JUMPDEST PUSH1 0x0 PUSH2 0x194D DUP3 PUSH2 0x1937 JUMP JUMPDEST PUSH2 0x1957 DUP2 DUP6 PUSH2 0x1743 JUMP JUMPDEST SWAP4 POP PUSH2 0x1967 DUP2 DUP6 PUSH1 0x20 DUP7 ADD PUSH2 0x13FE JUMP JUMPDEST PUSH2 0x1970 DUP2 PUSH2 0x1428 JUMP JUMPDEST DUP5 ADD SWAP2 POP POP SWAP3 SWAP2 POP POP JUMP JUMPDEST PUSH1 0x0 PUSH1 0x20 DUP3 ADD SWAP1 POP DUP2 DUP2 SUB PUSH1 0x0 DUP4 ADD MSTORE PUSH2 0x1995 DUP2 DUP5 PUSH2 0x1942 JUMP JUMPDEST SWAP1 POP SWAP3 SWAP2 POP POP JUMP INVALID LOG2 PUSH5 0x6970667358 0x22 SLT KECCAK256 0xC6 MSTORE 0xC2 REVERT PREVRANDAO DUP11 PUSH16 0x2C990C8CB168D830F307AA234DA34C4B 0xC2 0xAD CALLER PUSH32 0x432E78E36C64736F6C6343000813003300000000000000000000000000000000 "
				},
				"gasEstimates": {
					"creation": {
						"codeDepositCost": "1322200",
						"executionCost": "infinite",
						"totalCost": "infinite"
					},
					"external": {
						"allowanceUsdc()": "infinite",
						"balancesOf(address)": "infinite",
						"owner()": "2533",
						"transferUsdcToSepolia(address,uint256)": "infinite",
						"withdrawToken(address,address)": "infinite"
					}
				},
				"methodIdentifiers": {
					"allowanceUsdc()": "ed3bd5bc",
					"balancesOf(address)": "6392a51f",
					"owner()": "8da5cb5b",
					"transferUsdcToSepolia(address,uint256)": "fe2c5d36",
					"withdrawToken(address,address)": "3aeac4e1"
				}
			},
			"storageLayout": {
				"storage": [
					{
						"astId": 855,
						"contract": "TransferUSDCBasic_flattened.sol:TransferUSDCBasic",
						"label": "owner",
						"offset": 0,
						"slot": "0",
						"type": "t_address"
					},
					{
						"astId": 867,
						"contract": "TransferUSDCBasic_flattened.sol:TransferUSDCBasic",
						"label": "ccipRouterAddress",
						"offset": 0,
						"slot": "1",
						"type": "t_address"
					},
					{
						"astId": 870,
						"contract": "TransferUSDCBasic_flattened.sol:TransferUSDCBasic",
						"label": "linkAddress",
						"offset": 0,
						"slot": "2",
						"type": "t_address"
					},
					{
						"astId": 873,
						"contract": "TransferUSDCBasic_flattened.sol:TransferUSDCBasic",
						"label": "usdcAddress",
						"offset": 0,
						"slot": "3",
						"type": "t_address"
					},
					{
						"astId": 876,
						"contract": "TransferUSDCBasic_flattened.sol:TransferUSDCBasic",
						"label": "destinationChainSelector",
						"offset": 20,
						"slot": "3",
						"type": "t_uint64"
					}
				],
				"types": {
					"t_address": {
						"encoding": "inplace",
						"label": "address",
						"numberOfBytes": "20"
					},
					"t_uint64": {
						"encoding": "inplace",
						"label": "uint64",
						"numberOfBytes": "8"
					}
				}
			},
			"userdoc": {
				"kind": "user",
				"methods": {},
				"notice": "THIS IS AN EXAMPLE CONTRACT THAT USES HARDCODED VALUES FOR CLARITY. THIS IS AN EXAMPLE CONTRACT THAT USES UN-AUDITED CODE. DO NOT USE THIS CODE IN PRODUCTION.",
				"version": 1
			}
		}
	}
}