{
	"EventEmitter.sol": {
		"EventEmitter": {
			"abi": [
				{
					"inputs": [],
					"stateMutability": "nonpayable",
					"type": "constructor"
				},
				{
					"anonymous": false,
					"inputs": [
						{
							"indexed": true,
							"internalType": "address",
							"name": "msgSender",
							"type": "address"
						}
					],
					"name": "WantsToCount",
					"type": "event"
				},
				{
					"inputs": [],
					"name": "emitCountLog",
					"outputs": [],
					"stateMutability": "nonpayable",
					"type": "function"
				}
			],
			"devdoc": {
				"kind": "dev",
				"methods": {},
				"version": 1
			},
			"evm": {
				"assembly": "    /* \"EventEmitter.sol\":59:248  contract EventEmitter {  ... */\n  mstore(0x40, 0x80)\n    /* \"EventEmitter.sol\":141:157  constructor() {} */\n  callvalue\n  dup1\n  iszero\n  tag_1\n  jumpi\n  0x00\n  dup1\n  revert\ntag_1:\n  pop\n    /* \"EventEmitter.sol\":59:248  contract EventEmitter {  ... */\n  dataSize(sub_0)\n  dup1\n  dataOffset(sub_0)\n  0x00\n  codecopy\n  0x00\n  return\nstop\n\nsub_0: assembly {\n        /* \"EventEmitter.sol\":59:248  contract EventEmitter {  ... */\n      mstore(0x40, 0x80)\n      callvalue\n      dup1\n      iszero\n      tag_1\n      jumpi\n      0x00\n      dup1\n      revert\n    tag_1:\n      pop\n      jumpi(tag_2, lt(calldatasize, 0x04))\n      shr(0xe0, calldataload(0x00))\n      dup1\n      0x3ebca8e1\n      eq\n      tag_3\n      jumpi\n    tag_2:\n      0x00\n      dup1\n      revert\n        /* \"EventEmitter.sol\":163:244  function emitCountLog() public {  ... */\n    tag_3:\n      tag_4\n      tag_5\n      jump\t// in\n    tag_4:\n      stop\n    tag_5:\n        /* \"EventEmitter.sol\":224:234  msg.sender */\n      caller\n        /* \"EventEmitter.sol\":211:235  WantsToCount(msg.sender) */\n      0xffffffffffffffffffffffffffffffffffffffff\n      and\n      0xe3cba3b68882650dc76730e77105080229f9f61f5c33b10e9aa239ff26d01d94\n      mload(0x40)\n      mload(0x40)\n      dup1\n      swap2\n      sub\n      swap1\n      log2\n        /* \"EventEmitter.sol\":163:244  function emitCountLog() public {  ... */\n      jump\t// out\n\n    auxdata: 0xa2646970667358221220bfd4e3e0ccf8ca36c93e3d0c356e524aaa6ec9be24804fd03faf57095434eaab64736f6c63430008130033\n}\n",
				"bytecode": {
					"linkReferences": {},
					"object": "6080604052348015600f57600080fd5b5060b08061001e6000396000f3fe6080604052348015600f57600080fd5b506004361060285760003560e01c80633ebca8e114602d575b600080fd5b60336035565b005b3373ffffffffffffffffffffffffffffffffffffffff167fe3cba3b68882650dc76730e77105080229f9f61f5c33b10e9aa239ff26d01d9460405160405180910390a256fea2646970667358221220bfd4e3e0ccf8ca36c93e3d0c356e524aaa6ec9be24804fd03faf57095434eaab64736f6c63430008130033",
					"opcodes": "PUSH1 0x80 PUSH1 0x40 MSTORE CALLVALUE DUP1 ISZERO PUSH1 0xF JUMPI PUSH1 0x0 DUP1 REVERT JUMPDEST POP PUSH1 0xB0 DUP1 PUSH2 0x1E PUSH1 0x0 CODECOPY PUSH1 0x0 RETURN INVALID PUSH1 0x80 PUSH1 0x40 MSTORE CALLVALUE DUP1 ISZERO PUSH1 0xF JUMPI PUSH1 0x0 DUP1 REVERT JUMPDEST POP PUSH1 0x4 CALLDATASIZE LT PUSH1 0x28 JUMPI PUSH1 0x0 CALLDATALOAD PUSH1 0xE0 SHR DUP1 PUSH4 0x3EBCA8E1 EQ PUSH1 0x2D JUMPI JUMPDEST PUSH1 0x0 DUP1 REVERT JUMPDEST PUSH1 0x33 PUSH1 0x35 JUMP JUMPDEST STOP JUMPDEST CALLER PUSH20 0xFFFFFFFFFFFFFFFFFFFFFFFFFFFFFFFFFFFFFFFF AND PUSH32 0xE3CBA3B68882650DC76730E77105080229F9F61F5C33B10E9AA239FF26D01D94 PUSH1 0x40 MLOAD PUSH1 0x40 MLOAD DUP1 SWAP2 SUB SWAP1 LOG2 JUMP INVALID LOG2 PUSH5 0x6970667358 0x22 SLT KECCAK256 0xBF 0xD4 0xE3 0xE0 0xCC 0xF8 0xCA CALLDATASIZE 0xC9 RETURNDATACOPY RETURNDATASIZE 0xC CALLDATALOAD PUSH15 0x524AAA6EC9BE24804FD03FAF570954 CALLVALUE 0xEA 0xAB PUSH5 0x736F6C6343 STOP ADDMOD SGT STOP CALLER "
				},
				"gasEstimates": {
					"creation": {
						"codeDepositCost": "35200",
						"executionCost": "87",
						"totalCost": "35287"
					},
					"external": {
						"emitCountLog()": "1282"
					}
				},
				"methodIdentifiers": {
					"emitCountLog()": "3ebca8e1"
				}
			},
			"storageLayout": {
				"storage": [],
				"types": null
			},
			"userdoc": {
				"kind": "user",
				"methods": {},
				"version": 1
			}
		}
	}
}