{
	"data": {
		"bytecode": {
			"linkReferences": {},
			"object": "60806040526000805534801561001457600080fd5b506107e0806100246000396000f3fe608060405234801561001057600080fd5b506004361061004c5760003560e01c806340691db4146100515780634585e33b146100825780635ced058e1461009e578063f937f910146100ce575b600080fd5b61006b60048036038101906100669190610359565b6100ec565b60405161007992919061046b565b60405180910390f35b61009c600480360381019061009791906104fb565b610153565b005b6100b860048036038101906100b3919061057e565b6101c7565b6040516100c591906105ec565b60405180910390f35b6100d66101d4565b6040516100e39190610620565b60405180910390f35b60006060600191506000610127858060c00190610109919061064a565b600181811061011b5761011a6106ad565b5b905060200201356101c7565b90508060405160200161013a91906105ec565b6040516020818303038152906040529150509250929050565b6001600080828254610165919061070b565b925050819055506000828281019061017d919061077d565b90508073ffffffffffffffffffffffffffffffffffffffff167f9dc7dc9b337aa2897cc3559260e1bf9eae7db329f1121de7c27a28fca8b2eed160405160405180910390a2505050565b60008160001c9050919050565b60005481565b6000604051905090565b600080fd5b600080fd5b600080fd5b6000610100828403121561020a576102096101ee565b5b81905092915050565b600080fd5b600080fd5b6000601f19601f8301169050919050565b7f4e487b7100000000000000000000000000000000000000000000000000000000600052604160045260246000fd5b6102668261021d565b810181811067ffffffffffffffff821117156102855761028461022e565b5b80604052505050565b60006102986101da565b90506102a4828261025d565b919050565b600067ffffffffffffffff8211156102c4576102c361022e565b5b6102cd8261021d565b9050602081019050919050565b82818337600083830152505050565b60006102fc6102f7846102a9565b61028e565b90508281526020810184848401111561031857610317610218565b5b6103238482856102da565b509392505050565b600082601f8301126103405761033f610213565b5b81356103508482602086016102e9565b91505092915050565b600080604083850312156103705761036f6101e4565b5b600083013567ffffffffffffffff81111561038e5761038d6101e9565b5b61039a858286016101f3565b925050602083013567ffffffffffffffff8111156103bb576103ba6101e9565b5b6103c78582860161032b565b9150509250929050565b60008115159050919050565b6103e6816103d1565b82525050565b600081519050919050565b600082825260208201905092915050565b60005b8381101561042657808201518184015260208101905061040b565b60008484015250505050565b600061043d826103ec565b61044781856103f7565b9350610457818560208601610408565b6104608161021d565b840191505092915050565b600060408201905061048060008301856103dd565b81810360208301526104928184610432565b90509392505050565b600080fd5b600080fd5b60008083601f8401126104bb576104ba610213565b5b8235905067ffffffffffffffff8111156104d8576104d761049b565b5b6020830191508360018202830111156104f4576104f36104a0565b5b9250929050565b60008060208385031215610512576105116101e4565b5b600083013567ffffffffffffffff8111156105305761052f6101e9565b5b61053c858286016104a5565b92509250509250929050565b6000819050919050565b61055b81610548565b811461056657600080fd5b50565b60008135905061057881610552565b92915050565b600060208284031215610594576105936101e4565b5b60006105a284828501610569565b91505092915050565b600073ffffffffffffffffffffffffffffffffffffffff82169050919050565b60006105d6826105ab565b9050919050565b6105e6816105cb565b82525050565b600060208201905061060160008301846105dd565b92915050565b6000819050919050565b61061a81610607565b82525050565b60006020820190506106356000830184610611565b92915050565b600080fd5b600080fd5b600080fd5b600080833560016020038436030381126106675761066661063b565b5b80840192508235915067ffffffffffffffff82111561068957610688610640565b5b6020830192506020820236038313156106a5576106a4610645565b5b509250929050565b7f4e487b7100000000000000000000000000000000000000000000000000000000600052603260045260246000fd5b7f4e487b7100000000000000000000000000000000000000000000000000000000600052601160045260246000fd5b600061071682610607565b915061072183610607565b9250828201905080821115610739576107386106dc565b5b92915050565b600061074a826105ab565b9050919050565b61075a8161073f565b811461076557600080fd5b50565b60008135905061077781610751565b92915050565b600060208284031215610793576107926101e4565b5b60006107a184828501610768565b9150509291505056fea2646970667358221220c47e232e2dfc81190885506aa846889c26e20492f9f004791b4bb4e0b9e8b15964736f6c63430008130033",
			"opcodes": "PUSH1 0x80 PUSH1 0x40 MSTORE PUSH1 0x0 DUP1 SSTORE CALLVALUE DUP1 ISZERO PUSH2 0x14 JUMPI PUSH1 0x0 DUP1 REVERT JUMPDEST POP PUSH2 0x7E0 DUP1 PUSH2 0x24 PUSH1 0x0 CODECOPY PUSH1 0x0 RETURN INVALID PUSH1 0x80 PUSH1 0x40 MSTORE CALLVALUE DUP1 ISZERO PUSH2 0x10 JUMPI PUSH1 0x0 DUP1 REVERT JUMPDEST POP PUSH1 0x4 CALLDATASIZE LT PUSH2 0x4C JUMPI PUSH1 0x0 CALLDATALOAD PUSH1 0xE0 SHR DUP1 PUSH4 0x40691DB4 EQ PUSH2 0x51 JUMPI DUP1 PUSH4 0x4585E33B EQ PUSH2 0x82 JUMPI DUP1 PUSH4 0x5CED058E EQ PUSH2 0x9E JUMPI DUP1 PUSH4 0xF937F910 EQ PUSH2 0xCE JUMPI JUMPDEST PUSH1 0x0 DUP1 REVERT JUMPDEST PUSH2 0x6B PUSH1 0x4 DUP1 CALLDATASIZE SUB DUP2 ADD SWAP1 PUSH2 0x66 SWAP2 SWAP1 PUSH2 0x359 JUMP JUMPDEST PUSH2 0xEC JUMP JUMPDEST PUSH1 0x40 MLOAD PUSH2 0x79 SWAP3 SWAP2 SWAP1 PUSH2 0x46B JUMP JUMPDEST PUSH1 0x40 MLOAD DUP1 SWAP2 SUB SWAP1 RETURN JUMPDEST PUSH2 0x9C PUSH1 0x4 DUP1 CALLDATASIZE SUB DUP2 ADD SWAP1 PUSH2 0x97 SWAP2 SWAP1 PUSH2 0x4FB JUMP JUMPDEST PUSH2 0x153 JUMP JUMPDEST STOP JUMPDEST PUSH2 0xB8 PUSH1 0x4 DUP1 CALLDATASIZE SUB DUP2 ADD SWAP1 PUSH2 0xB3 SWAP2 SWAP1 PUSH2 0x57E JUMP JUMPDEST PUSH2 0x1C7 JUMP JUMPDEST PUSH1 0x40 MLOAD PUSH2 0xC5 SWAP2 SWAP1 PUSH2 0x5EC JUMP JUMPDEST PUSH1 0x40 MLOAD DUP1 SWAP2 SUB SWAP1 RETURN JUMPDEST PUSH2 0xD6 PUSH2 0x1D4 JUMP JUMPDEST PUSH1 0x40 MLOAD PUSH2 0xE3 SWAP2 SWAP1 PUSH2 0x620 JUMP JUMPDEST PUSH1 0x40 MLOAD DUP1 SWAP2 SUB SWAP1 RETURN JUMPDEST PUSH1 0x0 PUSH1 0x60 PUSH1 0x1 SWAP2 POP PUSH1 0x0 PUSH2 0x127 DUP6 DUP1 PUSH1 0xC0 ADD SWAP1 PUSH2 0x109 SWAP2 SWAP1 PUSH2 0x64A JUMP JUMPDEST PUSH1 0x1 DUP2 DUP2 LT PUSH2 0x11B JUMPI PUSH2 0x11A PUSH2 0x6AD JUMP JUMPDEST JUMPDEST SWAP1 POP PUSH1 0x20 MUL ADD CALLDATALOAD PUSH2 0x1C7 JUMP JUMPDEST SWAP1 POP DUP1 PUSH1 0x40 MLOAD PUSH1 0x20 ADD PUSH2 0x13A SWAP2 SWAP1 PUSH2 0x5EC JUMP JUMPDEST PUSH1 0x40 MLOAD PUSH1 0x20 DUP2 DUP4 SUB SUB DUP2 MSTORE SWAP1 PUSH1 0x40 MSTORE SWAP2 POP POP SWAP3 POP SWAP3 SWAP1 POP JUMP JUMPDEST PUSH1 0x1 PUSH1 0x0 DUP1 DUP3 DUP3 SLOAD PUSH2 0x165 SWAP2 SWAP1 PUSH2 0x70B JUMP JUMPDEST SWAP3 POP POP DUP2 SWAP1 SSTORE POP PUSH1 0x0 DUP3 DUP3 DUP2 ADD SWAP1 PUSH2 0x17D SWAP2 SWAP1 PUSH2 0x77D JUMP JUMPDEST SWAP1 POP DUP1 PUSH20 0xFFFFFFFFFFFFFFFFFFFFFFFFFFFFFFFFFFFFFFFF AND PUSH32 0x9DC7DC9B337AA2897CC3559260E1BF9EAE7DB329F1121DE7C27A28FCA8B2EED1 PUSH1 0x40 MLOAD PUSH1 0x40 MLOAD DUP1 SWAP2 SUB SWAP1 LOG2 POP POP POP JUMP JUMPDEST PUSH1 0x0 DUP2 PUSH1 0x0 SHR SWAP1 POP SWAP2 SWAP1 POP JUMP JUMPDEST PUSH1 0x0 SLOAD DUP2 JUMP JUMPDEST PUSH1 0x0 PUSH1 0x40 MLOAD SWAP1 POP SWAP1 JUMP JUMPDEST PUSH1 0x0 DUP1 REVERT JUMPDEST PUSH1 0x0 DUP1 REVERT JUMPDEST PUSH1 0x0 DUP1 REVERT JUMPDEST PUSH1 0x0 PUSH2 0x100 DUP3 DUP5 SUB SLT ISZERO PUSH2 0x20A JUMPI PUSH2 0x209 PUSH2 0x1EE JUMP JUMPDEST JUMPDEST DUP2 SWAP1 POP SWAP3 SWAP2 POP POP JUMP JUMPDEST PUSH1 0x0 DUP1 REVERT JUMPDEST PUSH1 0x0 DUP1 REVERT JUMPDEST PUSH1 0x0 PUSH1 0x1F NOT PUSH1 0x1F DUP4 ADD AND SWAP1 POP SWAP2 SWAP1 POP JUMP JUMPDEST PUSH32 0x4E487B7100000000000000000000000000000000000000000000000000000000 PUSH1 0x0 MSTORE PUSH1 0x41 PUSH1 0x4 MSTORE PUSH1 0x24 PUSH1 0x0 REVERT JUMPDEST PUSH2 0x266 DUP3 PUSH2 0x21D JUMP JUMPDEST DUP2 ADD DUP2 DUP2 LT PUSH8 0xFFFFFFFFFFFFFFFF DUP3 GT OR ISZERO PUSH2 0x285 JUMPI PUSH2 0x284 PUSH2 0x22E JUMP JUMPDEST JUMPDEST DUP1 PUSH1 0x40 MSTORE POP POP POP JUMP JUMPDEST PUSH1 0x0 PUSH2 0x298 PUSH2 0x1DA JUMP JUMPDEST SWAP1 POP PUSH2 0x2A4 DUP3 DUP3 PUSH2 0x25D JUMP JUMPDEST SWAP2 SWAP1 POP JUMP JUMPDEST PUSH1 0x0 PUSH8 0xFFFFFFFFFFFFFFFF DUP3 GT ISZERO PUSH2 0x2C4 JUMPI PUSH2 0x2C3 PUSH2 0x22E JUMP JUMPDEST JUMPDEST PUSH2 0x2CD DUP3 PUSH2 0x21D JUMP JUMPDEST SWAP1 POP PUSH1 0x20 DUP2 ADD SWAP1 POP SWAP2 SWAP1 POP JUMP JUMPDEST DUP3 DUP2 DUP4 CALLDATACOPY PUSH1 0x0 DUP4 DUP4 ADD MSTORE POP POP POP JUMP JUMPDEST PUSH1 0x0 PUSH2 0x2FC PUSH2 0x2F7 DUP5 PUSH2 0x2A9 JUMP JUMPDEST PUSH2 0x28E JUMP JUMPDEST SWAP1 POP DUP3 DUP2 MSTORE PUSH1 0x20 DUP2 ADD DUP5 DUP5 DUP5 ADD GT ISZERO PUSH2 0x318 JUMPI PUSH2 0x317 PUSH2 0x218 JUMP JUMPDEST JUMPDEST PUSH2 0x323 DUP5 DUP3 DUP6 PUSH2 0x2DA JUMP JUMPDEST POP SWAP4 SWAP3 POP POP POP JUMP JUMPDEST PUSH1 0x0 DUP3 PUSH1 0x1F DUP4 ADD SLT PUSH2 0x340 JUMPI PUSH2 0x33F PUSH2 0x213 JUMP JUMPDEST JUMPDEST DUP2 CALLDATALOAD PUSH2 0x350 DUP5 DUP3 PUSH1 0x20 DUP7 ADD PUSH2 0x2E9 JUMP JUMPDEST SWAP2 POP POP SWAP3 SWAP2 POP POP JUMP JUMPDEST PUSH1 0x0 DUP1 PUSH1 0x40 DUP4 DUP6 SUB SLT ISZERO PUSH2 0x370 JUMPI PUSH2 0x36F PUSH2 0x1E4 JUMP JUMPDEST JUMPDEST PUSH1 0x0 DUP4 ADD CALLDATALOAD PUSH8 0xFFFFFFFFFFFFFFFF DUP2 GT ISZERO PUSH2 0x38E JUMPI PUSH2 0x38D PUSH2 0x1E9 JUMP JUMPDEST JUMPDEST PUSH2 0x39A DUP6 DUP3 DUP7 ADD PUSH2 0x1F3 JUMP JUMPDEST SWAP3 POP POP PUSH1 0x20 DUP4 ADD CALLDATALOAD PUSH8 0xFFFFFFFFFFFFFFFF DUP2 GT ISZERO PUSH2 0x3BB JUMPI PUSH2 0x3BA PUSH2 0x1E9 JUMP JUMPDEST JUMPDEST PUSH2 0x3C7 DUP6 DUP3 DUP7 ADD PUSH2 0x32B JUMP JUMPDEST SWAP2 POP POP SWAP3 POP SWAP3 SWAP1 POP JUMP JUMPDEST PUSH1 0x0 DUP2 ISZERO ISZERO SWAP1 POP SWAP2 SWAP1 POP JUMP JUMPDEST PUSH2 0x3E6 DUP2 PUSH2 0x3D1 JUMP JUMPDEST DUP3 MSTORE POP POP JUMP JUMPDEST PUSH1 0x0 DUP2 MLOAD SWAP1 POP SWAP2 SWAP1 POP JUMP JUMPDEST PUSH1 0x0 DUP3 DUP3 MSTORE PUSH1 0x20 DUP3 ADD SWAP1 POP SWAP3 SWAP2 POP POP JUMP JUMPDEST PUSH1 0x0 JUMPDEST DUP4 DUP2 LT ISZERO PUSH2 0x426 JUMPI DUP1 DUP3 ADD MLOAD DUP2 DUP5 ADD MSTORE PUSH1 0x20 DUP2 ADD SWAP1 POP PUSH2 0x40B JUMP JUMPDEST PUSH1 0x0 DUP5 DUP5 ADD MSTORE POP POP POP POP JUMP JUMPDEST PUSH1 0x0 PUSH2 0x43D DUP3 PUSH2 0x3EC JUMP JUMPDEST PUSH2 0x447 DUP2 DUP6 PUSH2 0x3F7 JUMP JUMPDEST SWAP4 POP PUSH2 0x457 DUP2 DUP6 PUSH1 0x20 DUP7 ADD PUSH2 0x408 JUMP JUMPDEST PUSH2 0x460 DUP2 PUSH2 0x21D JUMP JUMPDEST DUP5 ADD SWAP2 POP POP SWAP3 SWAP2 POP POP JUMP JUMPDEST PUSH1 0x0 PUSH1 0x40 DUP3 ADD SWAP1 POP PUSH2 0x480 PUSH1 0x0 DUP4 ADD DUP6 PUSH2 0x3DD JUMP JUMPDEST DUP2 DUP2 SUB PUSH1 0x20 DUP4 ADD MSTORE PUSH2 0x492 DUP2 DUP5 PUSH2 0x432 JUMP JUMPDEST SWAP1 POP SWAP4 SWAP3 POP POP POP JUMP JUMPDEST PUSH1 0x0 DUP1 REVERT JUMPDEST PUSH1 0x0 DUP1 REVERT JUMPDEST PUSH1 0x0 DUP1 DUP4 PUSH1 0x1F DUP5 ADD SLT PUSH2 0x4BB JUMPI PUSH2 0x4BA PUSH2 0x213 JUMP JUMPDEST JUMPDEST DUP3 CALLDATALOAD SWAP1 POP PUSH8 0xFFFFFFFFFFFFFFFF DUP2 GT ISZERO PUSH2 0x4D8 JUMPI PUSH2 0x4D7 PUSH2 0x49B JUMP JUMPDEST JUMPDEST PUSH1 0x20 DUP4 ADD SWAP2 POP DUP4 PUSH1 0x1 DUP3 MUL DUP4 ADD GT ISZERO PUSH2 0x4F4 JUMPI PUSH2 0x4F3 PUSH2 0x4A0 JUMP JUMPDEST JUMPDEST SWAP3 POP SWAP3 SWAP1 POP JUMP JUMPDEST PUSH1 0x0 DUP1 PUSH1 0x20 DUP4 DUP6 SUB SLT ISZERO PUSH2 0x512 JUMPI PUSH2 0x511 PUSH2 0x1E4 JUMP JUMPDEST JUMPDEST PUSH1 0x0 DUP4 ADD CALLDATALOAD PUSH8 0xFFFFFFFFFFFFFFFF DUP2 GT ISZERO PUSH2 0x530 JUMPI PUSH2 0x52F PUSH2 0x1E9 JUMP JUMPDEST JUMPDEST PUSH2 0x53C DUP6 DUP3 DUP7 ADD PUSH2 0x4A5 JUMP JUMPDEST SWAP3 POP SWAP3 POP POP SWAP3 POP SWAP3 SWAP1 POP JUMP JUMPDEST PUSH1 0x0 DUP2 SWAP1 POP SWAP2 SWAP1 POP JUMP JUMPDEST PUSH2 0x55B DUP2 PUSH2 0x548 JUMP JUMPDEST DUP2 EQ PUSH2 0x566 JUMPI PUSH1 0x0 DUP1 REVERT JUMPDEST POP JUMP JUMPDEST PUSH1 0x0 DUP2 CALLDATALOAD SWAP1 POP PUSH2 0x578 DUP2 PUSH2 0x552 JUMP JUMPDEST SWAP3 SWAP2 POP POP JUMP JUMPDEST PUSH1 0x0 PUSH1 0x20 DUP3 DUP5 SUB SLT ISZERO PUSH2 0x594 JUMPI PUSH2 0x593 PUSH2 0x1E4 JUMP JUMPDEST JUMPDEST PUSH1 0x0 PUSH2 0x5A2 DUP5 DUP3 DUP6 ADD PUSH2 0x569 JUMP JUMPDEST SWAP2 POP POP SWAP3 SWAP2 POP POP JUMP JUMPDEST PUSH1 0x0 PUSH20 0xFFFFFFFFFFFFFFFFFFFFFFFFFFFFFFFFFFFFFFFF DUP3 AND SWAP1 POP SWAP2 SWAP1 POP JUMP JUMPDEST PUSH1 0x0 PUSH2 0x5D6 DUP3 PUSH2 0x5AB JUMP JUMPDEST SWAP1 POP SWAP2 SWAP1 POP JUMP JUMPDEST PUSH2 0x5E6 DUP2 PUSH2 0x5CB JUMP JUMPDEST DUP3 MSTORE POP POP JUMP JUMPDEST PUSH1 0x0 PUSH1 0x20 DUP3 ADD SWAP1 POP PUSH2 0x601 PUSH1 0x0 DUP4 ADD DUP5 PUSH2 0x5DD JUMP JUMPDEST SWAP3 SWAP2 POP POP JUMP JUMPDEST PUSH1 0x0 DUP2 SWAP1 POP SWAP2 SWAP1 POP JUMP JUMPDEST PUSH2 0x61A DUP2 PUSH2 0x607 JUMP JUMPDEST DUP3 MSTORE POP POP JUMP JUMPDEST PUSH1 0x0 PUSH1 0x20 DUP3 ADD SWAP1 POP PUSH2 0x635 PUSH1 0x0 DUP4 ADD DUP5 PUSH2 0x611 JUMP JUMPDEST SWAP3 SWAP2 POP POP JUMP JUMPDEST PUSH1 0x0 DUP1 REVERT JUMPDEST PUSH1 0x0 DUP1 REVERT JUMPDEST PUSH1 0x0 DUP1 REVERT JUMPDEST PUSH1 0x0 DUP1 DUP4 CALLDATALOAD PUSH1 0x1 PUSH1 0x20 SUB DUP5 CALLDATASIZE SUB SUB DUP2 SLT PUSH2 0x667 JUMPI PUSH2 0x666 PUSH2 0x63B JUMP JUMPDEST JUMPDEST DUP1 DUP5 ADD SWAP3 POP DUP3 CALLDATALOAD SWAP2 POP PUSH8 0xFFFFFFFFFFFFFFFF DUP3 GT ISZERO PUSH2 0x689 JUMPI PUSH2 0x688 PUSH2 0x640 JUMP JUMPDEST JUMPDEST PUSH1 0x20 DUP4 ADD SWAP3 POP PUSH1 0x20 DUP3 MUL CALLDATASIZE SUB DUP4 SGT ISZERO PUSH2 0x6A5 JUMPI PUSH2 0x6A4 PUSH2 0x645 JUMP JUMPDEST JUMPDEST POP SWAP3 POP SWAP3 SWAP1 POP JUMP JUMPDEST PUSH32 0x4E487B7100000000000000000000000000000000000000000000000000000000 PUSH1 0x0 MSTORE PUSH1 0x32 PUSH1 0x4 MSTORE PUSH1 0x24 PUSH1 0x0 REVERT JUMPDEST PUSH32 0x4E487B7100000000000000000000000000000000000000000000000000000000 PUSH1 0x0 MSTORE PUSH1 0x11 PUSH1 0x4 MSTORE PUSH1 0x24 PUSH1 0x0 REVERT JUMPDEST PUSH1 0x0 PUSH2 0x716 DUP3 PUSH2 0x607 JUMP JUMPDEST SWAP2 POP PUSH2 0x721 DUP4 PUSH2 0x607 JUMP JUMPDEST SWAP3 POP DUP3 DUP3 ADD SWAP1 POP DUP1 DUP3 GT ISZERO PUSH2 0x739 JUMPI PUSH2 0x738 PUSH2 0x6DC JUMP JUMPDEST JUMPDEST SWAP3 SWAP2 POP POP JUMP JUMPDEST PUSH1 0x0 PUSH2 0x74A DUP3 PUSH2 0x5AB JUMP JUMPDEST SWAP1 POP SWAP2 SWAP1 POP JUMP JUMPDEST PUSH2 0x75A DUP2 PUSH2 0x73F JUMP JUMPDEST DUP2 EQ PUSH2 0x765 JUMPI PUSH1 0x0 DUP1 REVERT JUMPDEST POP JUMP JUMPDEST PUSH1 0x0 DUP2 CALLDATALOAD SWAP1 POP PUSH2 0x777 DUP2 PUSH2 0x751 JUMP JUMPDEST SWAP3 SWAP2 POP POP JUMP JUMPDEST PUSH1 0x0 PUSH1 0x20 DUP3 DUP5 SUB SLT ISZERO PUSH2 0x793 JUMPI PUSH2 0x792 PUSH2 0x1E4 JUMP JUMPDEST JUMPDEST PUSH1 0x0 PUSH2 0x7A1 DUP5 DUP3 DUP6 ADD PUSH2 0x768 JUMP JUMPDEST SWAP2 POP POP SWAP3 SWAP2 POP POP JUMP INVALID LOG2 PUSH5 0x6970667358 0x22 SLT KECCAK256 0xC4 PUSH31 0x232E2DFC81190885506AA846889C26E20492F9F004791B4BB4E0B9E8B15964 PUSH20 0x6F6C634300081300330000000000000000000000 "
		},
		"gasEstimates": {
			"creation": {
				"codeDepositCost": "403200",
				"executionCost": "5442",
				"totalCost": "408642"
			},
			"external": {
				"bytes32ToAddress(bytes32)": "679",
				"checkLog((uint256,uint256,bytes32,uint256,bytes32,address,bytes32[],bytes),bytes)": "infinite",
				"counted()": "2473",
				"performUpkeep(bytes)": "infinite"
			}
		},
		"methodIdentifiers": {
			"bytes32ToAddress(bytes32)": "5ced058e",
			"checkLog((uint256,uint256,bytes32,uint256,bytes32,address,bytes32[],bytes),bytes)": "40691db4",
			"counted()": "f937f910",
			"performUpkeep(bytes)": "4585e33b"
		}
	},
	"abi": [
		{
			"inputs": [],
			"stateMutability": "nonpayable",
			"type": "constructor"
		},
		{
			"anonymous": false,
			"inputs": [
				{
					"indexed": true,
					"internalType": "address",
					"name": "msgSender",
					"type": "address"
				}
			],
			"name": "CountedBy",
			"type": "event"
		},
		{
			"inputs": [
				{
					"internalType": "bytes32",
					"name": "_address",
					"type": "bytes32"
				}
			],
			"name": "bytes32ToAddress",
			"outputs": [
				{
					"internalType": "address",
					"name": "",
					"type": "address"
				}
			],
			"stateMutability": "pure",
			"type": "function"
		},
		{
			"inputs": [
				{
					"components": [
						{
							"internalType": "uint256",
							"name": "index",
							"type": "uint256"
						},
						{
							"internalType": "uint256",
							"name": "timestamp",
							"type": "uint256"
						},
						{
							"internalType": "bytes32",
							"name": "txHash",
							"type": "bytes32"
						},
						{
							"internalType": "uint256",
							"name": "blockNumber",
							"type": "uint256"
						},
						{
							"internalType": "bytes32",
							"name": "blockHash",
							"type": "bytes32"
						},
						{
							"internalType": "address",
							"name": "source",
							"type": "address"
						},
						{
							"internalType": "bytes32[]",
							"name": "topics",
							"type": "bytes32[]"
						},
						{
							"internalType": "bytes",
							"name": "data",
							"type": "bytes"
						}
					],
					"internalType": "struct Log",
					"name": "log",
					"type": "tuple"
				},
				{
					"internalType": "bytes",
					"name": "",
					"type": "bytes"
				}
			],
			"name": "checkLog",
			"outputs": [
				{
					"internalType": "bool",
					"name": "upkeepNeeded",
					"type": "bool"
				},
				{
					"internalType": "bytes",
					"name": "performData",
					"type": "bytes"
				}
			],
			"stateMutability": "pure",
			"type": "function"
		},
		{
			"inputs": [],
			"name": "counted",
			"outputs": [
				{
					"internalType": "uint256",
					"name": "",
					"type": "uint256"
				}
			],
			"stateMutability": "view",
			"type": "function"
		},
		{
			"inputs": [
				{
					"internalType": "bytes",
					"name": "performData",
					"type": "bytes"
				}
			],
			"name": "performUpkeep",
			"outputs": [],
			"stateMutability": "nonpayable",
			"type": "function"
		}
	]
}